:1000000080311828080008007E1480310B1F092851
:100010000A2816282E001A1C0E280F281628101C35
:100020001228132816289031D72080317E1009001D
:1000300080311A282000EE01EF012100EE01EF01CE
:1000400020308400013085001D30903165208031E2
:10005000A0308400013085003D3090316520803132
:100060007E102000803134289131BD2180318B17E2
:100070000B172200AF01AE01AD010330CD004D08DA
:10008000EF00AC010430CD004D08EE00ED01ED0AAB
:10009000E801E80A1330CD004D08EC000230CD0035
:1000A0004D08EB00FF30CD004D08EA00FF30CD00D9
:1000B0004D08E900AA010030DD007030DE00A90122
:1000C0000030DC000030DB000030DA008030D90086
:1000D000A801A701E701E70A2030CD004D08E6009E
:1000E0002030CD004D08E5002030CD004D08E40063
:1000F0002030CD004D082300DD0061302200CD000E
:100100004D08E3009031BD20803196314D2680317D
:100110009631D026803193310F2380315030220028
:10012000CD004D08C4004530CE004E08C50040301B
:10013000CF004F08C6003530D0005008C7006530EA
:10014000D1005108C80055309431812480313B30B2
:100150002200CD004D08BF003A30CE004E08C0004E
:100160003930CF004F08C1003830D0005008C200ED
:100170003730D1005108C3003630D2005208C400D5
:100180003530D3005308C5003430D4005408C600BD
:100190003330D5005508C7003230D6005608C800A5
:1001A0003130D7005708C9003030D8005808CA008D
:1001B0003C308931C421803122003608013ECD0017
:1001C0004D08AB001630BD000330BE0090315F20FB
:1001D000803122002903031DEE28EF28E928670358
:1001E000031DF328F4280B2A2608031DF828F928F4
:1001F00021290030DC000030DB000030DA008030E4
:10020000D90020008E1A05290629E329173022007B
:100210002F0203180C290D2912290130CD004D0899
:10022000AF071329AF0102302200CE004530CD00C8
:10023000A930890B1929CD0B1929CE0B19290032A8
:10024000E3292603031D2529262941290030DC0046
:100250000030DB000030DA008330D90020008E1A35
:1002600032293329E3293B3022002E020318392991
:100270003A293F290130CD004D08AE071329AE01C0
:10028000132902302606031D46294729622900301A
:10029000DC000030DB000030DA008630D9002000BE
:1002A0008E1A53295429E3293B3022002D020318CA
:1002B0005A295B2960290130CD004D08AD0713296B
:1002C000AD01132905302606031D672968298829F1
:1002D0000030DC000030DB000030DA00C030D90034
:1002E00020008E1A74297529E329323022006C020D
:1002F00003187B297C2986290130CD004D08EC07A5
:100300006C08CD004D082100EF001329EC01802975
:1003100006302606031D8D298E29AE290030DC000B
:100320000030DB000030DA00CB30D90020008E1A1C
:100330009A299B29E329033022006B020318A12983
:10034000A229AC290130CD004D08EB076B08CD0088
:100350004D082100EE001329EB01A62907302606DF
:10036000031DB329B429E3290030DC000030DB0091
:100370000030DA008F30D90020008E1AC029C12940
:10038000E329220028030319C629C729CC292703FA
:10039000031DCB29CC29DE29A801A7016130CD009E
:1003A0004D08E3002030CD004D08E6002030CD00A0
:1003B0004D08E5009031872080311329A801A80A53
:1003C000A701A70A132920000D1AE729E829132BF2
:1003D00020302200CD004D08E6002030CD004D0831
:1003E000E5002030CD004D08E4002030CD004D0860
:1003F0002300DD002200E701A90102302200CE0027
:100400004530CD00A930890B032ACD0B032ACE0B32
:10041000032A0032E9282608031D0F2A102A192A68
:100420000030DC000030DB000030DA008030D90022
:10043000BF2A2603031D1D2A1E2A272A0030DC009E
:100440000030DB000030DA008330D900BF2A0230F0
:100450002606031D2C2A2D2A362A0030DC00003007
:10046000DB000030DA008630D900BF2A03302606D0
:10047000031D3B2A3C2A542A0030DC000030DB00FC
:100480000030DA008930D9004D30CD004D08E4004D
:100490006908CD004D082100EF0022006F08CD0053
:1004A0004D082100EE00BF2A04302606031D592AFC
:1004B0005A2A742A0030DC000030DB000030DA00F9
:1004C0008A30D9006D30CD004D082300DD002200B8
:1004D0002A08CD004D082100EF0022002C08CD0095
:1004E0004D082100EE00BF2A05302606031D792A9B
:1004F0007A2A922A0030DC000030DB000030DA007B
:100500008B30D9005430CD004D08E6006C08CD008A
:100510004D082100EF0022006B08CD004D0821009E
:10052000EE00BF2A06302606031D972A982AB02A15
:100530000030DC000030DB000030DA008C30D90005
:100540004C30CD004D08E5006C08CD004D08210071
:10055000EF0022006B08CD004D082100EE00BF2AFD
:1005600007302606031DB52AB62ABF2A0030DC0054
:100570000030DB000030DA008F30D900BF2A2000C5
:100580000D1AC32AC42AF12A20302200CD004D08BA
:10059000E6002030CD004D08E5002030CD004D08AC
:1005A000E4002030CD004D082300DD00073022009C
:1005B00026020318DC2ADD2AEF2A0130CD004D087F
:1005C000A60702302200CE004530CD00A930890BAD
:1005D000E72ACD0BE72ACE0BE72A0032F12AA60143
:1005E000A90120008E1AF52AF62A132B03302200C7
:1005F00026060319FC2AFD2A132B043026060319AC
:10060000022B032B132BE701E70A02302200CE0056
:100610004530CD00A930890B0B2BCD0B0B2BCE0B0E
:100620000B2B0032E928E92880311828003091315D
:100630005221833171082100ED007008EC00220086
:100640002908031D242B252B522B3B302D02031888
:100650002A2B2B2B322B01302000EC006C082200BF
:10066000AD07522B3B302E020318372B382B402B73
:10067000AD0101302000EC006C082200AE07522BC7
:1006800018302F020318452B462B4F2BAD01AE011E
:1006900001302000EC006C082200AF07522BAD01A6
:1006A000AE01AF01023021006D02FE3003196C0271
:1006B000031C5B2B5C2B632B03302000EC006C08CD
:1006C0002100EB00922B02306D02FD3003196C0209
:1006D00003186B2B6C2B7C2B01306D02FF30031940
:1006E0006C02031C742B752B7C2B02302000EC0059
:1006F0006C082100EB00922B01306D02FE300319D3
:100700006C020318842B852B912B01306D02003075
:1007100003196C02031C8D2B8E2B912BEB01EB0A22
:10072000922BEB018631D22683312000EC006C083D
:100730002100EA0022002908031D9F2BA02BAD2BCE
:1007400021006A082000EC006C082100EF006B0813
:100750002000EC006C082100EE0097315E27833109
:1007600022006D083706031DB62BB72B742C210011
:100770006F08220069020318BE2BBF2BD32B533006
:10078000F0007030F1006A082000EC006C08F20004
:1007900092313E22833121006F082000EC006C086A
:1007A0002200E900EE2B2A0821006F020318D92B42
:1007B000DA2BEE2B5430F0007030F10022006A0882
:1007C0002000EC006C08F20092313E2283312100BF
:1007D0006F082000EC006C082200AA0021006E08BF
:1007E00022006F020318F52BF62B0A2C5530F0006F
:1007F0007030F1006E082000EC006C08F2009231BD
:100800003E22833121006E082000EC006C0822009B
:10081000EF00252C2C0821006E020318102C112C3F
:10082000252C5630F0007030F10022006E082000B8
:10083000EC006C08F20092313E22833121006E08F8
:100840002000EC006C082200AC0021006F082200A0
:100850006C02031C2C2C2D2C322C2803031D312C54
:10086000322C3F2CAB012E309131D6218331220026
:10087000E80154302000EC006C082200E6006B0810
:1008800021006E02031C452C462C4C2C2200270311
:10089000031D4B2C4C2C592C2200AB01E80140309D
:1008A0009131D62183314C302000EC006C082200BD
:1008B000E50021006A0822006A06031D602C612CF5
:1008C000692C21006B0822006E060319682C692C24
:1008D000742C21006B082000EC006C08F40021004F
:1008E0006A0895317925833122006D083706031D8A
:1008F0007A2C7B2C7E2CED01ED0A842C013020001B
:10090000EC006C082200ED072B083606031D892C2D
:100910008A2C942C90317220833101302000EC001D
:100920006C082200AB07BA2C36082B020318992C4E
:100930009A2CBA2C6808031D9E2C9F2CB02C413099
:100940002000EC006C082200E3000A30F0000030C8
:10095000F1009131782183312200E801E80A8D2CE1
:100960000330F0000030F100913178218331220012
:10097000E8018D2C20008C1BBE2CBF2CC12C96179F
:10098000C22C9613413022006306031DC82CC92CCB
:10099000E52C20000D1ACD2CCE2CFF2C6130EC0064
:1009A0006C082200E30020302000EC006C082200DC
:1009B000E60020302000EC006C082200E500A801D1
:1009C000A701903179208331FF2C2908031DE92CE0
:1009D000EA2CFF2C20000D1AEE2CEF2CFF2C22000D
:1009E000A901A90A02302000ED004530EC00A93031
:1009F000890BF82CEC0BF82CED0BF82C00320800CE
:100A00002000E3004E0886008701403FD000413FB0
:100A1000D10050088400510885001200253A031DBA
:100A2000122D132DAE2E4E0886008701013081074E
:100A300041310318810A2200A201A3012000EE0126
:100A4000EF01FF302200A400FF30A5002000DE01EE
:100A5000DF01652D6E144E08860087010130810785
:100A600041310318810A652DEE142B2D6E152B2DA7
:100A7000EE152B2D6E162B2D0130DE000030DF0021
:100A8000652D4E0886008701403FD000413FD100D0
:100A900050088400510885000008D200D301530893
:100AA000003A0319542D3C2D5208203A0319382DD1
:100AB000033A03193A2D083A0319362D063A031959
:100AC0002A2D1D3A0319342D3C2D5E085F040319AD
:100AD0006A2D6B2D412D6E1C6E2D6F2D732DFD30EB
:100AE000EE05FF30EF054E0886008701403FD0003D
:100AF000413FD100500884005108850012002A3A75
:100B0000031D832D842DA62D4E08860087010130FC
:100B1000810741310318810A4F08860087010108C7
:100B20008400850102308107003F2200A200013FBE
:100B3000A300A31F9C2D9D2DE82D20006E142200E4
:100B4000A209A309A20A0319A30AE82D4E088600E8
:100B50008701403FF600413FF70088315F20853133
:100B600077082200A3007608A200BE2D4E0886005A
:100B700087010130810741310318810A20004E08A6
:100B800086008701403FD000413FD10050088400DB
:100B9000510885000008D03ED200FF300318003015
:100BA000D300003053020A3003195202031CD92D1E
:100BB000DB2D0130DC2D0030D400D5015408E000DD
:100BC0005508E10060086104031DE72DE82DB62DEE
:100BD00020004E0886008701403FD000413FD100F1
:100BE00050088400510885001200633A031DF92D56
:100BF000FA2D1C2E4E0886008701013081074131F5
:100C00000318810A4F0886008701010884008501C6
:100C1000023081070008D0005008E2006208D000CE
:100C20005008F80063089531DC25853179082000EB
:100C3000CF007808CE00D12E4E0886008701403FB5
:100C4000D000413FD10050088400510885001200B7
:100C5000643A03192C2E2D2E3E2E4E088600870155
:100C6000403FD000413FD10050088400510885002A
:100C70001200693A031D3D2E3E2E792E4E08860045
:100C800087010130810741310318810A4F0886002E
:100C9000870101088400850102308107003FD000F0
:100CA000013FD1005008D6005108D700890D893B7B
:100CB0008909D800D900DA00DB00DC00DD00560825
:100CC000B0005708B1005808B2005908B3005A08DC
:100CD000B4005B08B5005C08B6005D08B7006308A7
:100CE0008E319426853120003108CF003008CE00A7
:100CF000D12E4E0886008701403FD000413FD100F1
:100D000050088400510885001200253A031D892EE1
:100D10008A2EA32E4E0886008701013081074131BB
:100D20000318810A2530F0000030F1006308D0007C
:100D30005008F20094313224853101302000CE0079
:100D40000030CF00D12E4E08860087010130810788
:100D500041310318810ACE01CF01D12E4E08860001
:100D60008701403FD000413FD10050088400510826
:100D700085000008D200D3015208F0005308F100AA
:100D80006308D4005408F2009431322485312000E5
:100D90004E08860087010130810741310318810A1E
:100DA0009D2E080023000F0C890C0139F200110858
:100DB0001F397204031DDD2EDE2ED22E11141118E0
:100DC000E22EE32EDF2E0F0C890C0139F200110800
:100DD0001F397204031DED2EEE2EE32E9A3093314F
:100DE000E723863123000F0C890C0139F20011082A
:100DF0001F397204031DFD2EFE2EF22E0130933199
:100E0000E723863123000F0C890C0139F200110809
:100E10001F397204031D0D2F0E2F022F91149118EC
:100E2000122F132F0F2F0F0C890C0139F20011080C
:100E30001F397204031D1D2F1E2F132F9B3093315A
:100E4000E723863123000F0C890C0139F2001108C9
:100E50001F397204031D2D2F2E2F222F9131F021C7
:100E60008631F2007208F30023000F0C890C01395F
:100E7000F20011081F397204031D3F2F402F342F39
:100E800091161116111A452F462F422F0F0C890C5F
:100E90000139F20011081F397204031D502F512F20
:100EA000462F11151119552F562F522F731F592FD9
:100EB0005A2FD22E0F0C890C0139F20011081F395C
:100EC0007204031D642F652F5A2F11141118692FF6
:100ED0006A2F662F0F0C890C0139F20011081F3997
:100EE0007204031D742F752F6A2F9A309331E723F4
:100EF000863123000F0C890C0139F20011081F39CB
:100F00007204031D842F852F792F00309331E7233E
:100F1000863123000F0C890C0139F20011081F39AA
:100F20007204031D942F952F892F91149118992FD6
:100F30009A2F962F0F0C890C0139F20011081F39D6
:100F40007204031DA42FA52F9A2F9B309331E72302
:100F5000863123000F0C890C0139F20011081F396A
:100F60007204031DB42FB52FA92F9131F0218631C2
:100F7000F2007208F30023000F0C890C0139F20013
:100F800011081F397204031DC62FC72FBB2F9116DE
:100F90001116111ACC2FCD2FC92F0F0C890C013926
:100FA000F20011081F397204031DD72FD82FCD2F3F
:100FB00011151119DC2FDD2FD92F7308080024001B
:100FC0008F0190010430910086308D00E8308C0054
:100FD0002E00101024000D082200E20024000C084E
:100FE0002200E1002E001A1403302200BD00003060
:100FF000BE0090315F208731013024008E00080050
:1010020090315420883108002200BE003E0823009F
:101012008C00901F0D280E280F285E280F30100517
:101022002200BD0008303D0603191828192832286D
:101032000F30230010052200BD000B303D060319BE
:10104200232824283228230010162E000F1C2A28B9
:101052002B28262823000F192F2830285E280F0856
:101062005E280F30230010052200BD0008303D0627
:1010720003193C283D2848280F3023001005220080
:10108200BD000B303D06031D472848285E2823007B
:101092000F184C284D28482823000F0C890C0139C1
:1010A2002200BD00230011081F3922003D04031D48
:1010B2005B285C284D282300110808002000A701A6
:1010C200A801A001A10169280130F6070030F73D0F
:1010D200A601A60A76088400770885001200203A45
:1010E2000319742875288A287608840077088500F1
:1010F2000008F73EF800FF3003180030F900003016
:101102007902053003197802031C882889288A2865
:10111200A6012608F800F9017808A2007908A300C0
:1011220022082304031D962897286528A128013048
:10113200A0000030A1000130F6070030F73DD528AD
:1011420076088400770885000008F800F90179081C
:10115200003A0319AD28D52878082B3A03199C28A0
:10116200063A03199828D52876088400770885005E
:101172000008F8002808F1002708F0000A30F20001
:101182000030F30092315C2288317108FA0078084D
:101192007002F900031CFA037908303E2000A70010
:1011A20000307A3DA8009C287608840077088500E4
:1011B2000008D03EF800FF3003180030F90000307C
:1011C20079020A3003197802031CE828EA28013060
:1011D200EB280030FA00FB017A08A4007B08A50086
:1011E20024082504031DF628F728B5282008210421
:1011F200031DFC28FD2809292709F8002809F90000
:10120200F80A0319F90A7808F6007908F7000D2997
:101212002808F7002708F6000800F5007508F039DD
:10122200F3007308F6007508F3000330F335FF3E50
:10123200031D17297335F039F4007408F7002300F1
:101242000F0C890C0139F30011081F397304031DB7
:101252002B292C29202911141118302931292D2943
:101262000F0C890C0139F30011081F397304031D97
:101272003B293C2931294E309331E7238931230020
:101282000F0C890C0139F30011081F397304031D77
:101292004B294C2940297608720408389331E723F8
:1012A200893123000F0C890C0139F30011081F3911
:1012B2007304031D5D295E295229760872040C38D5
:1012C2009331E723893123000F0C890C0139F30094
:1012D20011081F397304031D6F2970296429000046
:1012E2007608720408389331E723893123000F0C02
:1012F200890C0139F30011081F397304031D822977
:10130200832977297708720408389331E7238931D2
:1013120023000F0C890C0139F30011081F397304E3
:10132200031D942995298929770872040C38933171
:10133200E723893123000F0C890C0139F3001108CE
:101342001F397304031DA629A7299B2900007708CA
:10135200720408389331E723893123000F0C890C7A
:101362000139F30011081F397304031DB929BA2981
:10137200AE2911151119BE29BF29BB291030890BBD
:10138200C029003208002200CC009930BD00703024
:10139200BE009131112189312200CB004C08860018
:1013A200013087004B0881009A30BD007030BE00CA
:1013B2009131112189312200CB003F088600013092
:1013C20087004B0881009B30BD007030BE00913118
:1013D200112189312200CB004008860001308700AC
:1013E2004B0881009C30BD007030BE00913111214C
:1013F20089312200CB0041088600013087004B086A
:1014020081009D30BD007030BE00913111218931C3
:101412002200CB0042088600013087004B08810081
:101422009E30BD007030BE00913111218931220001
:10143200CB0043088600013087004B0881009F30B3
:10144200BD007030BE009131112189312200CB00E4
:1014520044088600013087004B088100A030BD009F
:101462007030BE009131112189312200CB00450834
:101472008600013087004B088100A130BD0070302A
:10148200BE009131112189312200CB00460886002D
:10149200013087004B088100A230BD007030BE00D1
:1014A2009131112189312200CB0047088600013099
:1014B20087004B088100A330BD007030BE0091311F
:1014C200112189312200CB004808860001308700B3
:1014D2004B088100A430BD007030BE009131112153
:1014E20089312200CB0049088600013087004B0871
:1014F2008100A530BD007030BE00913111218931CB
:101502002200CB004A088600013087004B08810088
:1015120008002200C2004208F039C0004008C3009F
:101522004208C0000330C035FF3E031D942A4035F7
:10153200F039C1004108C40023000F0C890C0139A5
:101542002200C000230011081F3922004004031D9D
:10155200AB2AAC2A9D2A230011141118B12AB22AEF
:10156200AE2A23000F0C890C01392200C00023008F
:1015720011081F3922004004031DC02AC12AB22AC1
:101582004E30883105208A3123000F0C890C013935
:101592002200C000230011081F3922004004031D4D
:1015A200D32AD42AC52A43083F04083888310520A3
:1015B2008A3123000F0C890C01392200C00023005C
:1015C20011081F3922004004031DE82AE92ADA2AF9
:1015D20043083F040C38883105208A3123000F0C60
:1015E200890C01392200C000230011081F39220092
:1015F2004004031DFD2AFE2AEF2A000022004308B0
:101602003F040838883105208A3123000F0C890CE9
:1016120001392200C000230011081F3922004004B2
:10162200031D142B152B062B44083F040838883160
:1016320005208A3123000F0C890C01392200C000D9
:10164200230011081F3922004004031D292B2A2BD5
:101652001B2B44083F040C38883105208A312300B3
:101662000F0C890C01392200C000230011081F3918
:1016720022004004031D3E2B3F2B302B0000220092
:1016820044083F040838883105208A3123000F0CB2
:10169200890C01392200C000230011081F392200E1
:1016A2004004031D552B562B472B230011151119EE
:1016B2005B2B5C2B582B1030890B5D2B0032080002
:1016C200F2012830860000308700473FF000F01F0B
:1016D2006B2B6C2B8D2B2000A809A909AA09AB0939
:1016E200AC09AD09AE09AF09A80A031D8B2BA90AE3
:1016F200031D8B2BAA0A031D8B2BAB0A031D8B2BFD
:10170200AC0A031D8B2BAD0A031D8B2BAE0A031DE6
:101712008B2BAF0AF201F20A2030860000308700DC
:10172200473FF000F01F962B972BB62B2000A00905
:10173200A109A209A309A409A509A609A709A00A42
:10174200031DB62BA10A031DB62BA20A031DB62B3D
:10175200A30A031DB62BA40A031DB62BA50A031D5B
:10176200B62BA60A031DB62BA70A200020082104C7
:101772002204230424042504260427040319C22B6B
:10178200C32B162CF101F10AD22BA035A10DA20D0B
:10179200A30DA40DA50DA60DA70D0130F000700834
:1017A200F107A71FD52BD62BC62B27082F02031D07
:1017B200F42B26082E02031DF42B25082D02031DEF
:1017C200F42B24082C02031DF42B23082B02031DE7
:1017D200F42B22082A02031DF42B21082902031DDF
:1017E200F42B20082802031CF72BF82B082C2008C6
:1017F200A8022108A93B2208AA3B2308AB3B2408E4
:10180200AC3B2508AD3B2608AE3B2708AF3BA736CD
:10181200A60CA50CA40CA30CA20CA10CA00C0130CC
:10182200F102031D152C162CD62B720803191A2C43
:101832001B2C392CA809A909AA09AB09AC09AD09C5
:10184200AE09AF09A80A031D392CA90A031D392CB8
:10185200AA0A031D392CAB0A031D392CAC0A031D3D
:10186200392CAD0A031D392CAE0A031D392CAF0ADF
:1018720020002808A0002908A1002A08A2002B089D
:10188200A3002C08A4002D08A5002E08A6002F08EE
:10189200A7000800F2012030860000308700473F91
:1018A200F000F01F552C562C772C2000A009A1091E
:1018B200A209A309A409A509A609A709A00A031D4B
:1018C200752CA10A031D752CA20A031D752CA30AEF
:1018D200031D752CA40A031D752CA50A031D752C66
:1018E200A60A031D752CA70AF201F20A2830860007
:1018F20000308700473FF000F01F802C812CA42C81
:101902002000A809A909AA09AB09AC09AD09AE09C9
:10191200AF09A80A031DA02CA90A031DA02CAA0A1C
:10192200031DA02CAB0A031DA02CAC0A031DA02C86
:10193200AD0A031DA02CAE0A031DA02CAF0A013074
:10194200F0007008F206733086000030870008301D
:10195200F00000301E00F00BAB2C20002008210408
:101962002204230424042504260427040319BA2C80
:10197200BB2C172DF101F10ACA2CA035A10DA20D25
:10198200A30DA40DA50DA60DA70D0130F000700842
:10199200F107A71FCD2CCE2CBE2CF335F40DF50D7F
:1019A200F60DF70DF80DF90DFA0D27082F02031D9C
:1019B200F42C26082E02031DF42C25082D02031DEB
:1019C200F42C24082C02031DF42C23082B02031DE3
:1019D200F42C22082A02031DF42C21082902031DDB
:1019E200F42C20082802031CF72CF82C092D2008BF
:1019F200A8022108A93B2208AA3B2308AB3B2408E2
:101A0200AC3B2508AD3B2608AE3B2708AF3B731421
:101A1200A736A60CA50CA40CA30CA20CA10CA00C1E
:101A22000130F102031D162D172DCE2C7208031959
:101A32001B2D1C2D3A2DF309F409F509F609F709B6
:101A4200F809F909FA09F30A031D3A2DF40A031DEC
:101A52003A2DF50A031D3A2DF60A031D3A2DF70A0F
:101A6200031D3A2DF80A031D3A2DF90A031D3A2DDA
:101A7200FA0A73082000A0007408A1007508A200E9
:101A82007608A3007708A4007808A5007908A600C4
:101A92007A08A7000800F60023000F0C890C013910
:101AA200F20011081F397204031D582D592D4D2DB6
:101AB200111411185D2D5E2D5A2D0F0C890C013950
:101AC200F20011081F397204031D682D692D5E2D65
:101AD2004E309331E7238D3123000F0C890C0139ED
:101AE200F20011081F397204031D782D792D6D2D16
:101AF2007608FA389331E7238D3123000F0C890CD5
:101B02000139F20011081F397204031D892D8A2D33
:101B12007E2D7608FE389331E7238D3123000F0C9A
:101B2200890C0139F20011081F397204031D9A2D24
:101B32009B2D8F2D0000230091149118A12DA22D11
:101B42009E2D0F0C890C0139F20011081F39720405
:101B5200031DAC2DAD2DA22D4F309331E7238D31D6
:101B620023000F0C890C0139F20011081F3972048D
:101B7200031DBC2DBD2DB12D9131F0218D31F2000F
:101B82007208F40023000F0C890C0139F2001108CD
:101B92001F397204031DCE2DCF2DC32D91161116A0
:101BA200111AD42DD52DD12D91149118D92DDA2DAC
:101BB200D62D0F0C890C0139F20011081F3972045D
:101BC200031DE42DE52DDA2D4E309331E7238D31BF
:101BD20023000F0C890C0139F20011081F3972041D
:101BE200031DF42DF52DE92D7608FA389331E723FC
:101BF2008D3123000F0C890C0139F20011081F39B5
:101C02007204031D052E062EFA2D7608FE38933136
:101C1200E7238D3123000F0C890C0139F2001108E2
:101C22001F397204031D162E172E0B2E00002300DF
:101C3200911491181D2E1E2E1A2E0F0C890C01398B
:101C4200F20011081F397204031D282E292E1E2EA0
:101C52004F309331E7238D3123000F0C890C01396A
:101C6200F20011081F397204031D382E392E2D2E51
:101C72009131F0218D31F2007208F50023000F0C32
:101C8200890C0139F20011081F397204031D4A2E12
:101C92004B2E3F2E91161116111A502E512E4D2EEB
:101CA20091149118552E562E522E0F0C890C013973
:101CB200F20011081F397204031D602E612E562E88
:101CC2004E309331E7238D3123000F0C890C0139FB
:101CD200F20011081F397204031D702E712E652E39
:101CE2007608FA389331E7238D3123000F0C890CE3
:101CF2000139F20011081F397204031D812E822E50
:101D0200762E11151119862E872E832E7508F20054
:101D12000430F236890B8A2E0F307205F3007408F4
:101D2200F039730408002000BD003008C4003108F7
:101D3200C5003208C6003308C7003408C800350899
:101D4200C9003608CA003708CB004430860000308C
:101D52008700473FB800B81BAF2EB12E0130B22E1C
:101D620000302000B900BA013908C2003A08C300A5
:101D7200420843040319BE2EBF2EDD2EC409C50935
:101D8200C609C709C809C909CA09CB09C40A031D7A
:101D9200DD2EC50A031DDD2EC60A031DDD2EC70A70
:101DA200031DDD2EC80A031DDD2EC90A031DDD2E0B
:101DB200CA0A031DDD2ECB0A2200A51BE12EE22E4C
:101DC200E72EFD302000EE05FF30EF05220025084A
:101DD200803A2000B80080303802031DF32E013013
:101DE200220024020318F62EF72EFD2E01302000C9
:101DF200BE000030BF00052F220025082000BF00D2
:101E0200220024082000BE00220023082000C10076
:101E1200220022082000C00042084304031D122FA2
:101E2200132F172F6E1D162F172F1B2FFF30C007D2
:101E3200FF30C13D1F30CC000030CD002300DC015B
:101E42008B2FFF302000CC07FF30CD3D0A30A000A1
:101E5200A101A201A301A401A501A601A7014408B1
:101E6200A8004508A9004608AA004708AB00480890
:101E7200AC004908AD004A08AE004B08AF008B31F8
:101E820061238E3120002108F4002008F3009231F2
:101E92000A228E317308303E2000B8004C08BD3E45
:101EA20086000130870038088100FF30BE07FF300E
:101EB200BF3DFF30C007FF30C13D0A30A000A10185
:101EC200A201A301A401A501A601A7014408A8003B
:101ED2004508A9004608AA004708AB004808AC001C
:101EE2004908AD004A08AE004B08AF008C314B24C4
:101EF2008E3120002008C4002108C5002208C60037
:101F02002308C7002408C8002508C9002608CA00FB
:101F12002708CB0020004D08803AB80080303802F4
:101F2200031D952F01304C02031C982F992FC62FA9
:101F320020004408450446044704480449044A046E
:101F42004B04031DA52FA62F222F3F08803AB8006D
:101F520080303802031DAF2F01303E020318B22F2A
:101F6200B32F222F20004108803AB8008030380277
:101F7200031DBD2F01304002031CC02FC12FC62FED
:101F82002000EE18C52FC62F222F2000420843043E
:101F9200031DCC2FCD2FD12F6E1DD02FD12FED2F82
:101FA200FF30CC07FF30CD3D42084304031DDA2F3A
:101FB200DB2FE02F2B30BB000030BC00E42F2D3094
:101FC200BB000030BC003B08B8004C08BD3E860098
:101FD20001308700380881004C08BD3EB80038083F
:101FE200A4004108A6004008A5003D08953123251C
:0E1FF2008E3120002508B1002408B000080040
:10209C0025008E17080025008E13080025008E13CE
:1020AC00080090314E209031080090315120903131
:1020BC00080022003E08E0003D08DF000800640034
:1020CC0080010131890B66280034F800F201780890
:1020DC0089310E219031080090315B209031903184
:1020EC00F3209031080020009612161290317220C5
:1020FC0090310800883101209031913102219031CA
:10210C0008002000961216129031802090310800A1
:10211C00F800F201F20A780889310E21903108009A
:10212C002F0096019701980199019A019B010800D3
:10213C0023008F0108309000910103308D00901224
:10214C000800623031008D008F0191010230930044
:10215C009201080022005F0860040319B628B72812
:10216C00BC2860088A005F080A00903108008030A3
:10217C0023008F0008309000910103308D009016E1
:10218C002000931513160800803027008E000630AF
:10219C008D0040308C0024001F08F33904389F0058
:1021AC0008002E00101022006208F1006108F000F7
:1021BC009131412190319031B020903108000130A3
:1021CC00250090008F0191010C308D008C012E00A8
:1021DC009010803025008E00080055303D008F0097
:1021EC00AA308F000F103E00960155303D008F0035
:1021FC00AA308F000F14080055303D008F00AA3014
:10220C008F000F103E00960155303D008F00AA3014
:10221C008F000F14080022003E0830009B002200A3
:10222C003D0830009A001E171E14000000003000FC
:10223C001C08080055303D008F00AA308F000F108D
:10224C000D303E00960055303D008F00AA308F00B7
:10225C000F14080000308D314C2591318039031951
:10226C00382939293E290130F7000030F80040297F
:10227C00F701F801080024000E1D452946294D29B7
:10228C000E1071088D0070088C000E145129710805
:10229C008D0070088C000800F200720821009E006E
:1022AC009317131313140000210013185E295F29D0
:1022BC005A290D08F1000C08F0000800FB006A29EF
:1022CC007A0890318E2091317B0886008701FB0AB9
:1022DC000108F9007908FA007A08031D7629772994
:1022EC00662908007108F3007008F200F336F20C4E
:1022FC00F336F20C720827008D0070080339F200D7
:10230C000530F235FF3E031D872972358C0008001D
:10231C0022008E018F0190019101920193018D0198
:10232C0021009E019B019C0194019501960197014E
:10233C009A0199019801843093009D01080070085E
:10234C00D03EF200FF30713DF300003073020A30D2
:10235C0003197202031CB329B5290130B6290030C8
:10236C00F400F5017408F0007508F10008009031D4
:10237C009620913190319E2091319331A22391314D
:10238C009031A72091319031CA20913191318E2119
:10239C0091319031E52091318731DF27913108005F
:1023AC00F4002E307406031DDC29DD29E029200001
:1023BC009616E22920001616903157209131913152
:1023CC00202191310330F0000030F100913178215F
:1023DC00913108000F3023001005F0000830700612
:1023EC000319F929FA29032A0F301005F0000B30D4
:1023FC007006031D022A032A042A91150F1C072AB2
:10240C00082A042A0C0808007408803AF500803069
:10241C007502031D132A013073020318162A172A9A
:10242C00232A7309F5007409F600F50A0319F60A54
:10243C007508F3007608F400232A0800F4007408E9
:10244C00F2007208F3002E2A0130F2007208F40731
:10245C0074088600013087000108031D362A372ACC
:10246C002A2A73087402F000F101F01BF103080032
:10247C0000308B1B0130F300710830009B0070089A
:10248C009A0072089C001E171E158B1355309F0066
:10249C00AA309F009E149E18542A552A512A1E11A8
:1024AC00730C031C8B1303188B170800F401F50134
:1024BC00701C612A622A662A7208F4077308F53DBB
:1024CC000130F235F30D890B672A0130F136F00C2F
:1024DC00890B6C2A70087104031D752A762A5E2AF2
:1024EC007508F1007408F0000800F401F40A2030BB
:1024FC00700671040319832A842A942A7008F73E03
:10250C00F200FF30713DF300003073020530031907
:10251C007202031C922A932A942AF4017408F20082
:10252C00F3017208F0007308F100080000308B1BF7
:10253C0001302200C0003E0830009B0022003D0804
:10254C0030009A0022003F0830009C001E171E1518
:10255C008B1355309F00AA309F009E149E18B72AEB
:10256C00B82AB42A1E112200400C031C8B1303182A
:10257C008B1708002100B200A230FD007D08B300CB
:10258C003208FD007D08B400B501B601B701B801F1
:10259C0021082000E500210020082000E400B330D1
:1025AC00FD007D08E600B43093313A2392312100CE
:1025BC0035083207FD007D0886008701810108007F
:1025CC002000A300A101A201FE2A2008F900FA01B3
:1025DC007908F0007A08F1007808FB007B08F2001B
:1025EC0094313224923101302000A1070030A23DF9
:1025FC0021082307F90079088600013087000108BB
:10260C00FA007A08A0002008031D0D2B0E2BEB2AD4
:10261C00080053302200BD007030BE00FF30C100F6
:10262C004108BF0092319C22933154302200BD00EE
:10263C007030BE00BF0192319C2293315730220082
:10264C00BD007030BE000330C1004108BF009231A4
:10265C009C22933159302200BD007030BE00BF0166
:10266C0092319C22933108002000E9006508EB00B0
:10267C006408EA002200A001A101582B6A30E7008F
:10268C006708CE006608E8006808CF006908853145
:10269C000025933120004E082200A00720004F088F
:1026AC002200A13D20006A0884006B0885001200FE
:1026BC00031D612B622B442B220021082000E50016
:1026CC00220020082000E40008002200C100872B13
:1026DC000030C2007030C3009D2B0530C20070303A
:1026EC00C3009D2B0A30C2007030C3009D2B0F30ED
:1026FC00C2007030C3009D2BFF30C200F030C3000D
:10270C009D2B4108BF00C0014008003A03198F2BD4
:10271C00822B3F08643A03196E2B013A0319732B71
:10272C00033A0319782B013A03197D2B822B4308AA
:10273C00BE004208BD00080020009A0199019601D4
:10274C0097019801073095004F309100FF309200AF
:10275C00FF309300FF309400FF303E00D900C730AB
:10276C00CE00EF30C3000730E400FF30B800DA01D0
:10277C00E501C401B901CF01E601BA01C501D001DF
:10278C00DB01FF30BB00FF30C600FF30D100FF3053
:10279C00DC000730E700FF30BC00FF30C700FF3023
:1027AC00D200FF30DD000730E80013303D00C500DB
:1027BC0014303E00A3001530A40014303D00C600B8
:1027CC000800F100710823008C00901FEE2BEF2BFA
:1027DC00F02B312C0F301005F00008307006031967
:1027EC00F82BF92B0F2C0F301005F0000B30700666
:1027FC000319012C022C0F2C10162E000F1C072C69
:10280C00082C032C23000F190C2C0D2C312C0F0829
:10281C00312C0F301005F000083070060319172CFE
:10282C00182C212C0F301005F0000B307006031DF6
:10283C00202C212C312C0F18242C252C212C0F0C66
:10284C00890C0139F00011081F397004031D2F2C5D
:10285C00302C252C1108080072080319362C372C43
:10286C003C2C7208031D3B2C3C2C412C70088031F5
:10287C0002209431802C7208033E860087011600DA
:10288C00010403194A2C4B2C682C7208033E860059
:10289C008701403FF300413FF400720A8600870134
:1028AC00403FF500413FF6007608803AF700740887
:1028BC00803A7702031D642C730875020318672C89
:1028CC00682C802C7008F300720886008701720A4D
:1028DC008400850100080107F40074088600870154
:1028EC0073088100720A860087010130810741312B
:1028FC000318810A08002200CA00480893316B2390
:10290C00943122003E08CC003D08CB004C08BE00A0
:10291C004B08BD004A08C9004908BF0092319C22EF
:10292C00943122004B08013EBD0000304C3DBE00EE
:10293C004408C9004908BF0092319C2294312200FE
:10294C004B08023EBD0000304C3DBE004508C9009E
:10295C004908BF0092319C22943122004B08033E5F
:10296C00BD0000304C3DBE004608C9004908BF0000
:10297C0092319C22943122004B08043EBD00003061
:10298C004C3DBE004708C9004908BF0092319C224B
:10299C00943108002200C00023000F0C890C01396F
:1029AC002200BF00230011081F3922003F04031D21
:1029BC00E02CE12CD22C230011141118E62CE72C5E
:1029CC00E32C23000F0C890C01392200BF002300DB
:1029DC0011081F3922003F04031DF52CF62CE72C9F
:1029EC004E3088310520943123000F0C890C0139AD
:1029FC002200BF00230011081F3922003F04031DD1
:102A0C00082D092DFA2C400888310520943123001B
:102A1C000F0C890C01392200BF00230011081F394B
:102A2C0022003F04031D1B2D1C2D0D2D2300111501
:102A3C001119212D222D1E2D08002000AB006E1C1B
:102A4C00282D292D312D2B08FC007C08F80024089A
:102A5C009231E62295312000A61B352D362D3B2DCB
:102A6C002608AA002508A9003D2DA901AA01A70145
:102A7C00A801512D2030F0000030F10020002B086F
:102A8C00FC007C08F2009431322495310130200096
:102A9C00A7070030A83D2808803AFC002A08803A95
:102AAC007C02031D5B2D29082702031C5E2D5F2D64
:102ABC00402D20006E18632D642D6C2D2B08FC000E
:102ACC007C08F80024089231E62295312000240875
:102ADC00923124229531200029087007A4002A087D
:102AEC00713DA5000800F60022005E08F1005D08AB
:102AFC00F0002F08F5007508F20092313E22953156
:102B0C0022005D08013EF00000305E3DF1002E0811
:102B1C00F5007508F20092313E22953122005D08D5
:102B2C00023EF00000305E3DF1002D08F500750806
:102B3C00F20092313E22953122005D08033EF000F6
:102B4C0000305E3DF1007608F5007508F200923118
:102B5C003E22953122005D08043EF00000305E3DBF
:102B6C00F1007408F5007508F20092313E2295319F
:102B7C007608F50075082200EA007408F50075085F
:102B8C00EE0014305D06703003195E06031DCF2D68
:102B9C00D02DD52D0030DD007030DE00DB2D5D0832
:102BAC00053EDD0000305E3DDE0008002000A40084
:102BBC00220022082304031DE42DE52DED2D23080E
:102BCC002000A300220022082000A200F62D2208DB
:102BDC00FF3E2000A200FF302200233D2000A30076
:102BEC006E1CF92DFA2D082E7808FA00FB017A08D4
:102BFC00F0007B08F1002408FC007C08F200943102
:102C0C00322495312000A31B0C2E0D2E0E2E102ECF
:102C1C00A201A301A001A101242E2030F00000305C
:102C2C00F10020002408FA007A08F20094313224D2
:102C3C00953101302000A0070030A13D2108803AD9
:102C4C00FA002308803A7A02031D2E2E2208200255
:102C5C00031C312E322E132E20006E18362E372EDA
:102C6C00452E7808FA00FB017A08F0007B08F10089
:102C7C002408FC007C08F2009431322495312000A9
:102C8C002008013EF8000030213DF90008004130D9
:102C9C002200C500EE30890B512EC50B512E0000C1
:102CAC0030309431D024963134309431D024963154
:102CBC00A630890B5F2E003230309431D0249631FF
:102CCC0007302200C5007D30890B6A2EC50B6A2E99
:102CDC0030309431D024963134309431D024963124
:102CEC00A630890B772E003230309431D0249631B7
:102CFC002130890B7F2E000030309431D024963156
:102D0C0034309431D0249631A630890B8B2E00327E
:102D1C0030309431D02496312130890B932E000021
:102D2C0020309431D024963124309431D0249631F3
:102D3C00A630890B9F2E003220309431D02496314E
:102D4C0007302200C5007D30890BAA2EC50BAA2E98
:102D5C002200BF0128308A318A2296312200BF011D
:102D6C0006308A318A2296312200BF010F308A3117
:102D7C008A2296312200BF0101308A318A22963193
:102D8C0003302200C5009730890BCA2EC50BCA2E02
:102D9C000032080099302200BD007030BE00AA300D
:102DAC00C1004108BF0092319C2296319A3022001A
:102DBC00BD007030BE000A30C1004108BF00923126
:102DCC009C2296319B302200BD007030BE00BF01AA
:102DDC0092319C2296319C302200BD007030BE0096
:102DEC00BF0192319C2296319D302200BD00703083
:102DFC00BE00BF0192319C2296319E302200BD0054
:102E0C007030BE000530C1004108BF0092319C22D9
:102E1C0096319F302200BD007030BE000330C100DF
:102E2C004108BF0092319C229631A0302200BD0097
:102E3C007030BE001930C1004108BF0092319C2295
:102E4C009631A1302200BD007030BE000230C100AE
:102E5C004108BF0092319C229631A2302200BD0065
:102E6C007030BE00BF0192319C229631A3302200FB
:102E7C00BD007030BE000C30C1004108BF00923163
:102E8C009C229631A4302200BD007030BE00BF01E0
:102E9C0092319C229631A5302200BD007030BE00CC
:102EAC00E330C1004108BF0092319C2296310800EA
:102EBC00803090316B2097319131302197317708E8
:102ECC007804031D6A2F6B2F622F20302100A00085
:102EDC009830A10022002F082100B900BA0139084E
:102EEC00A2003A08A30022002E082100BB00BC015E
:102EFC003B08A4003C08A50022002D082100BD00C1
:102F0C00BE013D08A6003E08A7002200640821006F
:102F1C00BF00C0013F08A8004008A90023005D08BD
:102F2C002100C100C2014108AA004208AB002200E6
:102F3C0066082100C300C4014308AC004408AD007E
:102F4C00220065082100C500C6014508AE004608F0
:102F5C00AF00220063082100C700C8014708B00079
:102F6C004808B100C9309231C0229731C930913133
:102F7C006421973191313021973177087804031D02
:102F8C00C82FC92FC02FC03090316B2097313C30E7
:102F9C002100A0009830A1006F08B900BA013908CF
:102FAC00A2003A08A3006E08BB00BC013B08A400B9
:102FBC003C08A500C9309231C022973191313021A3
:102FCC00973177087804031DEC2FED2FE42FC930CF
:102FDC009131642197319131302197317708780400
:102FEC00031DF92FFA2FF12F2200590890316B2075
:102FFC0097310800003400340034003400340034BD
:10300C000034003400340034003400340034003414
:10301C000034003400340034003400340034003404
:10302C0000340034003400340034003400340034F4
:10303C000034003425343034323464343A3425349A
:10304C003034323464343A342534303432346434E9
:10305C0020342534633425346334253463342534E7
:10306C006334203420342534633400342534303434
:10307C00323464342034433420342034203420342B
:10308C00203420342034203420342534303431346E
:08309C00643420346C3400346C
:020000040001F9
:0A000E00EC3FFF3F9F3FFF3FFF3F25
:00000001FF
