<<<<<<< Updated upstream
:04000000803118280B
:1000060008007E1480310B1F09280A2816282E00A6
:100016001A1C0E280F281628101C1228132816281A
:100026009231D92280317E10090080311A282000B1
:10003600EE01EF01E2308400003085000C30923191
:100046008F2280315530840001308500073092318F
:100056008F228031A0308400013085003D309231FE
:100066008F2280317E1020008031392893312B2356
:1000760080318B170B172100ED01EC01EB010330EA
:100086002200B0003008D4002100EA01043022002A
:10009600B00030082100EF002200D301D30AFF3060
:1000A600B00030082100EE00FF302200B00030081A
:1000B600D2002100E90100302200C9007030CA00D8
:1000C6002100E8012200D901D801D101D10A20304E
:1000D600B0003008D0006130B0003008CF00923157
:1000E600CC2280318831BA20803189313D2180315E
:1000F6009431A924803150302200B0003008A70086
:100106004530B1003108A8004030B2003208A900DD
:100116003530B3003308AA006530B4003408AB00AC
:1001260055309531D625803187302200A000053024
:10013600A1009231892280313D302200B000300882
:10014600A2003E30B1003108A3003F30B2003208B1
:10015600A4004030B3003308A5004130B400340891
:10016600A6004230B5003508A7004330B600360871
:10017600A8004430B7003708A9004530B800380851
:10018600AA004630B9003908AB004730BA003A0831
:10019600AC004830BB003B08AD003C308B3130230F
:1001A600803121006803031DD928DA289F28220000
:1001B6005103031DDF28E028A3295708031DE4285F
:1001C600E528072920008E1AE928EA288C29173005
:1001D60021006D020318F028F128F82801302200CA
:1001E600B00030082100ED07F928ED0102302200A9
:1001F600B1004530B000A930890BFF28B00BFF28AD
:10020600B10BFF2800328C295703031D0B290C293B
:10021600212920008E1A102911298C293B30210012
:100226006C020318172918291F2901302200B00073
:1002360030082100EC07F928EC01F92802305706AE
:10024600031D262927293C2920008E1A2B292C2913
:100256008C293B3021006B020318322933293A29B5
:1002660001302200B00030082100EB07F928EB012D
:10027600F92805305706031D412942295529200032
:100286008E1A462947298C29323022005B02031830
:100296004D294E2953290130B0003008DB07F928D3
:1002A600DB01F92806305706031D5A295B296E29FA
:1002B60020008E1A5F2960298C29033022005A02F9
:1002C6000318662967296C290130B0003008DA075F
:1002D600F928DA01F92807305706031D732974290E
:1002E6008C2920008E1A782979298C292200590315
:1002F60003197E297F2984295803031D832984290C
:100306008729D901D801F928D901D90AD801D80AEB
:10031600F92820000D1A90299129462A2200D10198
:100326002100E80102302200B1004530B000A930BA
:10033600890B9B29B00B9B29B10B9B2900329F2867
:100346005708031DA729A829A929102A5703031D01
:10035600AD29AE29AF29102A02305706031DB4294C
:10036600B529B629102A03305706031DBB29BC2917
:10037600CC294D30B0003008D0005208B00030080B
:100386002100E70022005408B00030082100E600F2
:10039600102A04305706031DD129D229E4296D30CD
:1003A600B0003008D000210069082200B0003008F3
:1003B6002100E7006A082200B00030082100E600AC
:1003C600102A05305706031DE929EA29FA2954306F
:1003D600B0003008D0005B08B00030082100E7000C
:1003E60022005A08B00030082100E600102A063024
:1003F6005706031DFF29002A102A4C30B00030088A
:10040600D0005B08B00030082100E70022005A083F
:10041600B00030082100E600102A20000D1A142A28
:10042600152A312A07302200570203181B2A1C2AD4
:100436002E2A0130B0003008D70702302200B10062
:100446004530B000A930890B262AB00B262AB10BFD
:10045600262A0032312AD7012100E80120008E1A0F
:10046600352A362A462A03302200570603193C2A23
:100476003D2A462A043057060319422A432A462AA9
:10048600D101D10A95299F28803118282000E30040
:100496004E0886008701403FD000413FD1005008FA
:1004A6008400510885001200253A031D5B2A5C2A48
:1004B600F72B4E088600870101308107413103186A
:1004C600810A2100E201E3012000EE01EF01FF3085
:1004D6002100E400FF30E5002000DE01DF01AE2A46
:1004E6006E144E08860087010130810741310318DA
:1004F600810AAE2AEE14742A6E15742AEE15742A31
:100506006E16742A0130DE000030DF00AE2A4E0877
:1005160086008701403FD000413FD100500884004B
:10052600510885000008D200D3015308003A031988
:100536009D2A852A5208203A0319812A033A03196B
:10054600832A083A03197F2A063A0319732A1D3AA1
:1005560003197D2A852A5E085F040319B32AB42A83
:100566008A2A6E1CB72AB82ABC2AFD30EE05FF304F
:10057600EF054E0886008701403FD000413FD1007D
:10058600500884005108850012002A3A031DCC2A1F
:10059600CD2AEF2A4E0886008701013081074131B6
:1005A6000318810A4F088600870101088400850127
:1005B60002308107003F2100E200013FE300E31F14
:1005C600E52AE62A312B20006E142100E209E30910
:1005D600E20A0319E30A312B4E0886008701403FE1
:1005E600F600413FF7008931CB218231770821009F
:1005F600E3007608E200072B4E08860087010130EB
:10060600810741310318810A20004E0886008701C0
:10061600403FD000413FD10050088400510885007A
:100626000008D03ED200FF3003180030D30000305F
:1006360053020A3003195202031C222B242B0130C9
:10064600252B0030D400D5015408E0005508E10000
:1006560060086104031D302B312BFF2A20004E0851
:1006660086008701403FD000413FD10050088400FA
:10067600510885001200633A031D422B432B652B5C
:100686004E08860087010130810741310318810A2F
:100696004F08860087010108840085010230810722
:1006A6000008D0005008E2006208D0005008F800A8
:1006B600630897318F27823179082000CF007808A8
:1006C600CE001A2C4E0886008701403FD000413FDD
:1006D600D10050088400510885001200643A0319BD
:1006E600752B762B872B4E0886008701403FD0005E
:1006F600413FD10050088400510885001200693A34
:10070600031D862B872BC22B4E08860087010130DE
:10071600810741310318810A4F08860087010108C5
:100726008400850102308107003FD000013FD100DF
:100736005008D6005108D700890D893B8909D80091
:10074600D900DA00DB00DC00DD005608B0005708EF
:10075600B1005808B2005908B3005A08B4005B0843
:10076600B5005C08B6005D08B700630884311B2439
:10077600823120003108CF003008CE001A2C4E08F6
:1007860086008701403FD000413FD10050088400D9
:10079600510885001200253A031DD22BD32BEC2BD2
:1007A6004E08860087010130810741310318810A0E
:1007B6002530F0000030F1006308D0005008F20048
:1007C60095318725823101302000CE000030CF00E0
:1007D6001A2C4E0886008701013081074131031823
:1007E600810ACE01CF011A2C4E0886008701403FB0
:1007F600D000413FD1005008840051088500000810
:10080600D200D3015208F0005308F1006308D40067
:100816005408F20095318725823120004E08860063
:1008260087010130810741310318810AE62B080050
:100836002000BD003008C4003108C5003208C600DB
:100846003308C7003408C8003508C9003608CA008E
:100856003708CB004430860000308700473FB80099
:10086600B81B362C382C0130392C00302000B9004A
:10087600BA013908C2003A08C30042084304031902
:10088600452C462C642CC409C509C609C709C809E4
:10089600C909CA09CB09C40A031D642CC50A031D6C
:1008A600642CC60A031D642CC70A031D642CC80ADF
:1008B600031D642CC90A031D642CCA0A031D642C7B
:1008C600CB0A2100E51B682C692C6E2CFD3020001C
:1008D600EE05FF30EF0521006508803A2000B800DC
:1008E60080303802031D7A2C01302100640203187F
:1008F6007D2C7E2C842C01302000BE000030BF00F1
:100906008C2C210065082000BF002100640820000F
:10091600BE00210063082000C100210062082000FB
:10092600C00042084304031D992C9A2C9E2C6E1D70
:100936009D2C9E2CA22CFF30C007FF30C13D1F30DE
:10094600CC000030CD002300DC01122DFF3020004A
:10095600CC07FF30CD3D0A30A000A101A201A301C2
:10096600A401A501A601A7014408A8004508A900FD
:100976004608AA004708AB004808AC004908AD0085
:100986004A08AE004B08AF008C31CD2484312000DC
:100996002108F4002008F30093318323843173087F
:1009A600303E2000B8004C08BD3E8600013087006E
:1009B60038088100FF30BE07FF30BF3DFF30C0075B
:1009C600FF30C13D0A30A000A101A201A301A4018C
:1009D600A501A601A7014408A8004508A9004608E4
:1009E600AA004708AB004808AC004908AD004A0811
:1009F600AE004B08AF008D31B725843120002008AA
:100A0600C4002108C5002208C6002308C700240820
:100A1600C8002508C9002608CA002708CB00200000
:100A26004D08803AB80080303802031D1C2D013075
:100A36004C02031C1F2D202D4D2D2000440845047B
:100A460046044704480449044A044B04031D2C2D5C
:100A56002D2DA92C3F08803AB80080303802031D9E
:100A6600362D01303E020318392D3A2DA92C2000CF
:100A76004108803AB80080303802031D442D013009
:100A86004002031C472D482D4D2D2000EE184C2DFD
:100A96004D2DA92C200042084304031D532D542D2F
:100AA600582D6E1D572D582D742DFF30CC07FF3055
:100AB600CD3D42084304031D612D622D672D2B3069
:100AC600BB000030BC006B2D2D30BB000030BC00DD
:100AD6003B08B8004C08BD3E860001308700380848
:100AE60081004C08BD3EB8003808A4004108A600A5
:100AF6004008A5003D089631782684312000250857
:100B0600B1002408B000080021006808031D8C2DE0
:100B16008D2DBA2D3B306B020318922D932D9A2DF5
:100B260001302000EC006C082100EB07BA2D3B30A9
:100B36006C0203189F2DA02DA82DEB01013020007B
:100B4600EC006C082100EC07BA2D18306D02031872
:100B5600AD2DAE2DB72DEB01EC0101302000EC00E0
:100B66006C082100ED07BA2DEB01EC01ED01003018
:100B760093311923853171082100E1007008E000E6
:100B860002306102FE3003196002031CCB2DCC2D0E
:100B9600D32D03302000EC006C082100DF00022E6C
:100BA60002306102FD30031960020318DB2DDC2DD3
:100BB600EC2D01306102FF3003196002031CE42DA5
:100BC600E52DEC2D02302000EC006C082100DF0042
:100BD600022E01306102FE30031960020318F42D63
:100BE600F52D012E01306102003003196002031C4D
:100BF600FD2DFE2D012EDF01DF0A022EDF018631DB
:100C0600DA2685312000EC006C082100DE00680839
:100C1600031D0E2E0F2E1B2E5E082000EC006C0806
:100C26002100E7005F082000EC006C082100E600C8
:100C3600883147208531053022005306031D242EB6
:100C4600252E8E2E21006E082200520203182C2E0D
:100C56002D2E3B2E5330F0007030F10021006E082F
:100C66002000EC006C08F2009331B72385314E2E3C
:100C7600210069086E020318412E422E4E2E543072
:100C8600F0007030F1006E082000EC006C08F200F5
:100C96009331B723853121006F08220054020318CF
:100CA600552E562E642E5530F0007030F10021007E
:100CB6006F082000EC006C08F2009331B7238531F1
:100CC600772E21006A086F0203186A2E6B2E772E84
:100CD6005630F0007030F1006F082000EC006C0810
:100CE600F2009331B723853121005E086E06031D9D
:100CF6007D2E7E2E842E5F086F060319832E842E8A
:100D06008E2E5F082000EC006C08F40021005E08BF
:100D1600973128278531053022005306031D942E6E
:100D2600952E982ED301D30A9E2E01302000EC007A
:100D36006C082200D30720008C1BA22EA32EA52E02
:100D46009617A62E9613023021006102FE30031973
:100D560060020318AF2EB02EB92E00306102FF30AC
:100D6600031960020318B82EB92EBC2E20001616E1
:100D7600BE2E2000161221006808031DC32EC42EA5
:100D8600D92E20000D1AC82EC92ED92E2100E80111
:100D9600E80A02302000ED004530EC00A930890B4E
:100DA600D22EEC0BD22EED0BD22E003208002300F1
:100DB6000F0C890C0139F20011081F397204031D4A
:100DC600E52EE62EDA2E11141118EA2EEB2EE72E5A
:100DD6000F0C890C0139F20011081F397204031D2A
:100DE600F52EF62EEB2E9A3095313C2586312300D2
:100DF6000F0C890C0139F20011081F397204031D0A
:100E0600052F062FFA2E013095313C258631230019
:100E16000F0C890C0139F20011081F397204031DE9
:100E2600152F162F0A2F911491181A2F1B2F172FD3
:100E36000F0C890C0139F20011081F397204031DC9
:100E4600252F262F1B2F9B3095313C2586312300DD
:100E56000F0C890C0139F20011081F397204031DA9
:100E6600352F362F2A2F933169238631F2007208E7
:100E7600F30023000F0C890C0139F20011081F3909
:100E86007204031D472F482F3C2F91161116111A75
:100E96004D2F4E2F4A2F0F0C890C0139F2001108E5
:100EA6001F397204031D582F592F4E2F1115111972
:100EB6005D2F5E2F5A2F731F612F622FDA2E0F0CB4
:100EC600890C0139F20011081F397204031D6C2FB9
:100ED6006D2F622F11141118712F722F6E2F0F0C98
:100EE600890C0139F20011081F397204031D7C2F89
:100EF6007D2F722F9A3095313C25863123000F0CB9
:100F0600890C0139F20011081F397204031D8C2F58
:100F16008D2F812F003095313C25863123000F0C13
:100F2600890C0139F20011081F397204031D9C2F28
:100F36009D2F912F91149118A12FA22F9E2F0F0C48
:100F4600890C0139F20011081F397204031DAC2FF8
:100F5600AD2FA22F9B3095313C25863123000F0CF7
:100F6600890C0139F20011081F397204031DBC2FC8
:100F7600BD2FB12F933169238631F2007208F30039
:100F860023000F0C890C0139F20011081F39720475
:100F9600031DCE2FCF2FC32F91161116111AD42F42
:100FA600D52FD12F0F0C890C0139F20011081F39EA
:100FB6007204031DDF2FE02FD52F11151119E42F11
:100FC600E52FE12F730808007008D03EF200FF30CD
:100FD600713DF300003073020A3003197202031CDC
:100FE600F52FF72F0130F82F0030F400F5017408C3
:0A0FF600F0007508F1000800080083
:1010040020009A01990196019701980107309500F3
:101014000F309100FF309200FF309300FF309400B6
:10102400FF303E00D900C730CE00EF30C300073098
:10103400E4000F30B800DA01E501C401B901CF01C1
:10104400E601BA01C501D001DB01FF30BB00FF306E
:10105400C600FF30D100FF30DC000730E700FF306E
:10106400BC00FF30C700FF30D200FF30DD00073086
:10107400E80013303D00C50014303E00A3001530D5
:10108400A40014303D00C60008008030923195223F
:1010940088319231F722883177087804031D532868
:1010A40054284B2820302100A0009830A1006D085E
:1010B400B300B4013308A2003408A3006C08B500DF
:1010C400B6013508A4003608A5006B08B700B801BE
:1010D4003708A6003808A700220050082100B900EC
:1010E400BA013908A8003A08A90022004F082100D3
:1010F400BB00BC013B08AA003C08AB00BD309431E6
:101104005A248831BD3093313E2388319231F722FD
:10111400883177087804031D902891288828C030E6
:1011240092319522883137302100A0009830A100F7
:101134006708B300B4013308A2003408A3006608AA
:10114400B500B6013508A4003608A500BD309431B9
:101154005A2488319231F722883177087804031DA4
:10116400B428B528AC28BD3093313E23883108001B
:1011740041302200A800EE30890BBE28A80BBE28FF
:1011840000003030963125268831343096312526BA
:101194008831A630890BCC28003230309631252690
:1011A400883107302200A8007D30890BD728A80B8E
:1011B400D72830309631252688313430963125268B
:1011C4008831A630890BE428003230309631252648
:1011D40088312130890BEC280000303096312526E7
:1011E40088313430963125268831A630890BF82889
:1011F400003230309631252688312130890B002980
:101204000000203096312526883124309631252659
:101214008831A630890B0C290032203096312526DE
:10122400883107302200A8007D30890B1729A80BCC
:1012340017292200A20128308B31F623883122009D
:10124400A20106308B31F62388312200A2010F302F
:101254008B31F62388312200A20101308B31F62331
:10126400883103302200A8009730890B3729A80B56
:1012740037290032080099302200A0007030A10004
:10128400AA30A4002408A2009431362489319A306B
:101294002200A0007030A1000A30A4002408A2009B
:1012A4009431362489319B302200A0007030A10093
:1012B400A2019431362489319C302200A000703080
:1012C400A100A2019431362489319D302200A0006E
:1012D4007030A100A2019431362489319E3022005D
:1012E400A0007030A1000530A4002408A2009431AD
:1012F400362489319F302200A0007030A1000330D1
:10130400A4002408A200943136248931A03022009C
:10131400A0007030A1001930A4002408A200943168
:1013240036248931A1302200A0007030A10002309F
:10133400A4002408A200943136248931A23022006A
:10134400A0007030A100A201943136248931A33069
:101354002200A0007030A1000C30A4002408A200D8
:10136400943136248931A4302200A0007030A100C9
:10137400A201943136248931A5302200A0007030B6
:10138400A100E330A4002408A2009431362489315A
:1013940008002000A701A801A001A101D52901305E
:1013A400F6070030F73DA601A60A76088400770800
:1013B40085001200203A0319E029E129F62976086C
:1013C4008400770885000008F73EF800FF30031812
:1013D4000030F90000307902053003197802031C4B
:1013E400F429F529F629A6012608F800F901780858
:1013F400A2007908A30022082304031D022A032A59
:10140400D1290D2A0130A0000030A1000130F607D7
:101414000030F73D412A76088400770885000008EB
:10142400F800F9017908003A0319192A412A7808C1
:101434002B3A0319082A063A0319042A412A760882
:101444008400770885000008F8002808F1002708C0
:10145400F0000A30F2000030F3009331D5238931D3
:101464007108FA0078087002F900031CFA0379087D
:10147400303E2000A70000307A3DA800082A7608F4
:101484008400770885000008D03EF800FF30031878
:101494000030F900003079020A3003197802031C85
:1014A400542A562A0130572A0030FA00FB017A08E0
:1014B400A4007B08A50024082504031D622A632ACE
:1014C400212A20082104031D682A692A752A27096C
:1014D400F8002809F900F80A0319F90A7808F6004F
:1014E4007908F700792A2808F7002708F600080089
:1014F400F5007508F039F3007308F6007508F30079
:101504000330F335FF3E031D832A7335F039F400AD
:101514007408F70023000F0C890C0139F30011083B
:101524001F397304031D972A982A8C2A1114111841
:101534009C2A9D2A992A0F0C890C0139F300110861
:101544001F397304031DA72AA82A9D2A4E309531FA
:101554003C258A3123000F0C890C0139F300110852
:101564001F397304031DB72AB82AAC2A76087204FB
:10157400083895313C258A3123000F0C890C013938
:10158400F30011081F397304031DC92ACA2ABE2A8D
:10159400760872040C3895313C258A3123000F0CEF
:1015A400890C0139F30011081F397304031DDB2A68
:1015B400DC2AD02A000076087204083895313C25CC
:1015C4008A3123000F0C890C0139F30011081F39EB
:1015D4007304031DEE2AEF2AE32A770872040838FD
:1015E40095313C258A3123000F0C890C0139F30015
:1015F40011081F397304031D002B012BF52A7708EA
:1016040072040C3895313C258A3123000F0C890C67
:101614000139F30011081F397304031D122B132B16
:10162400072B000077087204083895313C258A316D
:1016340023000F0C890C0139F30011081F397304BE
:10164400031D252B262B1A2B111511192A2B2B2B95
:10165400272B1030890B2C2B003208002200AF00FE
:101664009930A0007030A1009231E7228B31220022
:10167400AE002F088600013087002E0881009A30C2
:10168400A0007030A1009231E7228B312200AE001D
:1016940022088600013087002E0881009B30A000BC
:1016A4007030A1009231E7228B312200AE00230872
:1016B4008600013087002E0881009C30A000703025
:1016C400A1009231E7228B312200AE00240886006B
:1016D400013087002E0881009D30A0007030A100E9
:1016E4009231E7228B312200AE00250886000130BA
:1016F40087002E0881009E30A0007030A100923136
:10170400E7228B312200AE002608860001308700D4
:101714002E0881009F30A0007030A1009231E72292
:101724008B312200AE0027088600013087002E0886
:101734008100A030A0007030A1009231E7228B31EB
:101744002200AE0028088600013087002E088100A0
:10175400A130A0007030A1009231E7228B31220029
:10176400AE0029088600013087002E088100A230CF
:10177400A0007030A1009231E7228B312200AE002C
:101784002A088600013087002E088100A330A000BB
:101794007030A1009231E7228B312200AE002B0879
:1017A4008600013087002E088100A430A00070302C
:1017B400A1009231E7228B312200AE002C08860072
:1017C400013087002E088100A530A0007030A100F0
:1017D4009231E7228B312200AE002D0886000130C1
:1017E40087002E08810008002200A5002508F03992
:1017F400A3002308A6002508A3000330A335FF3E59
:10180400031D002C2335F039A4002408A70023006D
:101814000F0C890C01392200A300230011081F3981
:1018240022002304031D172C182C092C2300111447
:1018340011181D2C1E2C1A2C23000F0C890C013995
:101844002200A300230011081F3922002304031DD2
:101854002C2C2D2C1E2C4E309631CE268B31230071
:101864000F0C890C01392200A300230011081F3931
:1018740022002304031D3F2C402C312C2608220473
:1018840008389631CE268B3123000F0C890C013990
:101894002200A300230011081F3922002304031D82
:1018A400542C552C462C260822040C389631CE266E
:1018B4008B3123000F0C890C01392200A300230073
:1018C40011081F3922002304031D692C6A2C5B2C88
:1018D400000022002608220408389631CE268B31D7
:1018E40023000F0C890C01392200A30023001108E6
:1018F4001F3922002304031D802C812C722C2708FD
:10190400220408389631CE268B3123000F0C890C23
:1019140001392200A300230011081F3922002304E7
:10192400031D952C962C872C270822040C389631FD
:10193400CE268B3123000F0C890C01392200A30021
:10194400230011081F3922002304031DAA2CAB2CE9
:101954009C2C000022002708220408389631CE2649
:101964008B3123000F0C890C01392200A3002300C2
:1019740011081F3922002304031DC12CC22CB32CCF
:10198400230011151119C72CC82CC42C1030890B35
:10199400C92C00320800F20128308600003087008C
:1019A400473FF000F01FD72CD82CF92C2000A809B1
:1019B400A909AA09AB09AC09AD09AE09AF09A80A7E
:1019C400031DF72CA90A031DF72CAA0A031DF72CE3
:1019D400AB0A031DF72CAC0A031DF72CAD0A031D3B
:1019E400F72CAE0A031DF72CAF0AF201F20A2030DD
:1019F400860000308700473FF000F01F022D032DC2
:101A0400222D2000A009A109A209A309A409A5095E
:101A1400A609A709A00A031D222DA10A031D222D30
:101A2400A20A031D222DA30A031D222DA40A031DAD
:101A3400222DA50A031D222DA60A031D222DA70A65
:101A4400200020082104220423042404250426045D
:101A5400270403192E2D2F2D822DF101F10A3E2D7D
:101A6400A035A10DA20DA30DA40DA50DA60DA70DC6
:101A74000130F0007008F107A71F412D422D322DCF
:101A840027082F02031D602D26082E02031D602D3A
:101A940025082D02031D602D24082C02031D602D32
:101AA40023082B02031D602D22082A02031D602D2A
:101AB40021082902031D602D20082802031C632D20
:101AC400642D742D2008A8022108A93B2208AA3BF2
:101AD4002308AB3B2408AC3B2508AD3B2608AE3BB2
:101AE4002708AF3BA736A60CA50CA40CA30CA20C8C
:101AF400A10CA00C0130F102031D812D822D422D79
:101B040072080319862D872DA52DA809A909AA09EC
:101B1400AB09AC09AD09AE09AF09A80A031DA52D8F
:101B2400A90A031DA52DAA0A031DA52DAB0A031D91
:101B3400A52DAC0A031DA52DAD0A031DA52DAE0AC6
:101B4400031DA52DAF0A20002808A0002908A10024
:101B54002A08A2002B08A3002C08A4002D08A50025
:101B64002E08A6002F08A7000800F20120308600E6
:101B740000308700473FF000F01FC12DC22DE32D38
:101B84002000A009A109A209A309A409A509A6097D
:101B9400A709A00A031DE12DA10A031DE12DA20A34
:101BA400031DE12DA30A031DE12DA40A031DE12D4C
:101BB400A50A031DE12DA60A031DE12DA70AF201C2
:101BC400F20A2830860000308700473FF000F01FFB
:101BD400EC2DED2D102E2000A809A909AA09AB09A6
:101BE400AC09AD09AE09AF09A80A031D0C2EA90A58
:101BF400031D0C2EAA0A031D0C2EAB0A031D0C2E6A
:101C0400AC0A031D0C2EAD0A031D0C2EAE0A031DD7
:101C14000C2EAF0A0130F0007008F2067330860013
:101C2400003087000830F00000301E00F00B172E43
:101C3400200020082104220423042404250426046B
:101C440027040319262E272E832EF101F10A362E9E
:101C5400A035A10DA20DA30DA40DA50DA60DA70DD4
:101C64000130F0007008F107A71F392E3A2E2A2EF2
:101C7400F335F40DF50DF60DF70DF80DF90DFA0D1C
:101C840027082F02031D602E26082E02031D602E36
:101C940025082D02031D602E24082C02031D602E2E
:101CA40023082B02031D602E22082A02031D602E26
:101CB40021082902031D602E20082802031C632E1C
:101CC400642E752E2008A8022108A93B2208AA3BED
:101CD4002308AB3B2408AC3B2508AD3B2608AE3BB0
:101CE4002708AF3B7314A736A60CA50CA40CA30CB1
:101CF400A20CA10CA00C0130F102031D822E832E34
:101D04003A2E72080319872E882EA62EF309F40999
:101D1400F509F609F709F809F909FA09F30A031D9F
:101D2400A62EF40A031DA62EF50A031DA62EF60AF6
:101D3400031DA62EF70A031DA62EF80A031DA62EC0
:101D4400F90A031DA62EFA0A73082000A0007408DD
:101D5400A1007508A2007608A3007708A4007808FB
:101D6400A5007908A6007A08A7000800F600230059
:101D74000F0C890C0139F20011081F397204031D7C
:101D8400C42EC52EB92E11141118C92ECA2EC62E52
:101D94000F0C890C0139F20011081F397204031D5C
:101DA400D42ED52ECA2E4E3095313C258E312300AB
:101DB4000F0C890C0139F20011081F397204031D3C
:101DC400E42EE52ED92E7608FA3895313C258E314D
:101DD40023000F0C890C0139F20011081F39720419
:101DE400031DF52EF62EEA2E7608FE3895313C2595
:101DF4008E3123000F0C890C0139F20011081F39B0
:101E04007204031D062F072FFB2E000023009114DC
:101E140091180D2F0E2F0A2F0F0C890C0139F20087
:101E240011081F397204031D182F192F0E2F4F305C
:101E340095313C258E3123000F0C890C0139F200B9
:101E440011081F397204031D282F292F1D2F9331C8
:101E540069238E31F2007208F40023000F0C890C00
:101E64000139F20011081F397204031D3A2F3B2F68
:101E74002F2F91161116111A402F412F3D2F911417
:101E84009118452F462F422F0F0C890C0139F2006F
:101E940011081F397204031D502F512F462F4E3045
:101EA40095313C258E3123000F0C890C0139F20049
:101EB40011081F397204031D602F612F552F7608F6
:101EC400FA3895313C258E3123000F0C890C0139E9
:101ED400F20011081F397204031D712F722F662F2F
:101EE4007608FE3895313C258E3123000F0C890C81
:101EF4000139F20011081F397204031D822F832F48
:101F0400772F0000230091149118892F8A2F862F90
:101F14000F0C890C0139F20011081F397204031DDA
:101F2400942F952F8A2F4F3095313C258E312300E5
:101F34000F0C890C0139F20011081F397204031DBA
:101F4400A42FA52F992F933169238E31F2007208A3
:101F5400F50023000F0C890C0139F20011081F3918
:101F64007204031DB62FB72FAB2F91161116111A39
:101F7400BC2FBD2FB92F91149118C12FC22FBE2F82
:101F84000F0C890C0139F20011081F397204031D6A
:101F9400CC2FCD2FC22F4E3095313C258E312300CE
:101FA4000F0C890C0139F20011081F397204031D4A
:101FB400DC2FDD2FD12F7608FA3895313C258E3170
:101FC40023000F0C890C0139F20011081F39720427
:101FD400031DED2FEE2FE22F11151119F22FF32F00
:101FE400EF2F7508F2000430F236890BF62F0F300C
:0C1FF4007205F3007408F0397304080053
:1025120022002108CC002008CB00080064008001C2
:102522000131890B902A0034F800F20178088A31CF
:102532007A2292310800F800F201F20A78088A3110
:102542007A22923108002F00960197019801990191
:102552009A019B010800623031008D008F019101C8
:102562000230930092010800803023008F0008306F
:102572009000910103308D009012080022004B0858
:102582004C040319C52AC62ACB2A4C088A004B08D8
:102592000A0092310800803023008F00083090003A
:1025A200910103308D009016200093151316080038
:1025B2002E00101022004E08F1004D08F000933159
:1025C200082392319231BF22923108002200210861
:1025D20030009B002200200830009A001E171E14B3
:1025E2000000000030009E171C08080000308E31E9
:1025F200B826923180390319FF2A002B052B0130AE
:10260200F7000030F800072BF701F801080024005A
:102612000E1D0C2B0D2B142B0E1071088D00700843
:102622008C000E14182B71088D0070088C000800A5
:10263200F200720821009E00931713131314000076
:1026420021001318252B262B212B0D08F1000C0835
:10265200F00008009231A42293319231B5229331D5
:102662008831022093319231AC229331933152233B
:1026720093319431152493310800FB00442B7A08DE
:1026820092319C2293317B0886008701FB0A010864
:10269200F9007908FA007A08031D502B512B402BC0
:1026A200080022008E018F01900191019201930195
:1026B2008D0121009E019B019C01940195019601CF
:1026C20097019A0199019801843093009D010800B5
:1026D2000F3023001005F000083070060319722B2A
:1026E200732B7C2B0F301005F0000B307006031D8E
:1026F2007B2B7C2B7D2B91150F1C802B812B7D2B13
:102702000C0808007408803AF50080307502031D39
:102712008C2B0130730203188F2B902B9C2B730987
:10272200F5007409F600F50A0319F60A7508F300B4
:102732007608F4009C2B0800F4007408F20072087A
:10274200F300A72B0130F2007208F4077408860028
:10275200013087000108031DAF2BB02BA32B730898
:102762007402F000F101F01BF103080000308B1B32
:102772000130F300710830009B0070089A00720863
:102782009C001E171E158B1355309F00AA309F0008
:102792009E149E18CD2BCE2BCA2B1E11730C031C1C
:1027A2008B1303188B170800F401F501701CDA2B48
:1027B200DB2BDF2B7208F4077308F53D0130F2358D
:1027C200F30D890BE02B0130F136F00C890BE52B70
:1027D20070087104031DEE2BEF2BD72B7508F10047
:1027E2007408F0000800F401F40A20307006710445
:1027F2000319FC2BFD2B0D2C7008F73EF200FF3065
:10280200713DF30000307302053003197202031C9C
:102812000B2C0C2C0D2CF4017408F200F30172083D
:10282200F0007308F100080024008F0190010430C9
:10283200910086308D00E8308C002E0010102400AC
:102842000D082200CE0024000C082200CD002E002C
:102852001A14FF302200A0000730A1009231892211
:102862009431013024008E00080000308B1B0130AF
:102872002200A300210830009B0022002008300023
:102882009A002200220830009C001E171E158B138E
:1028920055309F00AA309F009E149E18512C522C36
:1028A2004E2C1E112200230C031C8B1303188B17B2
:1028B20008002100AC00A230FD007D08AD002C080C
:1028C200FD007D08AE00AF01B001B101B2012108E7
:1028D2002000E500210020082000E400AD30FD00CA
:1028E2007D08E600AE309431D424943121002F08C3
:1028F2002C07FD007D088600870181010800200069
:10290200A300A101A201982C2008F900FA0179087C
:10291200F0007A08F1007808FB007B08F20095319C
:102922008725943101302000A1070030A23D210803
:102932002307F90079088600013087000108FA00B0
:102942007A08A0002008031DA72CA82C852C0800BB
:1029520053302200A0007030A100FF30A4002408F0
:10296200A20094313624943154302200A0007030F9
:10297200A100A20194313624943157302200A000E4
:102982007030A1000330A4002408A2009431362440
:10299200943159302200A0007030A100A20194317C
:1029A2003624943108002000E9006508EB00640831
:1029B200EA002200D501D601F22C6A30E70067084E
:1029C200CE006608E8006808CF0069088231492213
:1029D200943120004E082200D50720004F08220023
:1029E200D63D20006A0884006B0885001200031D92
:1029F200FB2CFC2CDE2C220056082000E5002200D5
:102A020055082000E40008002200A400212D003017
:102A1200A5007030A600372D0530A5007030A60045
:102A2200372D0A30A5007030A600372D0F30A500D3
:102A32007030A600372DFF30A500F030A600372DEC
:102A42002408A200A3012308003A0319292D1C2DF2
:102A52002208643A0319082D013A03190D2D033A8D
:102A62000319122D013A0319172D1C2D2608A10056
:102A72002508A0000800F100710823008C00901FB7
:102A8200432D442D452D862D0F301005F0000830C2
:102A9200700603194D2D4E2D642D0F301005F000D8
:102AA2000B3070060319562D572D642D10162E006B
:102AB2000F1C5C2D5D2D582D23000F19612D622DE9
:102AC200862D0F08862D0F301005F0000830700695
:102AD20003196C2D6D2D762D0F301005F0000B3083
:102AE2007006031D752D762D862D0F18792D7A2DE2
:102AF200762D0F0C890C0139F00011081F39700472
:102B0200031D842D852D7A2D1108080072080319E2
:102B12008B2D8C2D912D7208031D902D912D962DAC
:102B22007008803103209531D52D7208033E86004E
:102B320087011600010403199F2DA02DBD2D7208D7
:102B4200033E86008701403FF300413FF400720AD2
:102B520086008701403FF500413FF6007608803A43
:102B6200F7007408803A7702031DB92D73087502C5
:102B72000318BC2DBD2DD52D7008F30072088600F8
:102B82008701720A8400850100080107F4007408B5
:102B92008600870173088100720A8600870101306E
:102BA200810741310318810A08002200AD002B0879
:102BB20095310525953122002108AF002008AE008D
:102BC2002F08A1002E08A0002D08AC002C08A2009E
:102BD20094313624953122002E08013EA0000030A7
:102BE2002F3DA1002708AC002C08A2009431362406
:102BF200953122002E08023EA00000302F3DA10098
:102C02002808AC002C08A200943136249531220009
:102C12002E08033EA00000302F3DA1002908AC0081
:102C22002C08A20094313624953122002E08043E4D
:102C3200A00000302F3DA1002A08AC002C08A20001
:102C420094313624953108002200A30023000F0C92
:102C5200890C01392200A200230011081F39220029
:102C62002204031D352E362E272E2300111411188F
:102C72003B2E3C2E382E23000F0C890C01392200EA
:102C8200A200230011081F3922002204031D4A2E2C
:102C92004B2E3C2E4E309631CE26963123000F0C11
:102CA200890C01392200A200230011081F392200D9
:102CB2002204031D5D2E5E2E4F2E23089631CE2652
:102CC200963123000F0C890C01392200A200230047
:102CD20011081F3922002204031D702E712E622E4C
:102CE200230011151119762E772E732E080020005D
:102CF200AB006E1C7D2E7E2E862E2B08FC007C08DF
:102D0200F80024089431802496312000A61B8A2ED4
:102D12008B2E902E2608AA002508A900922EA90122
:102D2200AA01A701A801A62E2030F0000030F10070
:102D320020002B08FC007C08F20095318725963193
:102D420001302000A7070030A83D2808803AFC0087
:102D52002A08803A7C02031DB02E29082702031C90
:102D6200B32EB42E952E20006E18B82EB92EC12E79
:102D72002B08FC007C08F80024089431802496314A
:102D82002000240893319D239631200029087007E2
:102D9200A4002A08713DA50008002200A100210814
:102DA20023008C00901FD62ED72ED82E272F0F301F
:102DB20010052200A000083020060319E12EE22EA1
:102DC200FB2E0F30230010052200A0000B3020063E
:102DD2000319EC2EED2EFB2E230010162E000F1CD5
:102DE200F32EF42EEF2E23000F19F82EF92E272F93
:102DF2000F08272F0F30230010052200A0000830F3
:102E020020060319052F062F112F0F30230010055E
:102E12002200A0000B302006031D102F112F272F98
:102E220023000F18152F162F112F23000F0C890CBA
:102E320001392200A000230011081F3922002004BA
:102E4200031D242F252F162F230011080800F6003A
:102E520022004A08F1004908F00021006D08F5003F
:102E62007508F2009331B723973122004908013ED9
:102E7200F00000304A3DF10021006C08F5007508B1
:102E8200F2009331B723973122004908023EF00045
:102E920000304A3DF10021006B08F5007508F20090
:102EA2009331B723973122004908033EF0000030E6
:102EB2004A3DF1007608F5007508F2009331B72318
:102EC200973122004908043EF00000304A3DF100EB
:102ED2007408F5007508F2009331B723973176082C
:102EE200F50075082100EE007408F5007508EF0082
:102EF200143022004906703003194A06031D822F3E
:102F0200832F882F0030C9007030CA008E2F4908E5
:102F1200053EC90000304A3DCA0008002000A40056
:102F2200210062086304031D972F982FA02F6308C6
:102F32002000A300210062082000A200A92F62083D
:102F4200FF3E2000A200FF302100633D2000A300CD
:102F52006E1CAC2FAD2FBB2F7808FA00FB017A084C
:102F6200F0007B08F1002408FC007C08F200953197
:102F7200872597312000A31BBF2FC02FC12FC32F3E
:102F8200A201A301A001A101D72F2030F00000303F
:102F9200F10020002408FA007A08F2009531872512
:102FA200973101302000A0070030A13D2108803A6E
:102FB200FA002308803A7A02031DE12F2208200238
:102FC200031CE42FE52FC62F20006E18E92FEA2FED
:102FD200F82F7808FA00FB017A08F0007B08F1006C
:102FE2002408FC007C08F2009531872597312000E7
:102FF2002008013EF8000030213DF90008000034AD
:10300200003400340034003400340034003400341E
:10301200003400340034003400340034003400340E
:1030220000340034003400340034003400340034FE
:1030320000340034003400340034003400342534C9
:103042003034323464343A342534303432346434F3
:103052003A34253430343234643420342034253444
:10306200633420342034253463340034253430343E
:103072003234643420344334203420342034203435
:103082002034203420342034203425343034313478
:08309200643420346C34003476
:020000040001F9
:0A000E00EC3FFF3F9F3FFF3FFF3F25
:00000001FF
=======
:1000000080311828080008007E1480310B1F092851
:100010000A2816282E001A1C0E280F281628101C35
:100020001228132816289431712480317E1009007B
:1000300080311A28FA01FB01FC01FD012100ED01CC
:10004000EE0120308400013085003F3094310524DA
:1000500080317E10200080312D28FF302100C20029
:100060000030C3009431C42480318B170B1720005B
:1000700016179431642480318831E12080311030AA
:100080002000A000F030A10055302100B600360855
:100090002000A20096313826803100001030200068
:1000A000A000F030A10094317F248031000089311C
:1000B000F12180313B302100B60036082000A70036
:1000C00011302100B70037082000A80019302100A6
:1000D000B80038082000A90002302100B900390812
:1000E0002000AA0065302100BA003A082000AB00C9
:1000F0000B3097310D2780312100E801E901EA0139
:10010000803094310B24803176302000A900983063
:10011000AA0095310725803102302100B700453013
:10012000B600A930890B9228B60B9228B70B9228FB
:100130000032E0280D1A9D289E28AC2801302100AD
:10014000B6003608E80752302100B6002930890B86
:10015000A728B60BA72800329431B12480312000A3
:1001600027082804031DB528B628AC288030943110
:100170000B24803135302100A6009830A700680894
:10018000B600B7013608A8003708A9006908B8000A
:10019000B9013808AA003908AB006A08BA00BB01E7
:1001A0003A08AC003B08AD00C430963115268031CA
:1001B000C4302000A9000030AA0095310725803105
:1001C00020008E1AE428E5289A28803094310B24E8
:1001D000803167302000A9009830AA0095310725AA
:1001E000803102302100B7004530B600A930890BBC
:1001F000F728B60BF728B70BF728003245290D1A58
:1002000002290329082901302100B6003608E90730
:100210009431B1248031200027082804031D1129BE
:1002200012290829803094310B248031203021009C
:10023000A6009830A7006808B600B7013608A800E5
:100240003708A9006908B800B9013808AA003908B8
:10025000AB006A08BA00BB013A08AC003B08AD002D
:10026000C430963115268031C4302000A9000030FA
:10027000AA0095310725803152302100B60029307F
:10028000890B4029B60B4029003220008E1A4929DB
:100290004A29FF28803094310B24803158302000C7
:1002A000A9009830AA00953107258031023021003D
:1002B000B7004530B600A930890B5C29B60B5C2924
:1002C000B70B5C290032AA290D1A672968296D2904
:1002D00001302100B6003608EA079431B12480319C
:1002E000200027082804031D762977296D298030EE
:1002F00094310B24803120302100A6009830A700D3
:100300006808B600B7013608A8003708A9006908D0
:10031000B800B9013808AA003908AB006A08BA0069
:10032000BB013A08AC003B08AD00C430963115263D
:100330008031C4302000A9000030AA009531072583
:10034000803152302100B6002930890BA529B60B27
:10035000A529003220008E1AAE29AF296429203049
:100360002100EB000030EC006C082000A10021000F
:100370006B082000A00021006808B60036082000A5
:10038000A20096313826803121006B08013E200002
:10039000A000003021006C3D2000A1002100690870
:1003A000B60036082000A2009631382680312100A0
:1003B0006B08023E2000A000003021006C3D2000B0
:1003C000A10021006A08B60036082000A20096317C
:1003D0003826803164302000A0000930A10094311B
:1003E0002D248031943140248031D7302100B60053
:1003F00036082000A700D8302100B70037082000B9
:10040000A800D9302100B80038082000A900DA304F
:100410002100B90039082000AA0065302100BA0087
:100420003A082000AB00D630883187208031DC309C
:100430002100B60036082000A200DD302100B70000
:1004400037082000A300DE302100B8003808200063
:10045000A400DF302100B90039082000A500E030F9
:100460002100BA003A082000A600E1302100BB00BC
:100470003B082000A700E2302100BC003C0820001F
:10048000A800E3302100BD003D082000A900E430B1
:100490002100BE003E082000AA00E5302100BF0078
:1004A0003F082000AB00E6302100C00040082000DB
:1004B000AC00E7302100C10041082000AD00DB3076
:1004C0008B312E23803121006C082000A1002100F7
:1004D0006B082000A00094317F2480312100B600F9
:1004E0003608E8006B08013E2000A0000030210023
:1004F0006C3D2000A10094317F2480312100B600A2
:100500003608E9006B08023E2000A0000030210000
:100510006C3D2000A10094317F2480312100B60081
:100520003608EA008E31B02680312100B600360848
:10053000D500803094310B2480319431B124803146
:10054000200027082804031DA62AA72A9D2A49302F
:100550002100A6009830A7006808B600B701360849
:10056000A8003708A9006908B800B9013808AA002E
:100570003908AB006A08BA00BB013A08AC003B0876
:10058000AD00C430963115268031C4302000A9005A
:100590000030AA009531072580310B302100B600CC
:1005A00036082000A900003095313D258031943176
:1005B000B1248031200027082804031DE02AE12A05
:1005C000D72A8A30A9009830AA00953107258031B2
:1005D000C03094310B24803183302100A600983044
:1005E000A7005508B600B7013608A8003708A900CB
:1005F000C4309631152680319431B12480312000E9
:1006000027082804031D052B062BFC2AC430A9004B
:100610000030AA0095310725803103302100B70052
:100620008A30B6005530890B132BB60B132BB70B42
:10063000132B0032F229803118282000ED005908D0
:1006400086008701403FDB00413FDC005B088400FF
:100650005C0885001200253A031D2F2B302B972CA8
:100660005908860087010130810741310318810A4A
:100670002100ED01EE01FC01FD01FF30FA00FF3029
:10068000FB002000E901EA01802B7C145908860058
:1006900087010130810741310318810A802BFC1446
:1006A000462B7C15462BFC15462B7C16462B013021
:1006B000E9000030EA00802B590886008701403F9E
:1006C000DB00413FDC005B0884005C08850000081B
:1006D000DD00DE015E08003A03196F2B572B5D0821
:1006E000203A0319532B033A0319552B083A0319DF
:1006F000512B063A0319452B1D3A03194F2B572B43
:1007000069086A040319852B862B5C2B7C1C892BBA
:100710008A2B8E2BFD30FC05FF30FD055908860025
:100720008701403FDB00413FDC005B0884005C0840
:10073000850012002A3A031D9E2B9F2BBF2B5908C0
:10074000860087010130810741310318810A5A0868
:100750008600870101088400850102308107003F7F
:100760002100ED00013FEE00EE1FB72BB82B042C4B
:100770007C14ED09EE09ED0A0319EE0A042C590860
:1007800086008701403FA600413FA7008A317F22B3
:100790008331200027082100EE00200026082100D8
:1007A000ED00DA2B590886008701013081074131BD
:1007B0000318810A2000590886008701403FDB00AA
:1007C000413FDC005B0884005C0885000008D03EE7
:1007D000DD00FF3003180030DE0000305E020A301A
:1007E00003195D02031CF52BF72B0130F82B0030A9
:1007F000DF00E0015F08EB006008EC006B086C04B0
:10080000031D032C042CD22B2000590886008701DD
:10081000403FDB00413FDC005B0884005C08850052
:100820001200643A0319152C162C272C590886003F
:100830008701403FDB00413FDC005B0884005C082F
:1008400085001200693A031D262C272C622C5908BA
:10085000860087010130810741310318810A5A0857
:100860008600870101088400850102308107003F6E
:10087000DB00013FDC005B08E1005C08E200890D61
:10088000893B8909E300E400E500E600E700E800B1
:100890006108BB006208BC006308BD006408BE00BC
:1008A0006508BF006608C0006708C1006808C2008C
:1008B0006D0886314626833120003C08DA003B086B
:1008C000D900BA2C590886008701403FDB00413F20
:1008D000DC005B0884005C0885001200253A031DDB
:1008E000722C732C8C2C59088600870101308107EB
:1008F00041310318810A2530A0000030A1006D08A5
:10090000DB005B08A20097315C27833101302000B7
:10091000D9000030DA00BA2C59088600870101306E
:10092000810741310318810AD901DA01BA2C59082B
:1009300086008701403FDB00413FDC005B0884000C
:100940005C0885000008DD00DE015D08A0005E088F
:10095000A1006D08DF005F08A20097315C2783319A
:1009600020005908860087010130810741310318B2
:10097000810A862C08002000A60023000F0C890C99
:1009800001392000A200230011081F392000220491
:10099000031DCB2CCC2CBD2C230011141118D12CF1
:1009A000D22CCE2C23000F0C890C01392000A20080
:1009B000230011081F3920002204031DE02CE12C24
:1009C000D22C4E3088312D20843123000F0C890C1D
:1009D00001392000A200230011081F392000220441
:1009E000031DF32CF42CE52C2608FA3888312D2031
:1009F000843123000F0C890C01392000A200230050
:100A000011081F3920002204031D072D082DF92C81
:100A10002608FE3888312D20843123000F0C890CE4
:100A200001392000A200230011081F3920002204F0
:100A3000031D1B2D1C2D0D2D00002300911491185A
:100A4000222D232D1F2D23000F0C890C013920008E
:100A5000A200230011081F3920002204031D312D9C
:100A6000322D232D4F3088312D20843123000F0C5F
:100A7000890C01392000A200230011081F39200031
:100A80002204031D442D452D362D953193258431A7
:100A90002000A2002208A40023000F0C890C0139B9
:100AA0002000A200230011081F3920002204031D8A
:100AB0005A2D5B2D4C2D230091161116111A612D04
:100AC000622D5E2D91149118662D672D632D2300E4
:100AD0000F0C890C01392000A200230011081F39D6
:100AE00020002204031D752D762D672D4E30883190
:100AF0002D20843123000F0C890C01392000A20025
:100B0000230011081F3920002204031D882D892D80
:100B10007A2D2608FA3888312D20843123000F0CD5
:100B2000890C01392000A200230011081F39200080
:100B30002204031D9C2D9D2D8E2D2608FE38883104
:100B40002D20843123000F0C890C01392000A200D4
:100B5000230011081F3920002204031DB02DB12DE0
:100B6000A22D0000230091149118B72DB82DB42D9B
:100B700023000F0C890C01392000A200230011086A
:100B80001F3920002204031DC62DC72DB82D4F305C
:100B900088312D20843123000F0C890C013920006D
:100BA000A200230011081F3920002204031DD92DA3
:100BB000DA2DCB2D9531932584312000A200220817
:100BC000A50023000F0C890C01392000A20023008E
:100BD00011081F3920002204031DEF2DF02DE12DF7
:100BE000230091161116111AF62DF72DF32D9114DD
:100BF0009118FB2DFC2DF82D23000F0C890C0139C9
:100C00002000A200230011081F3920002204031D28
:100C10000A2E0B2EFC2D4E3088312D2084312300DE
:100C20000F0C890C01392000A200230011081F3984
:100C300020002204031D1D2E1E2E0F2E2608FA381A
:100C400088312D20843123000F0C890C01392000BC
:100C5000A200230011081F3920002204031D312E99
:100C6000322E232E230011151119372E382E342E33
:100C700020002508A2000430A236890B3C2E0F303C
:100C80002205A3002408F039230408002000C8002E
:100C90003B08CF003C08D0003D08D1003E08D20000
:100CA0003F08D3004008D4004108D5004208D600D0
:100CB0004F30860000308700473FC300C31B612EC2
:100CC000632E0130642E00302000C400C5014408AA
:100CD000CD004508CE004D084E040319702E712E2C
:100CE0008F2ECF09D009D109D209D309D409D5094A
:100CF000D609CF0A031D8F2ED00A031D8F2ED10ACD
:100D0000031D8F2ED20A031D8F2ED30A031D8F2E93
:100D1000D40A031D8F2ED50A031D8F2ED60AFB1B66
:100D2000922E932E972EFD30FC05FF30FD057B089B
:100D3000803A2000C30080304302031DA12E013001
:100D40007A020318A42EA52EAB2E01302000C90074
:100D50000030CA00B02E7B082000CA007A08C90003
:100D600021006E082000CC0021006D082000CB007F
:100D70004D084E04031DBD2EBE2EC22E7C1DC12E5D
:100D8000C22EC62EFF30CB07FF30CC3D1F30D70020
:100D90000030D8002200DE01362FFF302000D707B8
:100DA000FF30D83D0A30A000A101A201A301A40197
:100DB000A501A601A7014F08A8005008A9005108E5
:100DC000AA005208AB005308AC005408AD00550807
:100DD000AE005608AF008C31BE24863120002108B9
:100DE000B4002008B300953159258631200033081E
:100DF000303EC30057083F3E86000130870043085D
:100E00008100FF30C907FF30CA3DFF30CB07FF30FC
:100E1000CC3D0A30A000A101A201A301A401A501BB
:100E2000A601A7014F08A8005008A9005108AA0070
:100E30005208AB005308AC005408AD005508AE0092
:100E40005608AF008D31AB25863120002008CF0039
:100E50002108D0002208D1002308D2002408D300A2
:100E60002508D4002608D5002708D60020005808F9
:100E7000803AC30080304302031D402F01305702E7
:100E8000031C432F442F702F20004F08500451049F
:100E900052045304540455045604031D502F512F7B
:100EA000CD2E4A08803AC30080304302031D5A2FDA
:100EB0000130490203185D2F5E2FCD2E20004C0813
:100EC000803AC30080304302031D682F01304B027B
:100ED000031C6B2F6C2F702FFC186F2F702FCD2ED3
:100EE00020004D084E04031D762F772F7B2F7C1D8D
:100EF0007A2F7B2F972FFF30D707FF30D83D4D0833
:100F00004E04031D842F852F8A2F2B30C6000030FE
:100F1000C7008E2F2D30C6000030C7004608C30022
:100F200057083F3E8600013087004308810057087C
:100F30003F3EC3004308B0004C08B2004B08B1006C
:100F400048088731AA27863120003108BC003008C4
:100F5000BB0008002000B8007C1CAF2FB02FB82FBA
:100F60003808B3003308A8003008883104208731DE
:100F70002000B21BBC2FBD2FC22F3208B700310892
:100F8000B600C42FB601B701B401B501D82F203087
:100F90002000A0000030A1003808B3003308A200F0
:100FA00097315C27873101302000B4070030B53D10
:100FB0003508803AB3003708803A3302031DE22F28
:100FC00036083402031CE52FE62FC72F7C18E92FC3
:100FD000EA2FF32F20003808B3003308A8003008A8
:100FE000883104208731200030089531222587314F
:100FF000200036082007B0003708213DB100080066
:101008002000AF00AD01AE011C282C08A900AA01E0
:101018002908A0002A08A1002808AB002B08A20074
:1010280097315C27883101302000AD070030AE3D94
:101038002D082F07A900290886000130870001081C
:10104800AA002A08AC002C08031D2B282C280928E4
:1010580008002000A100210823008C00901F3528DB
:101068003628372886280F3010052000A0000830C1
:1010780020060319402841285A280F30230010055C
:101088002000A0000B30200603194B284C285A28B2
:10109800230010162E000F1C522853284E28230018
:1010A8000F195728582886280F0886280F3023003C
:1010B80010052000A00008302006031964286528C0
:1010C80070280F30230010052000A0000B302006E8
:1010D800031D6F287028862823000F187428752888
:1010E800702823000F0C890C01392000A000230070
:1010F80011081F3920002004031D8328842875281F
:101108002300110808002000AD002B089631912615
:10111800883120002108AF002008AE002F08A10068
:101128002E08A00094317F2488312000AC002D08BF
:10113800860087012C0881002E08013EA00000309F
:101148002F3DA10094317F2488312000AC0027086E
:10115800860087012C0881002E08023EA00000307E
:101168002F3DA10094317F2488312000AC0028084D
:10117800860087012C0881002E08033EA00000305D
:101188002F3DA10094317F2488312000AC0029082C
:10119800860087012C0881002E08043EA00000303C
:1011A8002F3DA10094317F2488312000AC002A080B
:1011B800860087012C088100080041302000A80023
:1011C800EE30890BE528A80BE52800003030973170
:1011D800AD27883134309731AD278831A630890B57
:1011E800F328003230309731AD278831073020009E
:1011F800A8007D30890BFE28A80BFE2830309731D7
:10120800AD27883134309731AD278831A630890B26
:101218000B29003230309731AD2788312130890BC6
:101228001329000030309731AD2788313430973199
:10123800AD278831A630890B1F290032303097310D
:10124800AD2788312130890B2729000020309731BC
:10125800AD27883124309731AD278831A630890BE6
:101268003329003220309731AD27883107302000EC
:10127800A8007D30890B3E29A80B3E292000A20139
:1012880028308B31E72388312000A20106308B31CA
:10129800E72388312000A2010F308B31E723883102
:1012A8002000A20101308B31E72388310330200070
:1012B800A8009730890B5E29A80B5E290032080028
:1012C8002030F0000030F10094314B248931F400D3
:1012D8007408F7002130F0000030F10094314B24FD
:1012E8008931F4007408F8002230F0000030F10071
:1012F80094314B248931F4007408F9003B307902A9
:101308000318872988298D290130F4007408F90702
:10131800A8293B307802031892299329992901308A
:10132800F4007408F807F901A829173077020318A0
:101338009E299F29A5290130F4007408F707F801B0
:101348009729F701F801F9012030F0000030F10089
:101358007708F4007408F200953175258931213039
:10136800F0000030F1007808F4007408F2009531BC
:10137800752589312230F0000030F1007908F40039
:101388007408F20095317525893120008C1BCD2910
:10139800CE29D0299617D1299613003094319F244D
:1013A80089317108F6007008F50002307602FE30C7
:1013B800031975020318E129E229EB2900307602A6
:1013C800FF30031975020318EA29EB29EE292000DA
:1013D8001616F02920001612080001302000A0007F
:1013E800AA30A100AA30A4002408A2009631382609
:1013F800893102302000A000AA30A1000A30A400E0
:101408002408A20096313826893103302000A00034
:10141800AA30A100A2019631382689310430200073
:10142800A000AA30A100A2019631382689310530E2
:101438002000A000AA30A100A201963138268931E7
:1014480006302000A000AA30A1000530A40024081E
:10145800A20096313826893107302000A000AA3032
:10146800A1000330A4002408A2009631382689314F
:1014780008302000A000AA30A1001930A4002408D8
:10148800A20096313826893109302000A000AA3000
:10149800A1000230A4002408A20096313826893120
:1014A8000A302000A000AA30A100A20196313826F7
:1014B80089310B302000A000AA30A1000C30A40014
:1014C8002408A2009631382689310C302000A0006B
:1014D800AA30A100A2019631382689310D302000AA
:1014E800A000AA30A100E330A4002408A20096318D
:1014F8003826893108002000B301B401AC01AD01E0
:10150800892A0130A6070030A73DB201B20A260891
:101518008400270885001200203A0319942A952A86
:10152800AA2A26088400270885000008F73EA80094
:10153800FF3003180030A9000030290205300319D4
:101548002802031CA82AA92AAA2AB2013208A8003C
:10155800A9012808AE002908AF002E082F04031D92
:10156800B62AB72A852AC12A0130AC000030AD005E
:101578000130A6070030A73DF52A26088400270871
:1015880085000008A800A9012908003A0319CD2AF6
:10159800F52A28082B3A0319BC2A063A0319B82A4F
:1015A800F52A26088400270885000008A8003408C2
:1015B800A1003308A0000A30A2000030A300953132
:1015C800B2258A3120002108AA0028082002A90093
:1015D800031CAA032908303EB30000302A3DB4009A
:1015E800BC2A26088400270885000008D03EA800E9
:1015F800FF3003180030A900003029020A3003190F
:101608002802031C082B0A2B01300B2B0030AA00E0
:10161800AB012A08B0002B08B10030083104031DC3
:10162800162B172BD52A2C082D04031D1C2B1D2B1C
:10163800292B3309A8003409A900A80A0319A90A03
:101648002808A6002908A7002D2B3408A70033086E
:10165800A60008002000AF000130A000AA30A100B9
:1016680094317F248B312000AE002F08860087013B
:101678002E0881000230A000AA30A10094317F24F6
:101688008B312000AE002208860087012E088100D9
:101698000330A000AA30A10094317F248B312000B0
:1016A800AE002308860087012E0881000430A000C0
:1016B800AA30A10094317F248B312000AE00240889
:1016C800860087012E0881000530A000AA30A100FD
:1016D80094317F248B312000AE00250886008701D5
:1016E8002E0881000630A000AA30A10094317F2482
:1016F8008B312000AE002608860087012E08810065
:101708000730A000AA30A10094317F248B3120003B
:10171800AE002708860087012E0881000830A00047
:10172800AA30A10094317F248B312000AE00280814
:10173800860087012E0881000930A000AA30A10088
:1017480094317F248B312000AE0029088600870160
:101758002E0881000A30A000AA30A10094317F240D
:101768008B312000AE002A08860087012E088100F0
:101778000B30A000AA30A10094317F248B312000C7
:10178800AE002B08860087012E0881000C30A000CF
:10179800AA30A10094317F248B312000AE002C08A0
:1017A800860087012E0881000D30A000AA30A10014
:1017B80094317F248B312000AE002D0886008701EC
:1017C8002E08810008002000A5002508F039A30094
:1017D8002308A6002508A3000330A335FF3E031DF8
:1017E800F12B2335F039A4002408A70023000F0C9F
:1017F800890C01392000A300230011081F3920009B
:101808002304031D082C092CFA2B2300111411188A
:101818000E2C0F2C0B2C23000F0C890C01392000E7
:10182800A300230011081F3920002304031D1D2CC9
:101838001E2C0F2C4E3088312D208B3123000F0C9D
:10184800890C01392000A300230011081F3920004A
:101858002304031D302C312C222C2608220408389E
:1018680088312D208B3123000F0C890C0139200081
:10187800A300230011081F3920002304031D452C51
:10188800462C372C260822040C3888312D208B3121
:1018980023000F0C890C01392000A3002300110834
:1018A8001F3920002304031D5A2C5B2C4C2C0000EC
:1018B800200026082204083888312D208B31230087
:1018C8000F0C890C01392000A300230011081F39CF
:1018D80020002304031D712C722C632C270822047A
:1018E800083888312D208B3123000F0C890C0139E1
:1018F8002000A300230011081F3920002304031D22
:10190800862C872C782C270822040C3888312D2027
:101918008B3123000F0C890C01392000A300230010
:1019280011081F3920002304031D9B2C9C2C8D2C8F
:101938000000200027082204083888312D208B3128
:1019480023000F0C890C01392000A3002300110883
:101958001F3920002304031DB22CB32CA42C230010
:1019680011151119B82CB92CB52C1030890BBA2CBB
:10197800003208002000B2012830860000308700BD
:10198800473FB000B01FC92CCA2CEC2C2000A80976
:10199800A909AA09AB09AC09AD09AE09AF09A80A9A
:1019A800031DE92CA90A031DE92CAA0A031DE92C29
:1019B800AB0A031DE92CAC0A031DE92CAD0A031D73
:1019C800E92CAE0A031DE92CAF0A2000B201B20AC5
:1019D8002030860000308700473F2000B000B01F4D
:1019E800F62CF72C162D2000A009A109A209A3099D
:1019F800A409A509A609A709A00A031D162DA10A6D
:101A0800031D162DA20A031D162DA30A031D162D4C
:101A1800A40A031D162DA50A031D162DA60A031DCB
:101A2800162DA70A200020082104220423042404D8
:101A38002504260427040319222D232D762DB10110
:101A4800B10A322DA035A10DA20DA30DA40DA50D2F
:101A5800A60DA70D0130B0003008B107A71F352D1E
:101A6800362D262D27082F02031D542D26082E0259
:101A7800031D542D25082D02031D542D24082C0266
:101A8800031D542D23082B02031D542D22082A025E
:101A9800031D542D21082902031D542D2008280256
:101AA800031C572D582D682D2008A8022108A93B92
:101AB8002208AA3B2308AB3B2408AC3B2508AD3BD6
:101AC8002608AE3B2708AF3BA736A60CA50CA40CEE
:101AD800A30CA20CA10CA00C0130B102031D752DA2
:101AE800762D362D320803197A2D7B2D992DA809CC
:101AF800A909AA09AB09AC09AD09AE09AF09A80A39
:101B0800031D992DA90A031D992DAA0A031D992DB4
:101B1800AB0A031D992DAC0A031D992DAD0A031DAF
:101B2800992DAE0A031D992DAF0A20002808A000A0
:101B38002908A1002A08A2002B08A3002C08A40049
:101B48002D08A5002E08A6002F08A70008002000D1
:101B5800B2012030860000308700473FB000B01F38
:101B6800B62DB72DD92D2000A009A109A209A309D6
:101B7800A409A509A609A709A00A031DD62DA10A2B
:101B8800031DD62DA20A031DD62DA30A031DD62D8B
:101B9800A40A031DD62DA50A031DD62DA60A031DCA
:101BA800D62DA70A2000B201B20A283086000030DC
:101BB8008700473F2000B000B01FE32DE42D082E1A
:101BC8002000A809A909AA09AB09AC09AD09AE0901
:101BD800AF09A80A031D032EA90A031D032EAA0A8A
:101BE800031D032EAB0A031D032EAC0A031D032E8F
:101BF800AD0A031D032EAE0A031D032EAF0A0130E2
:101C08002000B0003008B20633308600003087006C
:101C180008302000B00000301E00B00B102E200845
:101C28002104220423042404250426042704031978
:101C38001E2E1F2E7B2EB101B10A2E2EA035A10D0E
:101C4800A20DA30DA40DA50DA60DA70D0130B00082
:101C58003008B107A71F312E322E222EB335B40D0E
:101C6800B50DB60DB70DB80DB90DBA0D27082F0271
:101C7800031D582E26082E02031D582E25082D0256
:101C8800031D582E24082C02031D582E23082B024E
:101C9800031D582E22082A02031D582E2108290246
:101CA800031D582E20082802031C5B2E5C2E6D2E67
:101CB8002008A8022108A93B2208AA3B2308AB3B1D
:101CC8002408AC3B2508AD3B2608AE3B2708AF3BB4
:101CD8003314A736A60CA50CA40CA30CA20CA10CBB
:101CE800A00C0130B102031D7A2E7B2E322E320851
:101CF80003197F2E802E9E2EB309B409B509B609A3
:101D0800B709B809B909BA09B30A031D9E2EB40A5E
:101D1800031D9E2EB50A031D9E2EB60A031D9E2E78
:101D2800B70A031D9E2EB80A031D9E2EB90A031D6D
:101D38009E2EBA0A20003308A0003408A1003508F6
:101D4800A2003608A3003708A4003808A5003908FF
:101D5800A6003A08A700080023000F0C890C0139D7
:101D68002000A200230011081F3920002204031DAF
:101D7800BE2EBF2EB02E230011141118C42EC52E4E
:101D8800C12E23000F0C890C01392000A20023006A
:101D980011081F3920002204031DD32ED42EC52E6E
:101DA8009A3088312D208E3123000F0C890C01398F
:101DB8002000A200230011081F3920002204031D5F
:101DC800E62EE72ED82E013088312D208E312300C3
:101DD8000F0C890C01392000A200230011081F39BB
:101DE80020002204031DF92EFA2EEB2E2300911455
:101DF8009118FF2E002FFC2E23000F0C890C01399F
:101E08002000A200230011081F3920002204031D0E
:101E18000E2F0F2F002F9B3088312D208E3123005D
:101E28000F0C890C01392000A200230011081F396A
:101E380020002204031D212F222F132F95319325D3
:101E48008E312000A2002208A30023000F0C890C69
:101E580001392000A200230011081F3920002204A4
:101E6800031D372F382F292F230091161116111A09
:101E78003E2F3F2F3B2F23000F0C890C01392000E8
:101E8800A200230011081F3920002204031D4D2F32
:101E98004E2F3F2F230011151119532F542F502F58
:101EA8002000231F582F592FB02E23000F0C890C08
:101EB80001392000A200230011081F392000220444
:101EC800031D672F682F592F2300111411186D2F28
:101ED8006E2F6A2F23000F0C890C01392000A200F5
:101EE800230011081F3920002204031D7C2F7D2F99
:101EF8006E2F9A3088312D208E3123000F0C890CDB
:101F080001392000A200230011081F3920002204F3
:101F1800031D8F2F902F812F003088312D208E3177
:101F280023000F0C890C01392000A200230011089E
:101F38001F3920002204031DA22FA32F942F230052
:101F480091149118A82FA92FA52F23000F0C890CE5
:101F580001392000A200230011081F3920002204A3
:101F6800031DB72FB82FA92F9B3088312D208E3114
:101F780023000F0C890C01392000A200230011084E
:101F88001F3920002204031DCA2FCB2FBC2F9531E7
:101F980093258E312000A2002208A30023000F0CF5
:101FA800890C01392000A200230011081F392000E4
:101FB8002204031DE02FE12FD22F230091161116C2
:101FC800111AE72FE82FE42F23000F0C890C013991
:101FD8002000A200230011081F3920002204031D3D
:101FE800F62FF72FE82F230011151119FC2FFD2FBD
:081FF800F92F20002308080066
:10280A00640080010131890B062C00342000A800E5
:10281A00A20128088B31E723943108002F00960182
:10282A009701980199019A019B0108002000A800CC
:10283A00A201A20A28088B31E723943108006230EA
:10284A0031008D008F01910102309300920108003E
:10285A00200021082200E000200020082200DF00DA
:10286A000800803023008F00083090009101033067
:10287A008D009012080020000D1A442C452C4A2C79
:10288A000C1F482C492C4A2C1613080071083000DA
:10289A009B0070089A001E171E14000000003000EA
:1028AA001C08080022005F08600403195D2C5E2CD6
:1028BA00632C60088A005F080A009431080080309F
:1028CA0023008F0008309000910103308D0090168C
:1028DA0020009315131608002E001010220062081B
:1028EA00F1006108F00094318E2494319431572418
:1028FA00943108002000210830009B0020002008A5
:10290A0030009A001E171E140000000030001C0838
:10291A00080024000E1D922C932C9A2C0E1071087C
:10292A008D0070088C000E149E2C71088D007008A2
:10293A008C000800F200720821009E0093171313FE
:10294A001314000021001318AB2CAC2CA72C0D0873
:10295A00F1000C08F000080000308431BB249431E7
:10296A0080390319B92CBA2CC02C01302000A700D9
:10297A000030A800C32C2000A701A8010800943148
:10298A00132494319431362494319631C8269431E3
:10299A009431242494319431D72494319531D22519
:1029AA009431080022008E018F0190019101920159
:1029BA0093018D0121009E019B019C0194019501C7
:1029CA00960197019A0199019801843093009D011B
:1029DA00080020002008D03EA200FF30213DA300BD
:1029EA00003023020A3003192202031CFD2CFF2C9B
:1029FA000130002D0030A400A5012408A0002508FC
:102A0A00A10008000C2D2E0894311B2495312000BA
:102A1A002A08AC002908AB00A90A0319AA0A2B083C
:102A2A0084002C0885000008AD002D08AE002E0891
:102A3A00031D202D212D082D08002000A4002408A4
:102A4A00A2002208A3002D2D0130A2002208A4070B
:102A5A0024088600013087000108031D352D362D14
:102A6A00292D23082402A000A101A01BA10308000C
:102A7A002000AB0002302B02031C442D452D4A2DA9
:102A8A00C030AA002A08AC004E2D8030AA002A08BD
:102A9A00AC0029080F392C04AA002A08AC002C081B
:102AAA0094310B249531080020003408803AB5008F
:102ABA0080303502031D632D013033020318662D61
:102ACA00672D742D20003309B5003409B600B50A04
:102ADA000319B60A3508B3003608B400742D080085
:102AEA0000308B1B0130F300710830009B00700826
:102AFA009A0072089C001E171E158B1355309F00F2
:102B0A00AA309F009E149E188B2D8C2D882D1E1185
:102B1A00730C031C8B1303188B1708000F30230048
:102B2A0010052000A0000830200603199D2D9E2DB7
:102B3A00A92D0F30230010052000A0000B3020061D
:102B4A00031DA82DA92DAB2D2300911523000F1CC1
:102B5A00AF2DB02DAB2D0C0808002000A401A50153
:102B6A00201CB82DB92DBD2D2208A4072308A53D88
:102B7A000130A235A30D890BBE2D0130A136A00C60
:102B8A00890BC32D20082104031DCC2DCD2DB52D75
:102B9A002508A1002408A000080024008F01900144
:102BAA000430910086308D00E8308C002E00101021
:102BBA0024000D082200E20024000C082200E10093
:102BCA002E001A1402302000A0000030A100943117
:102BDA002D249531013024008E0008002000A40124
:102BEA00A40A2030200621040319FC2DFD2D0D2EE8
:102BFA002008F73EA200FF30213DA3000030230247
:102C0A00053003192202031C0B2E0C2E0D2EA401D3
:102C1A002408A200A3012208A0002308A10008009A
:102C2A002100B000A830AE002E08AF003008AE0078
:102C3A002E08B100B201B301B401B5012708A10001
:102C4A002608A000AF30AE002E08A200B13096319F
:102C5A005C269631210032083007AE002E08860025
:102C6A0087018101080000308B1B01302000A3007E
:102C7A00210830009B002000200830009A00200024
:102C8A00220830009C001E171E158B1355309F001A
:102C9A00AA309F009E149E18532E542E502E1E1199
:102CAA002000230C031C8B1303188B170800210028
:102CBA00A3002108A5002008A4002200BD01BE012E
:102CCA007E2EA4302000EE006E08D90021002208D2
:102CDA002000EF006F08DA002100230883311D234A
:102CEA009631200059082200BD0720005A08220008
:102CFA00BE3D210024088400250885001200031D1A
:102D0A00872E882E662E22003E082100A10022006E
:102D1A003D082100A00008002000A400AD2E0130CB
:102D2A00A500AB30A600C32E0730A500AB30A60025
:102D3A00C32E0D30A500AB30A600C32E1330A5005C
:102D4A00AB30A600C32E1330A500BB30A600C32E9D
:102D5A002408A200A3012308003A0319B52EA82EBD
:102D6A002208643A0319942E013A0319992E033A58
:102D7A0003199E2E013A0319A32EA82E2608A10094
:102D8A002508A000080020009A01990196019701E0
:102D9A009801073095000F309100FF309200FF3004
:102DAA009300FF309400FF303E00D900C730CE00B8
:102DBA00EF30C3000730E4000F30B800DA01E50154
:102DCA00C401B901CF01E601BA01C501D001DB0195
:102DDA00FF30BB00FF30C600FF30D100FF30DC00FF
:102DEA000730E700FF30BC00FF30C700FF30D200D9
:102DFA00FF30DD000730E80013303D00C500143015
:102E0A003E00A3001530A40014303D00C60008009F
:102E1A002000AD002B089631912697312000210819
:102E2A00AF002008AE002F08A1002E08A0002D0830
:102E3A00AC002C08A20096313826973120002E08C3
:102E4A00013EA00000302F3DA1002708AC002C084D
:102E5A00A20096313826973120002E08023EA000A3
:102E6A0000302F3DA1002808AC002C08A2009631A2
:102E7A003826973120002E08033EA00000302F3D4F
:102E8A00A1002908AC002C08A200963138269731F7
:102E9A0020002E08043EA00000302F3DA1002A0881
:102EAA00AC002C08A2009631382697310800200081
:102EBA0022080319612F622F672F2208031D662F2C
:102ECA00672F6C2F2008803103209731AC2F2208FE
:102EDA00033E86008701160001040319752F762F19
:102EEA00932F2208033E86008701403FA300413FFB
:102EFA00A400220A86008701403FA500413FA600A0
:102F0A002608803AA7002408803A2702031D8F2F3B
:102F1A00230825020318922F932FAC2F2000200894
:102F2A00A300220886008701220A8400850100087E
:102F3A000107A40024088600870123088100220AC9
:102F4A00860087010130810741310318810A080090
:102F5A002000A30023000F0C890C01392000A200D5
:102F6A00230011081F3920002204031DBD2FBE2F84
:102F7A00AF2F230011141118C32FC42FC02F230001
:102F8A000F0C890C01392000A200230011081F39F7
:102F9A0020002204031DD22FD32FC42F4E30883194
:102FAA002D20973123000F0C890C01392000A20033
:102FBA00230011081F3920002204031DE52FE62FE4
:102FCA00D72F230888312D20973123000F0C890C25
:102FDA0001392000A200230011081F392000220411
:102FEA00031DF82FF92FEA2F230011151119FE2FAF
:102FFA00FF2FFB2F08000034003400340034003463
:10300A000034003400340034003400340034003416
:10301A000034003400340034003400340034003406
:10302A0000340034003400340034003400340034F6
:10303A0000340034003425343034323464343A34C1
:10304A0025343034323464343A342534303432342A
:10305A0064342034203420342034203420340034A2
:10306A0025343034323464343A342534303432340A
:10307A0064343A34253430343234643420342034DD
:10308A00203420342034003425343034323464344B
:10309A003A3425343034323464343A3425343034D2
:1030AA0032346434003469346E34733465347234BF
:1030BA00743420347334653463346F346E34643456
:1030CA007334003469346E3473346534723474344E
:1030DA0020346D3469346E34753474346534733421
:1030EA00003469346E347334653472347434203481
:1030FA0068346F34753472347334003425343034A0
:10310A003234643420344334003453345434523423
:02311A0000347F
:020000040001F9
:0A000E00EC3FFF3F9F3FFF3FFF3F25
:00000001FF
>>>>>>> Stashed changes
