<<<<<<< Updated upstream
:04000000803118280B
:100008007E1480310B1F09280A2816282E001A1C76
:100018000E280F281628101C122813281628843199
:100028001A2480317E10090080311A28503084004B
:10003800003085001D308431592480317E10200025
:100048008031DF282000AF009930A0007030A10077
:100058008331FD2380312000AE002F088600870100
:100068002E088100A130A0007030A1008331FD234B
:1000780080312000AE002208860087012E0881000A
:10008800A330A0007030A1008331FD23803120000F
:10009800AE002308860087012E088100AB30A0003F
:1000A8007030A1008331FD2380312000AE00240888
:1000B800860087012E088100AD30A0007030A100B5
:1000C8008331FD2380312000AE002508860087019A
:1000D8002E088100B530A0007030A1008331FD23C7
:1000E80080312000AE002608860087012E08810096
:1000F800B730A0007030A1008331FD23803120008B
:10010800AE002708860087012E088100BF30A000B6
:100118007030A1008331FD2380312000AE00280813
:10012800860087012E088100C130A0007030A10030
:100138008331FD2380312000AE0029088600870125
:100148002E088100C930A0007030A1008331FD2342
:1001580080312000AE002A08860087012E08810021
:10016800CB30A0007030A1008331FD238031200006
:10017800AE002B08860087012E088100D330A0002E
:100188007030A1008331FD2380312000AE002C089F
:10019800860087012E088100D530A0007030A100AC
:1001A8008331FD2380312000AE002D0886008701B1
:1001B8002E0881000800FF302000BC000030BD0080
:1001C8008331C72380318B170B1726302000A000FE
:1001D8000330A10084315F24803120001617843158
:1001E8000D24803181317321803150302000B000DE
:1001F8003008A7004530B1003108A8004030B200EF
:100208003208A9003530B3003308AA006530B400BD
:100218003408AB00553082315B228031843133247D
:1002280080313F302000B0003008A7004030B100D6
:100238003108A8004130B2003208A9004230B300AA
:100248003308AA006530B4003408AB003E30823170
:100258000122803144302000B0003008A20045302F
:10026800B1003108A3004630B2003208A40047307C
:10027800B3003308A5004830B4003408A60049305C
:10028800B5003508A7004A30B6003608A8004B303C
:10029800B7003708A9004C30B8003808AA004D301C
:1002A800B9003908AB004E30BA003A08AC004F30FC
:1002B800BB003B08AD00433080312620803103303D
:1002C8002000B1008A30B0005530890B6929B00B85
:1002D8006929B10B6929003212298031182899300F
:1002E8002000A0007030A100AA30A4002408A200B9
:1002F80083314E238131A1302000A0007030A1004D
:100308000A30A4002408A20083314E238131A3308F
:100318002000A0007030A100A20183314E2381315A
:10032800AB302000A0007030A100A20183314E2321
:100338008131AD302000A0007030A100A2018331CE
:100348004E238131B5302000A0007030A100053067
:10035800A4002408A20083314E238131B730200045
:10036800A0007030A1000330A4002408A20083314B
:100378004E238131BF302000A0007030A100193019
:10038800A4002408A20083314E238131C13020000B
:10039800A0007030A1000230A4002408A20083311C
:1003A8004E238131C9302000A0007030A100A20185
:1003B80083314E238131CB302000A0007030A10062
:1003C8000C30A4002408A20083314E238131D3309D
:1003D8002000A0007030A100A20183314E2381319A
:1003E800D5302000A0007030A100E330A40024081C
:1003F800A20083314E23813108002000AD002B0874
:100408008231EF22823120002108AF002008AE009F
:100418002F08A1002E08A0008331FD23823120007F
:10042800AC002D08860087012C0881002E08083EA4
:10043800A00000302F3DA1008331FD238231200030
:10044800AC002708860087012C0881002E080A3E88
:10045800A00000302F3DA1008331FD238231200010
:10046800AC002808860087012C0881002E08123E5F
:10047800A00000302F3DA1008331FD2382312000F0
:10048800AC002908860087012C0881002E08143E3C
:10049800A00000302F3DA1008331FD2382312000D0
:1004A800AC002A08860087012C088100080020007B
:1004B800AD002B088231EF22823120002108AF00E5
:1004C8002008AE002F08A1002E08A0002D08AC00BF
:1004D8002C08A20083314E23823120002E08083ECA
:1004E800A00000302F3DA1002708AC002C08A20076
:1004F80083314E23823120002E080A3EA0000030AE
:100508002F3DA1002808AC002C08A20083314E23FF
:10051800823120002E08123EA00000302F3DA1009D
:100528002908AC002C08A20083314E238231200018
:100538002E08143EA00000302F3DA1002A08AC0070
:100548002C08A20083314E238231080020009A0132
:100558009901960197019801073095000F30910095
:10056800FF309200FF309300FF309400FF303E00D0
:10057800D900C730CE00EF30C3000730E4000F3099
:10058800B800DA01E501C401B901CF01E601BA01F9
:10059800C501D001DB01FF30BB00FF30C600FF30D2
:1005A800D100FF30DC000730E700FF30BC00FF302F
:1005B800C700FF30D200FF30DD000730E8001330FD
:1005C8003D00C50014303E00A3001530A4001430CF
:1005D8003D00C60008002000A4000B2B0030A50039
:1005E8007030A600212B2830A5007030A600212BE2
:1005F8005030A5007030A600212B7830A50070304F
:10060800A600212BFF30A500F030A600212B2408DE
:10061800A200A3012308003A0319132B062B220872
:10062800643A0319F22A013A0319F72A033A03191B
:10063800FC2A013A0319012B062B2608A1002508DC
:10064800A000080020008C1B2A2B2B2B2D2B961783
:100658002E2B961300308331DA2383317108F4008E
:100668007008F30002307402FE3003197302031895
:100678003E2B3F2B482B00307402FF3003197302C6
:100688000318472B482B4B2B200016164D2B200008
:100698001612080000308B1B01302000A30021082F
:1006A80030009B002000200830009A00200022081B
:1006B80030009C001E171E158B1355309F00AA3062
:1006C8009F009E149E18692B6A2B662B1E11200012
:1006D800230C031C8B1303188B17080000340034F9
:1006E8000034003400340034003400340034003462
:1006F8000034003400340034003400340034003452
:100708000034003400340034003400340034003441
:1007180000340034003400340034003424008F01E5
:1007280090010430910086308D00E8308C002E0056
:10073800101024000D08F8000C08F7002E001A14F9
:1007480065302000A0000430A10084315F2483318B
:10075800013024008E00080022008E018F019001D4
:100768009101920193018D0121009E019B019C0141
:1007780094019501960197019A0199019801843095
:1007880093009D01080084315124833184313E2433
:1007980083318231AA2283318431482483318331E1
:1007A800B02383318331922383310800F200720829
:1007B80021009E009317131313140000210013182F
:1007C800E62BE72BE22B0D08F1000C08F0000800DF
:1007D80024000E1DF02BF12BF82B0E1071088D0044
:1007E80070088C000E14FC2B71088D0070088C00AA
:1007F80008002000210830009B002000200830005D
:100808009A001E171E140000000030009E171C08D6
:100818000800803023008F000830900091010330D9
:100828008D00901620009315131608002E00101046
:100838007808F1007708F0008331EC2384318431A3
:100848002724843108007508760403192C2C2D2CD4
:10085800322C76088A0075080A00843108002000C6
:100868000D1A372C382C3D2C0C1F3B2C3C2C3D2CC6
:1008780016130800803023008F0008309000910183
:1008880003308D0090120800623031008D008F0116
:10089800910102309300920108002F009601970100
:1008A800980199019A019B010800640080010131B7
:1008B800890B5A2C003420002108F6002008F50086
:0408C800080008001C
:020000040001F9
:0A000E00EC3FFF3F9F3FFF3FFF3F25
:00000001FF
=======
:1000000080311828080008007E1480310B1F092851
:100010000A2816282E001A1C0E280F281628101C35
:100020001228132816289431712480317E1009007B
:1000300080311A28FA01FB01FC01FD012100ED01CC
:10004000EE0120308400013085003F3094310524DA
:1000500080317E10200080312D28FF302100C20029
:100060000030C3009431C42480318B170B1720005B
:1000700016179431642480318831E12080311030AA
:100080002000A000F030A10055302100B600360855
:100090002000A20096313826803100001030200068
:1000A000A000F030A10094317F248031000089311C
:1000B000F12180313B302100B60036082000A70036
:1000C00011302100B70037082000A80019302100A6
:1000D000B80038082000A90002302100B900390812
:1000E0002000AA0065302100BA003A082000AB00C9
:1000F0000B3097310D2780312100E801E901EA0139
:10010000803094310B24803176302000A900983063
:10011000AA0095310725803102302100B700453013
:10012000B600A930890B9228B60B9228B70B9228FB
:100130000032E0280D1A9D289E28AC2801302100AD
:10014000B6003608E80752302100B6002930890B86
:10015000A728B60BA72800329431B12480312000A3
:1001600027082804031DB528B628AC288030943110
:100170000B24803135302100A6009830A700680894
:10018000B600B7013608A8003708A9006908B8000A
:10019000B9013808AA003908AB006A08BA00BB01E7
:1001A0003A08AC003B08AD00C430963115268031CA
:1001B000C4302000A9000030AA0095310725803105
:1001C00020008E1AE428E5289A28803094310B24E8
:1001D000803167302000A9009830AA0095310725AA
:1001E000803102302100B7004530B600A930890BBC
:1001F000F728B60BF728B70BF728003245290D1A58
:1002000002290329082901302100B6003608E90730
:100210009431B1248031200027082804031D1129BE
:1002200012290829803094310B248031203021009C
:10023000A6009830A7006808B600B7013608A800E5
:100240003708A9006908B800B9013808AA003908B8
:10025000AB006A08BA00BB013A08AC003B08AD002D
:10026000C430963115268031C4302000A9000030FA
:10027000AA0095310725803152302100B60029307F
:10028000890B4029B60B4029003220008E1A4929DB
:100290004A29FF28803094310B24803158302000C7
:1002A000A9009830AA00953107258031023021003D
:1002B000B7004530B600A930890B5C29B60B5C2924
:1002C000B70B5C290032AA290D1A672968296D2904
:1002D00001302100B6003608EA079431B12480319C
:1002E000200027082804031D762977296D298030EE
:1002F00094310B24803120302100A6009830A700D3
:100300006808B600B7013608A8003708A9006908D0
:10031000B800B9013808AA003908AB006A08BA0069
:10032000BB013A08AC003B08AD00C430963115263D
:100330008031C4302000A9000030AA009531072583
:10034000803152302100B6002930890BA529B60B27
:10035000A529003220008E1AAE29AF296429203049
:100360002100EB000030EC006C082000A10021000F
:100370006B082000A00021006808B60036082000A5
:10038000A20096313826803121006B08013E200002
:10039000A000003021006C3D2000A1002100690870
:1003A000B60036082000A2009631382680312100A0
:1003B0006B08023E2000A000003021006C3D2000B0
:1003C000A10021006A08B60036082000A20096317C
:1003D0003826803164302000A0000930A10094311B
:1003E0002D248031943140248031D7302100B60053
:1003F00036082000A700D8302100B70037082000B9
:10040000A800D9302100B80038082000A900DA304F
:100410002100B90039082000AA0065302100BA0087
:100420003A082000AB00D630883187208031DC309C
:100430002100B60036082000A200DD302100B70000
:1004400037082000A300DE302100B8003808200063
:10045000A400DF302100B90039082000A500E030F9
:100460002100BA003A082000A600E1302100BB00BC
:100470003B082000A700E2302100BC003C0820001F
:10048000A800E3302100BD003D082000A900E430B1
:100490002100BE003E082000AA00E5302100BF0078
:1004A0003F082000AB00E6302100C00040082000DB
:1004B000AC00E7302100C10041082000AD00DB3076
:1004C0008B312E23803121006C082000A1002100F7
:1004D0006B082000A00094317F2480312100B600F9
:1004E0003608E8006B08013E2000A0000030210023
:1004F0006C3D2000A10094317F2480312100B600A2
:100500003608E9006B08023E2000A0000030210000
:100510006C3D2000A10094317F2480312100B60081
:100520003608EA008E31B02680312100B600360848
:10053000D500803094310B2480319431B124803146
:10054000200027082804031DA62AA72A9D2A49302F
:100550002100A6009830A7006808B600B701360849
:10056000A8003708A9006908B800B9013808AA002E
:100570003908AB006A08BA00BB013A08AC003B0876
:10058000AD00C430963115268031C4302000A9005A
:100590000030AA009531072580310B302100B600CC
:1005A00036082000A900003095313D258031943176
:1005B000B1248031200027082804031DE02AE12A05
:1005C000D72A8A30A9009830AA00953107258031B2
:1005D000C03094310B24803183302100A600983044
:1005E000A7005508B600B7013608A8003708A900CB
:1005F000C4309631152680319431B12480312000E9
:1006000027082804031D052B062BFC2AC430A9004B
:100610000030AA0095310725803103302100B70052
:100620008A30B6005530890B132BB60B132BB70B42
:10063000132B0032F229803118282000ED005908D0
:1006400086008701403FDB00413FDC005B088400FF
:100650005C0885001200253A031D2F2B302B972CA8
:100660005908860087010130810741310318810A4A
:100670002100ED01EE01FC01FD01FF30FA00FF3029
:10068000FB002000E901EA01802B7C145908860058
:1006900087010130810741310318810A802BFC1446
:1006A000462B7C15462BFC15462B7C16462B013021
:1006B000E9000030EA00802B590886008701403F9E
:1006C000DB00413FDC005B0884005C08850000081B
:1006D000DD00DE015E08003A03196F2B572B5D0821
:1006E000203A0319532B033A0319552B083A0319DF
:1006F000512B063A0319452B1D3A03194F2B572B43
:1007000069086A040319852B862B5C2B7C1C892BBA
:100710008A2B8E2BFD30FC05FF30FD055908860025
:100720008701403FDB00413FDC005B0884005C0840
:10073000850012002A3A031D9E2B9F2BBF2B5908C0
:10074000860087010130810741310318810A5A0868
:100750008600870101088400850102308107003F7F
:100760002100ED00013FEE00EE1FB72BB82B042C4B
:100770007C14ED09EE09ED0A0319EE0A042C590860
:1007800086008701403FA600413FA7008A317F22B3
:100790008331200027082100EE00200026082100D8
:1007A000ED00DA2B590886008701013081074131BD
:1007B0000318810A2000590886008701403FDB00AA
:1007C000413FDC005B0884005C0885000008D03EE7
:1007D000DD00FF3003180030DE0000305E020A301A
:1007E00003195D02031CF52BF72B0130F82B0030A9
:1007F000DF00E0015F08EB006008EC006B086C04B0
:10080000031D032C042CD22B2000590886008701DD
:10081000403FDB00413FDC005B0884005C08850052
:100820001200643A0319152C162C272C590886003F
:100830008701403FDB00413FDC005B0884005C082F
:1008400085001200693A031D262C272C622C5908BA
:10085000860087010130810741310318810A5A0857
:100860008600870101088400850102308107003F6E
:10087000DB00013FDC005B08E1005C08E200890D61
:10088000893B8909E300E400E500E600E700E800B1
:100890006108BB006208BC006308BD006408BE00BC
:1008A0006508BF006608C0006708C1006808C2008C
:1008B0006D0886314626833120003C08DA003B086B
:1008C000D900BA2C590886008701403FDB00413F20
:1008D000DC005B0884005C0885001200253A031DDB
:1008E000722C732C8C2C59088600870101308107EB
:1008F00041310318810A2530A0000030A1006D08A5
:10090000DB005B08A20097315C27833101302000B7
:10091000D9000030DA00BA2C59088600870101306E
:10092000810741310318810AD901DA01BA2C59082B
:1009300086008701403FDB00413FDC005B0884000C
:100940005C0885000008DD00DE015D08A0005E088F
:10095000A1006D08DF005F08A20097315C2783319A
:1009600020005908860087010130810741310318B2
:10097000810A862C08002000A60023000F0C890C99
:1009800001392000A200230011081F392000220491
:10099000031DCB2CCC2CBD2C230011141118D12CF1
:1009A000D22CCE2C23000F0C890C01392000A20080
:1009B000230011081F3920002204031DE02CE12C24
:1009C000D22C4E3088312D20843123000F0C890C1D
:1009D00001392000A200230011081F392000220441
:1009E000031DF32CF42CE52C2608FA3888312D2031
:1009F000843123000F0C890C01392000A200230050
:100A000011081F3920002204031D072D082DF92C81
:100A10002608FE3888312D20843123000F0C890CE4
:100A200001392000A200230011081F3920002204F0
:100A3000031D1B2D1C2D0D2D00002300911491185A
:100A4000222D232D1F2D23000F0C890C013920008E
:100A5000A200230011081F3920002204031D312D9C
:100A6000322D232D4F3088312D20843123000F0C5F
:100A7000890C01392000A200230011081F39200031
:100A80002204031D442D452D362D953193258431A7
:100A90002000A2002208A40023000F0C890C0139B9
:100AA0002000A200230011081F3920002204031D8A
:100AB0005A2D5B2D4C2D230091161116111A612D04
:100AC000622D5E2D91149118662D672D632D2300E4
:100AD0000F0C890C01392000A200230011081F39D6
:100AE00020002204031D752D762D672D4E30883190
:100AF0002D20843123000F0C890C01392000A20025
:100B0000230011081F3920002204031D882D892D80
:100B10007A2D2608FA3888312D20843123000F0CD5
:100B2000890C01392000A200230011081F39200080
:100B30002204031D9C2D9D2D8E2D2608FE38883104
:100B40002D20843123000F0C890C01392000A200D4
:100B5000230011081F3920002204031DB02DB12DE0
:100B6000A22D0000230091149118B72DB82DB42D9B
:100B700023000F0C890C01392000A200230011086A
:100B80001F3920002204031DC62DC72DB82D4F305C
:100B900088312D20843123000F0C890C013920006D
:100BA000A200230011081F3920002204031DD92DA3
:100BB000DA2DCB2D9531932584312000A200220817
:100BC000A50023000F0C890C01392000A20023008E
:100BD00011081F3920002204031DEF2DF02DE12DF7
:100BE000230091161116111AF62DF72DF32D9114DD
:100BF0009118FB2DFC2DF82D23000F0C890C0139C9
:100C00002000A200230011081F3920002204031D28
:100C10000A2E0B2EFC2D4E3088312D2084312300DE
:100C20000F0C890C01392000A200230011081F3984
:100C300020002204031D1D2E1E2E0F2E2608FA381A
:100C400088312D20843123000F0C890C01392000BC
:100C5000A200230011081F3920002204031D312E99
:100C6000322E232E230011151119372E382E342E33
:100C700020002508A2000430A236890B3C2E0F303C
:100C80002205A3002408F039230408002000C8002E
:100C90003B08CF003C08D0003D08D1003E08D20000
:100CA0003F08D3004008D4004108D5004208D600D0
:100CB0004F30860000308700473FC300C31B612EC2
:100CC000632E0130642E00302000C400C5014408AA
:100CD000CD004508CE004D084E040319702E712E2C
:100CE0008F2ECF09D009D109D209D309D409D5094A
:100CF000D609CF0A031D8F2ED00A031D8F2ED10ACD
:100D0000031D8F2ED20A031D8F2ED30A031D8F2E93
:100D1000D40A031D8F2ED50A031D8F2ED60AFB1B66
:100D2000922E932E972EFD30FC05FF30FD057B089B
:100D3000803A2000C30080304302031DA12E013001
:100D40007A020318A42EA52EAB2E01302000C90074
:100D50000030CA00B02E7B082000CA007A08C90003
:100D600021006E082000CC0021006D082000CB007F
:100D70004D084E04031DBD2EBE2EC22E7C1DC12E5D
:100D8000C22EC62EFF30CB07FF30CC3D1F30D70020
:100D90000030D8002200DE01362FFF302000D707B8
:100DA000FF30D83D0A30A000A101A201A301A40197
:100DB000A501A601A7014F08A8005008A9005108E5
:100DC000AA005208AB005308AC005408AD00550807
:100DD000AE005608AF008C31BE24863120002108B9
:100DE000B4002008B300953159258631200033081E
:100DF000303EC30057083F3E86000130870043085D
:100E00008100FF30C907FF30CA3DFF30CB07FF30FC
:100E1000CC3D0A30A000A101A201A301A401A501BB
:100E2000A601A7014F08A8005008A9005108AA0070
:100E30005208AB005308AC005408AD005508AE0092
:100E40005608AF008D31AB25863120002008CF0039
:100E50002108D0002208D1002308D2002408D300A2
:100E60002508D4002608D5002708D60020005808F9
:100E7000803AC30080304302031D402F01305702E7
:100E8000031C432F442F702F20004F08500451049F
:100E900052045304540455045604031D502F512F7B
:100EA000CD2E4A08803AC30080304302031D5A2FDA
:100EB0000130490203185D2F5E2FCD2E20004C0813
:100EC000803AC30080304302031D682F01304B027B
:100ED000031C6B2F6C2F702FFC186F2F702FCD2ED3
:100EE00020004D084E04031D762F772F7B2F7C1D8D
:100EF0007A2F7B2F972FFF30D707FF30D83D4D0833
:100F00004E04031D842F852F8A2F2B30C6000030FE
:100F1000C7008E2F2D30C6000030C7004608C30022
:100F200057083F3E8600013087004308810057087C
:100F30003F3EC3004308B0004C08B2004B08B1006C
:100F400048088731AA27863120003108BC003008C4
:100F5000BB0008002000B8007C1CAF2FB02FB82FBA
:100F60003808B3003308A8003008883104208731DE
:100F70002000B21BBC2FBD2FC22F3208B700310892
:100F8000B600C42FB601B701B401B501D82F203087
:100F90002000A0000030A1003808B3003308A200F0
:100FA00097315C27873101302000B4070030B53D10
:100FB0003508803AB3003708803A3302031DE22F28
:100FC00036083402031CE52FE62FC72F7C18E92FC3
:100FD000EA2FF32F20003808B3003308A8003008A8
:100FE000883104208731200030089531222587314F
:100FF000200036082007B0003708213DB100080066
:101008002000AF00AD01AE011C282C08A900AA01E0
:101018002908A0002A08A1002808AB002B08A20074
:1010280097315C27883101302000AD070030AE3D94
:101038002D082F07A900290886000130870001081C
:10104800AA002A08AC002C08031D2B282C280928E4
:1010580008002000A100210823008C00901F3528DB
:101068003628372886280F3010052000A0000830C1
:1010780020060319402841285A280F30230010055C
:101088002000A0000B30200603194B284C285A28B2
:10109800230010162E000F1C522853284E28230018
:1010A8000F195728582886280F0886280F3023003C
:1010B80010052000A00008302006031964286528C0
:1010C80070280F30230010052000A0000B302006E8
:1010D800031D6F287028862823000F187428752888
:1010E800702823000F0C890C01392000A000230070
:1010F80011081F3920002004031D8328842875281F
:101108002300110808002000AD002B089631912615
:10111800883120002108AF002008AE002F08A10068
:101128002E08A00094317F2488312000AC002D08BF
:10113800860087012C0881002E08013EA00000309F
:101148002F3DA10094317F2488312000AC0027086E
:10115800860087012C0881002E08023EA00000307E
:101168002F3DA10094317F2488312000AC0028084D
:10117800860087012C0881002E08033EA00000305D
:101188002F3DA10094317F2488312000AC0029082C
:10119800860087012C0881002E08043EA00000303C
:1011A8002F3DA10094317F2488312000AC002A080B
:1011B800860087012C088100080041302000A80023
:1011C800EE30890BE528A80BE52800003030973170
:1011D800AD27883134309731AD278831A630890B57
:1011E800F328003230309731AD278831073020009E
:1011F800A8007D30890BFE28A80BFE2830309731D7
:10120800AD27883134309731AD278831A630890B26
:101218000B29003230309731AD2788312130890BC6
:101228001329000030309731AD2788313430973199
:10123800AD278831A630890B1F290032303097310D
:10124800AD2788312130890B2729000020309731BC
:10125800AD27883124309731AD278831A630890BE6
:101268003329003220309731AD27883107302000EC
:10127800A8007D30890B3E29A80B3E292000A20139
:1012880028308B31E72388312000A20106308B31CA
:10129800E72388312000A2010F308B31E723883102
:1012A8002000A20101308B31E72388310330200070
:1012B800A8009730890B5E29A80B5E290032080028
:1012C8002030F0000030F10094314B248931F400D3
:1012D8007408F7002130F0000030F10094314B24FD
:1012E8008931F4007408F8002230F0000030F10071
:1012F80094314B248931F4007408F9003B307902A9
:101308000318872988298D290130F4007408F90702
:10131800A8293B307802031892299329992901308A
:10132800F4007408F807F901A829173077020318A0
:101338009E299F29A5290130F4007408F707F801B0
:101348009729F701F801F9012030F0000030F10089
:101358007708F4007408F200953175258931213039
:10136800F0000030F1007808F4007408F2009531BC
:10137800752589312230F0000030F1007908F40039
:101388007408F20095317525893120008C1BCD2910
:10139800CE29D0299617D1299613003094319F244D
:1013A80089317108F6007008F50002307602FE30C7
:1013B800031975020318E129E229EB2900307602A6
:1013C800FF30031975020318EA29EB29EE292000DA
:1013D8001616F02920001612080001302000A0007F
:1013E800AA30A100AA30A4002408A2009631382609
:1013F800893102302000A000AA30A1000A30A400E0
:101408002408A20096313826893103302000A00034
:10141800AA30A100A2019631382689310430200073
:10142800A000AA30A100A2019631382689310530E2
:101438002000A000AA30A100A201963138268931E7
:1014480006302000A000AA30A1000530A40024081E
:10145800A20096313826893107302000A000AA3032
:10146800A1000330A4002408A2009631382689314F
:1014780008302000A000AA30A1001930A4002408D8
:10148800A20096313826893109302000A000AA3000
:10149800A1000230A4002408A20096313826893120
:1014A8000A302000A000AA30A100A20196313826F7
:1014B80089310B302000A000AA30A1000C30A40014
:1014C8002408A2009631382689310C302000A0006B
:1014D800AA30A100A2019631382689310D302000AA
:1014E800A000AA30A100E330A4002408A20096318D
:1014F8003826893108002000B301B401AC01AD01E0
:10150800892A0130A6070030A73DB201B20A260891
:101518008400270885001200203A0319942A952A86
:10152800AA2A26088400270885000008F73EA80094
:10153800FF3003180030A9000030290205300319D4
:101548002802031CA82AA92AAA2AB2013208A8003C
:10155800A9012808AE002908AF002E082F04031D92
:10156800B62AB72A852AC12A0130AC000030AD005E
:101578000130A6070030A73DF52A26088400270871
:1015880085000008A800A9012908003A0319CD2AF6
:10159800F52A28082B3A0319BC2A063A0319B82A4F
:1015A800F52A26088400270885000008A8003408C2
:1015B800A1003308A0000A30A2000030A300953132
:1015C800B2258A3120002108AA0028082002A90093
:1015D800031CAA032908303EB30000302A3DB4009A
:1015E800BC2A26088400270885000008D03EA800E9
:1015F800FF3003180030A900003029020A3003190F
:101608002802031C082B0A2B01300B2B0030AA00E0
:10161800AB012A08B0002B08B10030083104031DC3
:10162800162B172BD52A2C082D04031D1C2B1D2B1C
:10163800292B3309A8003409A900A80A0319A90A03
:101648002808A6002908A7002D2B3408A70033086E
:10165800A60008002000AF000130A000AA30A100B9
:1016680094317F248B312000AE002F08860087013B
:101678002E0881000230A000AA30A10094317F24F6
:101688008B312000AE002208860087012E088100D9
:101698000330A000AA30A10094317F248B312000B0
:1016A800AE002308860087012E0881000430A000C0
:1016B800AA30A10094317F248B312000AE00240889
:1016C800860087012E0881000530A000AA30A100FD
:1016D80094317F248B312000AE00250886008701D5
:1016E8002E0881000630A000AA30A10094317F2482
:1016F8008B312000AE002608860087012E08810065
:101708000730A000AA30A10094317F248B3120003B
:10171800AE002708860087012E0881000830A00047
:10172800AA30A10094317F248B312000AE00280814
:10173800860087012E0881000930A000AA30A10088
:1017480094317F248B312000AE0029088600870160
:101758002E0881000A30A000AA30A10094317F240D
:101768008B312000AE002A08860087012E088100F0
:101778000B30A000AA30A10094317F248B312000C7
:10178800AE002B08860087012E0881000C30A000CF
:10179800AA30A10094317F248B312000AE002C08A0
:1017A800860087012E0881000D30A000AA30A10014
:1017B80094317F248B312000AE002D0886008701EC
:1017C8002E08810008002000A5002508F039A30094
:1017D8002308A6002508A3000330A335FF3E031DF8
:1017E800F12B2335F039A4002408A70023000F0C9F
:1017F800890C01392000A300230011081F3920009B
:101808002304031D082C092CFA2B2300111411188A
:101818000E2C0F2C0B2C23000F0C890C01392000E7
:10182800A300230011081F3920002304031D1D2CC9
:101838001E2C0F2C4E3088312D208B3123000F0C9D
:10184800890C01392000A300230011081F3920004A
:101858002304031D302C312C222C2608220408389E
:1018680088312D208B3123000F0C890C0139200081
:10187800A300230011081F3920002304031D452C51
:10188800462C372C260822040C3888312D208B3121
:1018980023000F0C890C01392000A3002300110834
:1018A8001F3920002304031D5A2C5B2C4C2C0000EC
:1018B800200026082204083888312D208B31230087
:1018C8000F0C890C01392000A300230011081F39CF
:1018D80020002304031D712C722C632C270822047A
:1018E800083888312D208B3123000F0C890C0139E1
:1018F8002000A300230011081F3920002304031D22
:10190800862C872C782C270822040C3888312D2027
:101918008B3123000F0C890C01392000A300230010
:1019280011081F3920002304031D9B2C9C2C8D2C8F
:101938000000200027082204083888312D208B3128
:1019480023000F0C890C01392000A3002300110883
:101958001F3920002304031DB22CB32CA42C230010
:1019680011151119B82CB92CB52C1030890BBA2CBB
:10197800003208002000B2012830860000308700BD
:10198800473FB000B01FC92CCA2CEC2C2000A80976
:10199800A909AA09AB09AC09AD09AE09AF09A80A9A
:1019A800031DE92CA90A031DE92CAA0A031DE92C29
:1019B800AB0A031DE92CAC0A031DE92CAD0A031D73
:1019C800E92CAE0A031DE92CAF0A2000B201B20AC5
:1019D8002030860000308700473F2000B000B01F4D
:1019E800F62CF72C162D2000A009A109A209A3099D
:1019F800A409A509A609A709A00A031D162DA10A6D
:101A0800031D162DA20A031D162DA30A031D162D4C
:101A1800A40A031D162DA50A031D162DA60A031DCB
:101A2800162DA70A200020082104220423042404D8
:101A38002504260427040319222D232D762DB10110
:101A4800B10A322DA035A10DA20DA30DA40DA50D2F
:101A5800A60DA70D0130B0003008B107A71F352D1E
:101A6800362D262D27082F02031D542D26082E0259
:101A7800031D542D25082D02031D542D24082C0266
:101A8800031D542D23082B02031D542D22082A025E
:101A9800031D542D21082902031D542D2008280256
:101AA800031C572D582D682D2008A8022108A93B92
:101AB8002208AA3B2308AB3B2408AC3B2508AD3BD6
:101AC8002608AE3B2708AF3BA736A60CA50CA40CEE
:101AD800A30CA20CA10CA00C0130B102031D752DA2
:101AE800762D362D320803197A2D7B2D992DA809CC
:101AF800A909AA09AB09AC09AD09AE09AF09A80A39
:101B0800031D992DA90A031D992DAA0A031D992DB4
:101B1800AB0A031D992DAC0A031D992DAD0A031DAF
:101B2800992DAE0A031D992DAF0A20002808A000A0
:101B38002908A1002A08A2002B08A3002C08A40049
:101B48002D08A5002E08A6002F08A70008002000D1
:101B5800B2012030860000308700473FB000B01F38
:101B6800B62DB72DD92D2000A009A109A209A309D6
:101B7800A409A509A609A709A00A031DD62DA10A2B
:101B8800031DD62DA20A031DD62DA30A031DD62D8B
:101B9800A40A031DD62DA50A031DD62DA60A031DCA
:101BA800D62DA70A2000B201B20A283086000030DC
:101BB8008700473F2000B000B01FE32DE42D082E1A
:101BC8002000A809A909AA09AB09AC09AD09AE0901
:101BD800AF09A80A031D032EA90A031D032EAA0A8A
:101BE800031D032EAB0A031D032EAC0A031D032E8F
:101BF800AD0A031D032EAE0A031D032EAF0A0130E2
:101C08002000B0003008B20633308600003087006C
:101C180008302000B00000301E00B00B102E200845
:101C28002104220423042404250426042704031978
:101C38001E2E1F2E7B2EB101B10A2E2EA035A10D0E
:101C4800A20DA30DA40DA50DA60DA70D0130B00082
:101C58003008B107A71F312E322E222EB335B40D0E
:101C6800B50DB60DB70DB80DB90DBA0D27082F0271
:101C7800031D582E26082E02031D582E25082D0256
:101C8800031D582E24082C02031D582E23082B024E
:101C9800031D582E22082A02031D582E2108290246
:101CA800031D582E20082802031C5B2E5C2E6D2E67
:101CB8002008A8022108A93B2208AA3B2308AB3B1D
:101CC8002408AC3B2508AD3B2608AE3B2708AF3BB4
:101CD8003314A736A60CA50CA40CA30CA20CA10CBB
:101CE800A00C0130B102031D7A2E7B2E322E320851
:101CF80003197F2E802E9E2EB309B409B509B609A3
:101D0800B709B809B909BA09B30A031D9E2EB40A5E
:101D1800031D9E2EB50A031D9E2EB60A031D9E2E78
:101D2800B70A031D9E2EB80A031D9E2EB90A031D6D
:101D38009E2EBA0A20003308A0003408A1003508F6
:101D4800A2003608A3003708A4003808A5003908FF
:101D5800A6003A08A700080023000F0C890C0139D7
:101D68002000A200230011081F3920002204031DAF
:101D7800BE2EBF2EB02E230011141118C42EC52E4E
:101D8800C12E23000F0C890C01392000A20023006A
:101D980011081F3920002204031DD32ED42EC52E6E
:101DA8009A3088312D208E3123000F0C890C01398F
:101DB8002000A200230011081F3920002204031D5F
:101DC800E62EE72ED82E013088312D208E312300C3
:101DD8000F0C890C01392000A200230011081F39BB
:101DE80020002204031DF92EFA2EEB2E2300911455
:101DF8009118FF2E002FFC2E23000F0C890C01399F
:101E08002000A200230011081F3920002204031D0E
:101E18000E2F0F2F002F9B3088312D208E3123005D
:101E28000F0C890C01392000A200230011081F396A
:101E380020002204031D212F222F132F95319325D3
:101E48008E312000A2002208A30023000F0C890C69
:101E580001392000A200230011081F3920002204A4
:101E6800031D372F382F292F230091161116111A09
:101E78003E2F3F2F3B2F23000F0C890C01392000E8
:101E8800A200230011081F3920002204031D4D2F32
:101E98004E2F3F2F230011151119532F542F502F58
:101EA8002000231F582F592FB02E23000F0C890C08
:101EB80001392000A200230011081F392000220444
:101EC800031D672F682F592F2300111411186D2F28
:101ED8006E2F6A2F23000F0C890C01392000A200F5
:101EE800230011081F3920002204031D7C2F7D2F99
:101EF8006E2F9A3088312D208E3123000F0C890CDB
:101F080001392000A200230011081F3920002204F3
:101F1800031D8F2F902F812F003088312D208E3177
:101F280023000F0C890C01392000A200230011089E
:101F38001F3920002204031DA22FA32F942F230052
:101F480091149118A82FA92FA52F23000F0C890CE5
:101F580001392000A200230011081F3920002204A3
:101F6800031DB72FB82FA92F9B3088312D208E3114
:101F780023000F0C890C01392000A200230011084E
:101F88001F3920002204031DCA2FCB2FBC2F9531E7
:101F980093258E312000A2002208A30023000F0CF5
:101FA800890C01392000A200230011081F392000E4
:101FB8002204031DE02FE12FD22F230091161116C2
:101FC800111AE72FE82FE42F23000F0C890C013991
:101FD8002000A200230011081F3920002204031D3D
:101FE800F62FF72FE82F230011151119FC2FFD2FBD
:081FF800F92F20002308080066
:10280A00640080010131890B062C00342000A800E5
:10281A00A20128088B31E723943108002F00960182
:10282A009701980199019A019B0108002000A800CC
:10283A00A201A20A28088B31E723943108006230EA
:10284A0031008D008F01910102309300920108003E
:10285A00200021082200E000200020082200DF00DA
:10286A000800803023008F00083090009101033067
:10287A008D009012080020000D1A442C452C4A2C79
:10288A000C1F482C492C4A2C1613080071083000DA
:10289A009B0070089A001E171E14000000003000EA
:1028AA001C08080022005F08600403195D2C5E2CD6
:1028BA00632C60088A005F080A009431080080309F
:1028CA0023008F0008309000910103308D0090168C
:1028DA0020009315131608002E001010220062081B
:1028EA00F1006108F00094318E2494319431572418
:1028FA00943108002000210830009B0020002008A5
:10290A0030009A001E171E140000000030001C0838
:10291A00080024000E1D922C932C9A2C0E1071087C
:10292A008D0070088C000E149E2C71088D007008A2
:10293A008C000800F200720821009E0093171313FE
:10294A001314000021001318AB2CAC2CA72C0D0873
:10295A00F1000C08F000080000308431BB249431E7
:10296A0080390319B92CBA2CC02C01302000A700D9
:10297A000030A800C32C2000A701A8010800943148
:10298A00132494319431362494319631C8269431E3
:10299A009431242494319431D72494319531D22519
:1029AA009431080022008E018F0190019101920159
:1029BA0093018D0121009E019B019C0194019501C7
:1029CA00960197019A0199019801843093009D011B
:1029DA00080020002008D03EA200FF30213DA300BD
:1029EA00003023020A3003192202031CFD2CFF2C9B
:1029FA000130002D0030A400A5012408A0002508FC
:102A0A00A10008000C2D2E0894311B2495312000BA
:102A1A002A08AC002908AB00A90A0319AA0A2B083C
:102A2A0084002C0885000008AD002D08AE002E0891
:102A3A00031D202D212D082D08002000A4002408A4
:102A4A00A2002208A3002D2D0130A2002208A4070B
:102A5A0024088600013087000108031D352D362D14
:102A6A00292D23082402A000A101A01BA10308000C
:102A7A002000AB0002302B02031C442D452D4A2DA9
:102A8A00C030AA002A08AC004E2D8030AA002A08BD
:102A9A00AC0029080F392C04AA002A08AC002C081B
:102AAA0094310B249531080020003408803AB5008F
:102ABA0080303502031D632D013033020318662D61
:102ACA00672D742D20003309B5003409B600B50A04
:102ADA000319B60A3508B3003608B400742D080085
:102AEA0000308B1B0130F300710830009B00700826
:102AFA009A0072089C001E171E158B1355309F00F2
:102B0A00AA309F009E149E188B2D8C2D882D1E1185
:102B1A00730C031C8B1303188B1708000F30230048
:102B2A0010052000A0000830200603199D2D9E2DB7
:102B3A00A92D0F30230010052000A0000B3020061D
:102B4A00031DA82DA92DAB2D2300911523000F1CC1
:102B5A00AF2DB02DAB2D0C0808002000A401A50153
:102B6A00201CB82DB92DBD2D2208A4072308A53D88
:102B7A000130A235A30D890BBE2D0130A136A00C60
:102B8A00890BC32D20082104031DCC2DCD2DB52D75
:102B9A002508A1002408A000080024008F01900144
:102BAA000430910086308D00E8308C002E00101021
:102BBA0024000D082200E20024000C082200E10093
:102BCA002E001A1402302000A0000030A100943117
:102BDA002D249531013024008E0008002000A40124
:102BEA00A40A2030200621040319FC2DFD2D0D2EE8
:102BFA002008F73EA200FF30213DA3000030230247
:102C0A00053003192202031C0B2E0C2E0D2EA401D3
:102C1A002408A200A3012208A0002308A10008009A
:102C2A002100B000A830AE002E08AF003008AE0078
:102C3A002E08B100B201B301B401B5012708A10001
:102C4A002608A000AF30AE002E08A200B13096319F
:102C5A005C269631210032083007AE002E08860025
:102C6A0087018101080000308B1B01302000A3007E
:102C7A00210830009B002000200830009A00200024
:102C8A00220830009C001E171E158B1355309F001A
:102C9A00AA309F009E149E18532E542E502E1E1199
:102CAA002000230C031C8B1303188B170800210028
:102CBA00A3002108A5002008A4002200BD01BE012E
:102CCA007E2EA4302000EE006E08D90021002208D2
:102CDA002000EF006F08DA002100230883311D234A
:102CEA009631200059082200BD0720005A08220008
:102CFA00BE3D210024088400250885001200031D1A
:102D0A00872E882E662E22003E082100A10022006E
:102D1A003D082100A00008002000A400AD2E0130CB
:102D2A00A500AB30A600C32E0730A500AB30A60025
:102D3A00C32E0D30A500AB30A600C32E1330A5005C
:102D4A00AB30A600C32E1330A500BB30A600C32E9D
:102D5A002408A200A3012308003A0319B52EA82EBD
:102D6A002208643A0319942E013A0319992E033A58
:102D7A0003199E2E013A0319A32EA82E2608A10094
:102D8A002508A000080020009A01990196019701E0
:102D9A009801073095000F309100FF309200FF3004
:102DAA009300FF309400FF303E00D900C730CE00B8
:102DBA00EF30C3000730E4000F30B800DA01E50154
:102DCA00C401B901CF01E601BA01C501D001DB0195
:102DDA00FF30BB00FF30C600FF30D100FF30DC00FF
:102DEA000730E700FF30BC00FF30C700FF30D200D9
:102DFA00FF30DD000730E80013303D00C500143015
:102E0A003E00A3001530A40014303D00C60008009F
:102E1A002000AD002B089631912697312000210819
:102E2A00AF002008AE002F08A1002E08A0002D0830
:102E3A00AC002C08A20096313826973120002E08C3
:102E4A00013EA00000302F3DA1002708AC002C084D
:102E5A00A20096313826973120002E08023EA000A3
:102E6A0000302F3DA1002808AC002C08A2009631A2
:102E7A003826973120002E08033EA00000302F3D4F
:102E8A00A1002908AC002C08A200963138269731F7
:102E9A0020002E08043EA00000302F3DA1002A0881
:102EAA00AC002C08A2009631382697310800200081
:102EBA0022080319612F622F672F2208031D662F2C
:102ECA00672F6C2F2008803103209731AC2F2208FE
:102EDA00033E86008701160001040319752F762F19
:102EEA00932F2208033E86008701403FA300413FFB
:102EFA00A400220A86008701403FA500413FA600A0
:102F0A002608803AA7002408803A2702031D8F2F3B
:102F1A00230825020318922F932FAC2F2000200894
:102F2A00A300220886008701220A8400850100087E
:102F3A000107A40024088600870123088100220AC9
:102F4A00860087010130810741310318810A080090
:102F5A002000A30023000F0C890C01392000A200D5
:102F6A00230011081F3920002204031DBD2FBE2F84
:102F7A00AF2F230011141118C32FC42FC02F230001
:102F8A000F0C890C01392000A200230011081F39F7
:102F9A0020002204031DD22FD32FC42F4E30883194
:102FAA002D20973123000F0C890C01392000A20033
:102FBA00230011081F3920002204031DE52FE62FE4
:102FCA00D72F230888312D20973123000F0C890C25
:102FDA0001392000A200230011081F392000220411
:102FEA00031DF82FF92FEA2F230011151119FE2FAF
:102FFA00FF2FFB2F08000034003400340034003463
:10300A000034003400340034003400340034003416
:10301A000034003400340034003400340034003406
:10302A0000340034003400340034003400340034F6
:10303A0000340034003425343034323464343A34C1
:10304A0025343034323464343A342534303432342A
:10305A0064342034203420342034203420340034A2
:10306A0025343034323464343A342534303432340A
:10307A0064343A34253430343234643420342034DD
:10308A00203420342034003425343034323464344B
:10309A003A3425343034323464343A3425343034D2
:1030AA0032346434003469346E34733465347234BF
:1030BA00743420347334653463346F346E34643456
:1030CA007334003469346E3473346534723474344E
:1030DA0020346D3469346E34753474346534733421
:1030EA00003469346E347334653472347434203481
:1030FA0068346F34753472347334003425343034A0
:10310A003234643420344334003453345434523423
:02311A0000347F
:020000040001F9
:0A000E00EC3FFF3F9F3FFF3FFF3F25
:00000001FF
>>>>>>> Stashed changes
