:1000000080312528080008007E1480310B1F092844
:100010000A2823282E009A1C0E280F281728901C27
:100020001228132817289131D421803123281A1C33
:100030001A281B282328101C1E281F282328923129
:100040005922803123287E10090080312728FC01A5
:10005000FD01D43084000030850018309131DA2160
:10006000803120308400013085003F309131DA2129
:1000700080317E10200080313D2893311023803163
:100080008B170B17FD01FC012100DE01FF30B600CC
:1000900036082200E7002100DD01FF30B6003608F7
:1000A000EF002200E601E60AFF302100B600360824
:1000B000EE00FF30B60036082200E5002100DB012B
:1000C0000030EC007030ED0092313F2280318831F9
:1000D0002820803192314C2280318831AB20803110
:1000E0009431D024803150302100B60036082000F1
:1000F000A70045302100B70037082000A800403095
:100100002100B80038082000A90035302100B900CE
:1001100039082000AA0065302100BA003A08200002
:10012000AB0055309531F725803180309131E72192
:10013000803176302000A9009830AA0093317623D0
:10014000803102302100B7004530B600A930890B5C
:10015000A728B60BA728B70BA7280032F5280D1A39
:10016000B228B328C12801302100B6003608FD07A7
:1001700052302100B6002930890BBC28B60BBC28B0
:1001800000329231B9228031200027082804031D53
:10019000CA28CB28C12880309131E7218031353001
:1001A0002100A6009830A7007D08B600B7013608E8
:1001B000A8003708A9007C08B800B9013808AA00CF
:1001C0003908AB005E08BA00BB013A08AC003B0836
:1001D000AD00C230943184248031C2302000A900A7
:1001E0000030AA0093317623803120008E1AF9283E
:1001F000FA28AF2880309131E72180316730200024
:10020000A9009830AA009331762380310230210072
:10021000B7004530B600A930890B0C29B60B0C2964
:10022000B70B0C2900325A290D1A172918291D2934
:1002300001302100B6003608FC079231B922803126
:10024000200027082804031D262927291D2980307E
:100250009131E721803120302100A6009830A7009D
:100260007D08B600B7013608A8003708A9007C0849
:10027000B800B9013808AA003908AB005E08BA0016
:10028000BB013A08AC003B08AD00C2309431842475
:100290008031C2302000A9000030AA0093317623BB
:1002A000803152302100B6002930890B5529B60B18
:1002B0005529003220008E1A5E295F2914298030CA
:1002C0009131E721803158302000A9009830AA00F0
:1002D00093317623803102302100B7004530B600DB
:1002E000A930890B7129B60B7129B70B712900321E
:1002F000BF290D1A7C297D29822901302100B600F1
:100300003608DE079231B922803120002708280400
:10031000031D8B298C29822980309131E72180317E
:1003200020302100A6009830A7007D08B600B70154
:100330003608A8003708A9007C08B800B9013808B9
:10034000AA003908AB005E08BA00BB013A08AC004D
:100350003B08AD00C230943184248031C23020008B
:10036000A9000030AA009331762380315230210059
:10037000B6002930890BBA29B60BBA290032200001
:100380008E1AC329C4297929AC30A0000B30A100F2
:10039000923109228031EA302100B600360820006F
:1003A000A200E9302100B70037082000A300E830A0
:1003B0002100B80038082000A400E7302100B9006F
:1003C00039082000A500E6302100BA003A082000D4
:1003D000A600E5302100BB003B082000A700E43068
:1003E0002100BC003C082000A800E3302100BD0033
:1003F0003D082000A900E2302100BE003E08200098
:10040000AA00E1302100BF003F082000AB00E0302F
:100410002100C00040082000AC00DF302100C100F6
:1004200041082000AD00EB308731432780318E3109
:10043000B02680312100B6003608D30080309131DB
:10044000E72180319231B922803120002708280429
:10045000031D2B2A2C2A222A49302100A60098307D
:10046000A7007D08B600B7013608A8003708A90024
:100470007C08B800B9013808AA003908AB005E084A
:10048000BA00BB013A08AC003B08AD00C230943161
:1004900084248031C2302000A9000030AA009331AA
:1004A000762380310B302100B60036082000A900E9
:1004B00000309331AC2380319231B9228031200059
:1004C00027082804031D652A662A5C2A8A30A900A9
:1004D0009830AA00933176238031C0309131E721E2
:1004E000803183302100A6009830A7005308B60061
:1004F000B7013608A8003708A900C2309431842417
:1005000080319231B9228031200027082804031D50
:100510008A2A8B2A812AC230A9000030AA0093318E
:100520007623803103302100B7008A30B600553081
:10053000890B982AB60B982AB70B982A0032CB2938
:10054000803125282000ED00590886008701403FB2
:10055000DB00413FDC005B0884005C088500120082
:10056000253A031DB42AB52A242C59088600870190
:100570000130810741310318810A2100D401D501DE
:10058000D801D901FF30D600FF30D7002000E901A3
:10059000EA010B2B2100581420005908860087011E
:1005A0000130810741310318810A0B2B2100D81437
:1005B000CC2A21005815CC2A2100D815CC2A21009C
:1005C0005816CC2A0130E9000030EA000B2B5908FC
:1005D00086008701403FDB00413FDC005B08840070
:1005E0005C0885000008DD00DE015E08003A0319A2
:1005F000FA2AE22A5D08203A0319DC2A033A031991
:10060000DF2A083A0319D92A063A0319CA2A1D3AD9
:100610000319D62AE22A69086A040319102B112B40
:10062000E72A2100581C152B162B1A2BFD30D80554
:10063000FF30D9052000590886008701403FDB00C4
:10064000413FDC005B0884005C08850012002A3A08
:10065000031D2B2B2C2B4C2B5908860087010130B6
:10066000810741310318810A5A0886008701010871
:100670008400850102308107003F2100D400013F42
:10068000D500D51F442B452B912B5814D409D509DF
:10069000D40A0319D50A912B590886008701403FD7
:1006A000A600413FA7008931392182312000270867
:1006B0002100D500200026082100D400672B59080E
:1006C000860087010130810741310318810A20002B
:1006D000590886008701403FDB00413FDC005B0892
:1006E00084005C0885000008D03EDD00FF30031860
:1006F0000030DE0000305E020A3003195D02031C88
:10070000822B842B0130852B0030DF00E0015F0855
:10071000EB006008EC006B086C04031D902B912B20
:100720005F2B2000590886008701403FDB00413FD6
:10073000DC005B0884005C0885001200643A031941
:10074000A22BA32BB42B590886008701403FDB0066
:10075000413FDC005B0884005C0885001200693AB8
:10076000031DB32BB42BEF2B5908860087010130F2
:10077000810741310318810A5A0886008701010860
:100780008400850102308107003FDB00013FDC006F
:100790005B08E1005C08E200890D893B8909E30000
:1007A000E400E500E600E700E8006108BB0062083D
:1007B000BC006308BD006408BE006508BF00660891
:1007C000C0006708C1006808C2006D088531D325E4
:1007D000823120003C08DA003B08D900472C590838
:1007E00086008701403FDB00413FDC005B0884005E
:1007F0005C0885001200253A031DFF2B002C192CE4
:100800005908860087010130810741310318810AA8
:100810002530A0000030A1006D08DB005B08A200BD
:1008200096314626823101302000D9000030DA00AE
:10083000472C590886008701013081074131031890
:10084000810AD901DA01472C590886008701403F07
:10085000DB00413FDC005B0884005C088500000889
:10086000DD00DE015D08A0005E08A1006D08DF006C
:100870005F08A20096314626823120005908860082
:1008800087010130810741310318810A132C0800C8
:100890002000A60023000F0C890C01392000A200C3
:1008A000230011081F3920002204031D582C592C45
:1008B0004A2C2300111411185E2C5F2C5B2C230092
:1008C0000F0C890C01392000A200230011081F39E8
:1008D00020002204031D6D2C6E2C5F2C4E309731AE
:1008E0004327843123000F0C890C01392000A2001A
:1008F000230011081F3920002204031D802C812CA5
:10090000722C2608FA3897314327843123000F0CC4
:10091000890C01392000A200230011081F39200092
:100920002204031D942C952C862C2608FE38973122
:100930004327843123000F0C890C01392000A200C9
:10094000230011081F3920002204031DA82CA92C04
:100950009A2C0000230091149118AF2CB02CAC2CD1
:1009600023000F0C890C01392000A200230011087C
:100970001F3920002204031DBE2CBF2CB02C4F3089
:1009800097314327843123000F0C890C0139200053
:10099000A200230011081F3920002204031DD12CBE
:1009A000D22CC32C9431022484312000A2002208CE
:1009B000A40023000F0C890C01392000A2002300A1
:1009C00011081F3920002204031DE72CE82CD92C24
:1009D000230091161116111AEE2CEF2CEB2C91140A
:1009E0009118F32CF42CF02C23000F0C890C0139F6
:1009F0002000A200230011081F3920002204031D3B
:100A0000022D032DF42C4E309731432784312300DF
:100A10000F0C890C01392000A200230011081F3996
:100A200020002204031D152D162D072D2608FA3847
:100A300097314327843123000F0C890C01392000A2
:100A4000A200230011081F3920002204031D292DB4
:100A50002A2D1B2D2608FE38973143278431230089
:100A60000F0C890C01392000A200230011081F3946
:100A700020002204031D3D2D3E2D2F2D00002300BC
:100A800091149118442D452D412D23000F0C890CF4
:100A900001392000A200230011081F392000220480
:100AA000031D532D542D452D4F309731432784314D
:100AB00023000F0C890C01392000A200230011082B
:100AC0001F3920002204031D662D672D582D9431F7
:100AD000022484312000A2002208A50023000F0C6C
:100AE000890C01392000A200230011081F392000C1
:100AF0002204031D7C2D7D2D6E2D230091161116D1
:100B0000111A832D842D802D91149118882D892DF3
:100B1000852D23000F0C890C01392000A200230031
:100B200011081F3920002204031D972D982D892DAF
:100B30004E3097314327843123000F0C890C013943
:100B40002000A200230011081F3920002204031DE9
:100B5000AA2DAB2D9C2D2608FA38973143278431D6
:100B600023000F0C890C01392000A200230011087A
:100B70001F3920002204031DBE2DBF2DB02D2300E0
:100B800011151119C42DC52DC12D20002508A20055
:100B90000430A236890BC92D0F302205A30024088A
:100BA000F039230408002000C8003B08CF003C08AF
:100BB000D0003D08D1003E08D2003F08D3004008D5
:100BC000D4004108D5004208D6004F3086000030DE
:100BD0008700473FC300C31BEE2DF02D0130F12DE0
:100BE00000302000C400C5014408CD004508CE00F7
:100BF0004D084E040319FD2DFE2D1C2ECF09D009E2
:100C0000D109D209D309D409D509D609CF0A031DC0
:100C10001C2ED00A031D1C2ED10A031D1C2ED20A25
:100C2000031D1C2ED30A031D1C2ED40A031D1C2ECB
:100C3000D50A031D1C2ED60A2100D71B202E212EDB
:100C4000252EFD30D805FF30D9055708803A200001
:100C5000C30080304302031D302E013021005602B4
:100C60000318332E342E3A2E01302000C9000030F4
:100C7000CA00422E210057082000CA002100560851
:100C80002000C900210055082000CC002100540894
:100C90002000CB004D084E04031D4F2E502E552E24
:100CA0002100581D542E552E5A2EFF302000CB0700
:100CB000FF30CC3D1F302000D7000030D80022008C
:100CC000DE01CB2EFF302000D707FF30D83D0A30A1
:100CD000A000A101A201A301A401A501A601A701F1
:100CE0004F08A8005008A9005108AA005208AB00FC
:100CF0005308AC005408AD005508AE005608AF00CC
:100D00008A31BF22853120002108B4002008B300B9
:100D10009331C823853120003308303EC300570883
:100D20003F3E86000130870043088100FF30C9073D
:100D3000FF30CA3DFF30CB07FF30CC3D0A30A0006A
:100D4000A101A201A301A401A501A601A7014F08C9
:100D5000A8005008A9005108AA005208AB00530887
:100D6000AC005408AD005508AE005608AF008C31F9
:100D70009E24853120002008CF002108D0002208C1
:100D8000D1002308D2002408D3002508D400260867
:100D9000D5002708D60020005808803AC3008030CC
:100DA0004302031DD52E01305702031CD82ED92E25
:100DB000062F20004F0850045104520453045404D9
:100DC00055045604031DE52EE62E622E4A08803A8D
:100DD000C30080304302031DEF2E01304902031887
:100DE000F22EF32E622E20004C08803AC300803091
:100DF0004302031DFD2E01304B02031C002F012F67
:100E0000062F2100D818052F062F622E20004D082E
:100E10004E04031D0C2F0D2F122F2100581D112FD2
:100E2000122F2F2FFF302000D707FF30D83D4D085D
:100E30004E04031D1C2F1D2F222F2B30C600003007
:100E4000C700262F2D30C6000030C7004608C3005B
:100E500057083F3E8600013087004308810020008C
:100E600057083F3EC3004308B0004C08B2004B088F
:100E7000B10048089631EA26853120003108BC00CF
:100E80003008BB0008002000AF009930A00070308F
:100E9000A1009231862287312000AE002F08860003
:100EA00087012E0881009A30A0007030A100923195
:100EB000862287312000AE002208860087012E0896
:100EC00081009B30A0007030A100923186228731D2
:100ED0002000AE002308860087012E0881009C3088
:100EE000A0007030A1009231862287312000AE0030
:100EF0002408860087012E0881009D30A0007030F4
:100F0000A1009231862287312000AE00250886009C
:100F100087012E0881009E30A0007030A100923120
:100F2000862287312000AE002608860087012E0821
:100F300081009F30A0007030A1009231862287315D
:100F40002000AE002708860087012E088100A0300F
:100F5000A0007030A1009231862287312000AE00BF
:100F60002808860087012E088100A130A00070307B
:100F7000A1009231862287312000AE002908860028
:100F800087012E088100A230A0007030A1009231AC
:100F9000862287312000AE002A08860087012E08AD
:100FA0008100A330A0007030A100923186228731E9
:100FB0002000AE002B08860087012E088100A43097
:100FC000A0007030A1009231862287312000AE004F
:100FD0002C08860087012E088100A530A000703003
:100FE000A1009231862287312000AE002D088600B4
:100FF00087012E08810008009131D1218731080036
:101000009131CE218831080000308B1B0130200047
:10101000A300210830009B002000200830009A0027
:101020002000220830009C001E171E158B1355301F
:101030009F00AA309F009E149E181F2820281C285D
:101040001E112000230C031C8B1303188B170800A0
:1010500041302000A800EE30890B2C28A80B2C284A
:1010600000003030963197268831343096319726FB
:101070008831A630890B3A280032303096319726D5
:10108000883107302000A8007D30890B4528A80B47
:10109000452830309631972688313430963197265E
:1010A0008831A630890B522800323030963197268D
:1010B00088312130890B5A2800003030963197262C
:1010C00088313430963197268831A630890B6628CE
:1010D000003230309631972688312130890B6E28C6
:1010E000000020309631972688312430963197269B
:1010F0008831A630890B7A28003220309631972625
:10110000883107302000A8007D30890B8528A80B86
:1011100085282000A20128308931E821883120006B
:10112000A20106308931E82188312000A2010F3068
:101130008931E82188312000A20101308931E8217C
:10114000883103302000A8009730890BA528A80B10
:10115000A5280032080099302000A0007030A100BE
:10116000AA30A4002408A2008831042088319A30D3
:101170002000A0007030A1000A30A4002408A200C2
:101180008831042088319B302000A0007030A100FD
:10119000A2018831042088319C302000A0007030EA
:1011A000A100A2018831042088319D302000A000D8
:1011B0007030A100A2018831042088319E302000C7
:1011C000A0007030A1000530A4002408A2008831DE
:1011D000042088319F302000A0007030A10003302F
:1011E000A4002408A200883104208831A030200007
:1011F000A0007030A1001930A4002408A20088319A
:1012000004208831A1302000A0007030A1000230FD
:10121000A4002408A200883104208831A2302000D4
:10122000A0007030A100A201883104208831A330D1
:101230002000A0007030A1000C30A4002408A200FF
:10124000883104208831A4302000A0007030A10033
:10125000A201883104208831A5302000A000703020
:10126000A100E330A4002408A200883104208831C2
:1012700008002000B301B401AC01AD0143290130E5
:10128000A6070030A73DB201B20A2608840027084D
:1012900085001200203A03194E294F296429260897
:1012A0008400270885000008F73EA800FF300318D7
:1012B0000030A90000302902053003192802031C60
:1012C000622963296429B2013208A800A90128080B
:1012D000AE002908AF002E082F04031D70297129C4
:1012E0003F297B290130AC000030AD000130A6075A
:1012F0000030A73DAF292608840027088500000894
:10130000A800A9012908003A03198729AF2928084C
:101310002B3A03197629063A03197229AF292608B0
:101320008400270885000008A8003408A1003308BD
:10133000A0000A30A2000030A3009431212489319A
:1013400020002108AA0028082002A900031CAA03E3
:101350002908303EB30000302A3DB4007629260823
:101360008400270885000008D03EA800FF3003183D
:101370000030A900003029020A3003192802031C9A
:10138000C229C4290130C5290030AA00AB012A08AE
:10139000B0002B08B10030083104031DD029D12939
:1013A0008F292C082D04031DD629D729E3293309B9
:1013B000A8003409A900A80A0319A90A2808A60048
:1013C0002908A700E7293408A7003308A600080069
:1013D0002000A5002508F039A3002308A600250851
:1013E000A3000330A335FF3E031DF2292335F03956
:1013F000A4002408A70023000F0C890C0139200049
:10140000A300230011081F3920002304031D092A0B
:101410000A2AFB292300111411180F2A102A0C2A5A
:1014200023000F0C890C01392000A30023001108B0
:101430001F3920002304031D1E2A1F2A102A4E30A4
:1014400097314327893123000F0C890C0139200083
:10145000A300230011081F3920002304031D312A93
:10146000322A232A26082204083897314327893153
:1014700023000F0C890C01392000A3002300110860
:101480001F3920002304031D462A472A382A26082C
:1014900022040C3897314327893123000F0C890C23
:1014A00001392000A300230011081F392000230464
:1014B000031D5B2A5C2A4D2A000020002608220416
:1014C000083897314327893123000F0C890C0139E3
:1014D0002000A300230011081F3920002304031D4E
:1014E000722A732A642A270822040838973143276E
:1014F000893123000F0C890C01392000A30023003F
:1015000011081F3920002304031D872A882A792AFD
:10151000270822040C3897314327893123000F0C08
:10152000890C01392000A300230011081F39200075
:101530002304031D9C2A9D2A8E2A000020002708D0
:101540002204083897314327893123000F0C890C76
:1015500001392000A300230011081F3920002304B3
:10156000031DB32AB42AA52A230011151119B92A7B
:10157000BA2AB62A1030890BBB2A00320800200094
:10158000B2012830860000308700473FB000B01F0E
:10159000CA2ACB2AED2A2000A809A909AA09AB0961
:1015A000AC09AD09AE09AF09A80A031DEA2AA90AC8
:1015B000031DEA2AAA0A031DEA2AAB0A031DEA2A26
:1015C000AC0A031DEA2AAD0A031DEA2AAE0A031D6E
:1015D000EA2AAF0A2000B201B20A203086000030A9
:1015E0008700473F2000B000B01FF72AF82A172BCA
:1015F0002000A009A109A209A309A409A509A60917
:10160000A709A00A031D172BA10A031D172BA20A65
:10161000031D172BA30A031D172BA40A031D172B49
:10162000A50A031D172BA60A031D172BA70A2000C6
:10163000200821042204230424042504260427046A
:101640000319232B242B772BB101B10A332BA0359F
:10165000A10DA20DA30DA40DA50DA60DA70D013082
:10166000B0003008B107A71F362B372B272B2708D0
:101670002F02031D552B26082E02031D552B25086E
:101680002D02031D552B24082C02031D552B230866
:101690002B02031D552B22082A02031D552B21085E
:1016A0002902031D552B20082802031C582B592BF7
:1016B000692B2008A8022108A93B2208AA3B23087D
:1016C000AB3B2408AC3B2508AD3B2608AE3B2708C6
:1016D000AF3BA736A60CA50CA40CA30CA20CA10C26
:1016E000A00C0130B102031D762B772B372B32086B
:1016F00003197B2B7C2B9A2BA809A909AA09AB09F2
:10170000AC09AD09AE09AF09A80A031D9A2BA90AB5
:10171000031D9A2BAA0A031D9A2BAB0A031D9A2BB1
:10172000AC0A031D9A2BAD0A031D9A2BAE0A031DAA
:101730009A2BAF0A20002808A0002908A1002A0837
:10174000A2002B08A3002C08A4002D08A5002E0839
:10175000A6002F08A7000800053022006606031D1A
:10176000B22BB32B482C21006E082200650203180F
:10177000BA2BBB2BD02B5330F0007030F10021007E
:101780006E08F7007708F2009331E4238B312100D3
:10179000DC012E30933142238B312100DA01E92B19
:1017A00021005B086E020318D62BD72BE92B54308F
:1017B000F0007030F1006E08F7007708F200933106
:1017C000E4238B312100DC01DA012E3093314223F6
:1017D0008B3121006F08220067020318F02BF12BD8
:1017E000052C5530F0007030F10021006F08F70033
:1017F0007708F2009331E4238B312100DC01DA0118
:101800004030933142238B311E2C21005D086F0242
:1018100003180B2C0C2C1E2CDC015630F000703001
:10182000F1006F08F7007708F2009331E4238B3161
:101830002100DA014030933142238B310030923164
:10184000A7228B317108FB007008FA008D31A325A7
:101850008B31F7007708F900790821006E06031D27
:10186000322C332C402C6F08F700F8017B087806E7
:10187000031D3C2C7A08770603193F2C402C482C7A
:101880007A08F7007708F400790897319D278B31A3
:10189000053022006606031D4E2C4F2C522CE6010B
:1018A000E60A562C0130F7007708E60721005C08AD
:1018B0006506031D5C2C5D2C632C9131E0218B317E
:1018C0002100DC01802C5A08031D672C682C732C26
:1018D0000A30F0000030F1009231CC228B3121002F
:1018E000DA01DA0A7C2C0330F0000030F10092318A
:1018F000CC228B312100DA010130F7007708DC07B8
:1019000020008C1B842C852C872C9617882C9613F2
:1019100002307B02FE3003197A020318902C912CBE
:101920009A2C00307B02FF3003197A020318992C9D
:101930009A2C9C2C16169D2C161208002000B20121
:101940002030860000308700473FB000B01FA92C30
:10195000AA2CCC2C2000A009A109A209A309A40942
:10196000A509A609A709A00A031DC92CA10A031DE0
:10197000C92CA20A031DC92CA30A031DC92CA40A41
:10198000031DC92CA50A031DC92CA60A031DC92CB9
:10199000A70A2000B201B20A283086000030870072
:1019A000473F2000B000B01FD62CD72CFB2C2000C6
:1019B000A809A909AA09AB09AC09AD09AE09AF0983
:1019C000A80A031DF62CA90A031DF62CAA0A031D5A
:1019D000F62CAB0A031DF62CAC0A031DF62CAD0A3F
:1019E000031DF62CAE0A031DF62CAF0A01302000B1
:1019F000B0003008B206333086000030870008306F
:101A00002000B00000301E00B00B032D2008210480
:101A10002204230424042504260427040319112D79
:101A2000122D6E2DB101B10A212DA035A10DA20DEF
:101A3000A30DA40DA50DA60DA70D0130B000300813
:101A4000B107A71F242D252D152DB335B40DB50DC8
:101A5000B60DB70DB80DB90DBA0D27082F02031D2D
:101A60004B2D26082E02031D4B2D25082D02031D8C
:101A70004B2D24082C02031D4B2D23082B02031D84
:101A80004B2D22082A02031D4B2D21082902031D7C
:101A90004B2D20082802031C4E2D4F2D602D2008B1
:101AA000A8022108A93B2208AA3B2308AB3B240833
:101AB000AC3B2508AD3B2608AE3B2708AF3B3314B3
:101AC000A736A60CA50CA40CA30CA20CA10CA00C70
:101AD0000130B102031D6D2D6E2D252D3208031925
:101AE000722D732D912DB309B409B509B609B70943
:101AF000B809B909BA09B30A031D912DB40A031D27
:101B0000912DB50A031D912DB60A031D912DB70A1B
:101B1000031D912DB80A031D912DB90A031D912DA6
:101B2000BA0A20003308A0003408A1003508A2003A
:101B30003608A3003708A4003808A5003908A60015
:101B40003A08A700080023000F0C890C0139F200A5
:101B500011081F397204031DAE2DAF2DA32D1114D2
:101B60001118B32DB42DB02D0F0C890C0139F200D2
:101B700011081F397204031DBE2DBF2DB42D9A30DC
:101B80009531AC258D3123000F0C890C0139F20001
:101B900011081F397204031DCE2DCF2DC32D013026
:101BA0009531AC258D3123000F0C890C0139F200E1
:101BB00011081F397204031DDE2DDF2DD32D911462
:101BC0009118E32DE42DE02D0F0C890C0139F20062
:101BD00011081F397204031DEE2DEF2DE42D9B30EB
:101BE0009531AC258D3123000F0C890C0139F200A1
:101BF00011081F397204031DFE2DFF2DF32D9331A3
:101C00005C238D31F2007208F30023000F0C890C65
:101C10000139F20011081F397204031D102E112E14
:101C2000052E91161116111A162E172E132E0F0CA3
:101C3000890C0139F20011081F397204031D212E8D
:101C4000222E172E11151119262E272E232E731F23
:101C50002A2E2B2EA32D0F0C890C0139F20011080E
:101C60001F397204031D352E362E2B2E1114111818
:101C70003A2E3B2E372E0F0C890C0139F200110839
:101C80001F397204031D452E462E3B2E9A30953186
:101C9000AC258D3123000F0C890C0139F20011089D
:101CA0001F397204031D552E562E4A2E00309531D1
:101CB000AC258D3123000F0C890C0139F20011087D
:101CC0001F397204031D652E662E5A2E9114911829
:101CD0006A2E6B2E672E0F0C890C0139F200110849
:101CE0001F397204031D752E762E6B2E9B30953195
:101CF000AC258D3123000F0C890C0139F20011083D
:101D00001F397204031D852E862E7A2E93315C2393
:101D10008D31F2007208F30023000F0C890C013999
:101D2000F20011081F397204031D972E982E8C2E75
:101D300091161116111A9D2E9E2E9A2E0F0C890C9B
:101D40000139F20011081F397204031DA82EA92EB3
:101D50009E2E11151119AD2EAE2EAA2E7308080055
:101D600023000F0C890C01392000A2002300110868
:101D70001F3920002204031DBE2EBF2EB02E2300CB
:101D800011141118C42EC52EC12E23000F0C890C5E
:101D900001392000A200230011081F39200022046D
:101DA000031DD32ED42EC52E9A30973143278E3162
:101DB00023000F0C890C01392000A2002300110818
:101DC0001F3920002204031DE62EE72ED82E0130F5
:101DD000973143278E3123000F0C890C01392000E5
:101DE000A200230011081F3920002204031DF92E30
:101DF000FA2EEB2E230091149118FF2E002FFC2EAB
:101E000023000F0C890C01392000A20023001108C7
:101E10001F3920002204031D0E2F0F2F002F9B308F
:101E2000973143278E3123000F0C890C0139200094
:101E3000A200230011081F3920002204031D212FB6
:101E4000222F132F943102248E312000A200220869
:101E5000A30023000F0C890C01392000A2002300ED
:101E600011081F3920002204031D372F382F292F76
:101E7000230091161116111A3E2F3F2F3B2F2300DE
:101E80000F0C890C01392000A200230011081F3912
:101E900020002204031D4D2F4E2F3F2F230011152C
:101EA0001119532F542F502F2000231F582F592F13
:101EB000B02E23000F0C890C01392000A200230052
:101EC00011081F3920002204031D672F682F592F86
:101ED0002300111411186D2F6E2F6A2F23000F0C81
:101EE000890C01392000A200230011081F392000AD
:101EF0002204031D7C2F7D2F6E2F9A3097314327AC
:101F00008E3123000F0C890C01392000A200230020
:101F100011081F3920002204031D8F2F902F812FBD
:101F20000030973143278E3123000F0C890C013983
:101F30002000A200230011081F3920002204031DE5
:101F4000A22FA32F942F230091149118A82FA92F0B
:101F5000A52F23000F0C890C01392000A2002300BB
:101F600011081F3920002204031DB72FB82FA92FF5
:101F70009B30973143278E3123000F0C890C013998
:101F80002000A200230011081F3920002204031D95
:101F9000CA2FCB2FBC2F943102248E312000A200F7
:101FA0002208A30023000F0C890C01392000A20095
:101FB000230011081F3920002204031DE02FE12F08
:101FC000D22F230091161116111AE72FE82FE42FB4
:101FD00023000F0C890C01392000A20023001108F6
:101FE0001F3920002204031DF62FF72FE82F2300AE
:101FF00011151119FC2FFD2FF92F200023080800BF
:10239A00080025008E17080025008E1308002E005D
:1023AA00901092313222913108006400800101318B
:1023BA00890BDB2900348731FC279131923167225E
:1023CA00913108002000A800A20128088931E821DB
:1023DA00913108002F0096019701980199019A01FD
:1023EA009B0108002000A800A201A20A280889313E
:1023FA00E82191310800623031008D008F0191018E
:10240A000230930092010800200021082200E20015
:10241A00200020082200E1000800200021082200F4
:10242A00E000200020082200DF000800803023009E
:10243A008F0008309000910103308D00901208003F
:10244A0022006108620403192B2A2C2A312A620805
:10245A008A0061080A009231080022005F086004BD
:10246A000319382A392A3E2A60088A005F080A00B6
:10247A0092310800803023008F00083090009101CB
:10248A0003308D0090162000931513160800803033
:10249A0027008E0006308D0040308C0024001F0873
:1024AA00F33904389F0008002E0010102200640837
:1024BA00F1006308F000923196229231923125227E
:1024CA009231080055303D008F00AA308F000F105E
:1024DA003E00960155303D008F00AA308F000F1440
:1024EA00080055303D008F00AA308F000F100D30C4
:1024FA003E00960055303D008F00AA308F000F1421
:10250A0008002000210830009B002000200830002D
:10251A009A001E171E140000000030009E171C08A7
:10252A00080024000E1D9A2A9B2AA22A0E1071085E
:10253A008D0070088C000E14A62A71088D00700890
:10254A008C000800F200720821009E0093171313F2
:10255A001314000021001318B32AB42AAF2A0D0855
:10256A00F1000C08F0000800003084314824923150
:10257A0080390319C12AC22AC82A01302000A700BB
:10258A000030A800CB2A2000A701A8010800710882
:10259A00F3007008F200F336F20CF336F20C72080C
:1025AA0027008D0070080339F2000530F235FF3E2E
:1025BA00031DDB2A72358C00080022008E018F0170
:1025CA0090019101920193018D0121009E019B01CD
:1025DA009C0194019501960197019A01990198012C
:1025EA00843093009D0108000130250090008F017E
:1025FA0091010C308D008C012E0090109A1402303B
:10260A002000A0000030A1009231122292318030C5
:10261A0025008E0008009131EF21933192311B225F
:10262A00933195316725933192310022933192315A
:10263A004C2293319231E22293319231F922933131
:10264A00943141249331080020002008D03EA20092
:10265A00FF30213DA300003023020A300319220271
:10266A00031C382B3A2B01303B2B0030A400A50168
:10267A002408A0002508A1000800F4002E307406E2
:10268A00031D482B492B4C2B200096164E2B20005D
:10269A001616883100209331923176229331033015
:1026AA00F0000030F1009231CC22933108000F3053
:1026BA0023001005F000083070060319652B662BFD
:1026CA006F2B0F301005F0000B307006031D6E2BB8
:1026DA006F2B702B91150F1C732B742B702B0C08FE
:1026EA0008007B2B2E089131F721933120002A080C
:1026FA00AC002908AB00A90A0319AA0A2B0884000E
:10270A002C0885000008AD002D08AE002E08031D18
:10271A008F2B902B772B08002000A4002408A200FE
:10272A002208A3009C2B0130A2002208A407240837
:10273A008600013087000108031DA42BA52B982BC6
:10274A0023082402A000A101A01BA1030800200065
:10275A00AB0002302B02031CB32BB42BB92BC030B5
:10276A00AA002A08AC00BD2B8030AA002A08AC00B7
:10277A0029080F392C04AA002A08AC002C08913128
:10278A00E7219331080020003408803AB5008030F0
:10279A003502031DD22B013033020318D52BD62B59
:1027AA00E32B20003309B5003409B600B50A031932
:1027BA00B60A3508B3003608B400E32B0800003027
:1027CA008B1B0130F300710830009B0070089A00DF
:1027DA0072089C001E171E158B1355309F00AA30D5
:1027EA009F009E149E18FA2BFB2BF72B1E11730CBD
:1027FA00031C8B1303188B1708000F3023001005D6
:10280A002000A0000830200603190C2C0D2C182CCF
:10281A000F30230010052000A0000B302006031DF6
:10282A00172C182C1A2C2300911523000F1C1E2C70
:10283A001F2C1A2C0C0808002000A401A501201C3A
:10284A00272C282C2C2C2208A4072308A53D01306C
:10285A00A235A30D890B2D2C0130A136A00C890BB2
:10286A00322C20082104031D3B2C3C2C242C250847
:10287A00A1002408A000080024008F019001043060
:10288A00910086308D00E8308C002E001010240054
:10289A000D082200E40024000C082200E3002E00A8
:1028AA001A14CD302000A0001130A1009231092263
:1028BA009431013024008E0008002000A401A40AEB
:1028CA0020302006210403196B2C6C2C7C2C200848
:1028DA00F73EA200FF30213DA3000030230205305D
:1028EA0003192202031C7A2C7B2C7C2CA4012408B9
:1028FA00A200A3012208A0002308A10008002100C9
:10290A00B000A830AE002E08AF003008AE002E0886
:10291A00B100B201B301B401B5012708A10026082C
:10292A00A000AF30AE002E08A200B1309431FB24D3
:10293A009431210032083007AE002E088600870144
:10294A00810108002000AF00AD01AE01BF2C2C08A8
:10295A00A900AA012908A0002A08A1002808AB009A
:10296A002B08A20096314626943101302000AD078B
:10297A000030AE3D2D082F07A90029088600013036
:10298A0087000108AA002A08AC002C08031DCE2CD7
:10299A00CF2CAC2C080053302000A0007030A100CE
:1029AA00FF30A4002408A200883104209431543056
:1029BA002000A0007030A100A201883104209431C7
:1029CA0057302000A0007030A100FF30A400240876
:1029DA00A20088310420943159302000A0007030C0
:1029EA00A100A20188310420943108002100A3002B
:1029FA002108A5002008A4002200BD01BE011D2D4A
:102A0A00A4302000EE006E08D90021002208200020
:102A1A00EF006F08DA00210023088231A2229431E4
:102A2A00200059082200BD0720005A082200BE3D96
:102A3A00210024088400250885001200031D262D84
:102A4A00272D052D22003E082100A10022003D0865
:102A5A002100A00008002000A4004C2D0030A50091
:102A6A007030A600622D0530A5007030A600622DD8
:102A7A000A30A5007030A600622D0F30A500703014
:102A8A00A600622DFF30A500F030A600622D2408B2
:102A9A00A200A3012308003A0319542D472D220846
:102AAA00643A0319332D013A0319382D033A0319ED
:102ABA003D2D013A0319422D472D2608A10025086C
:102ACA00A000080020009A01990196019701980137
:102ADA00073095004F309100FF309200FF3093008D
:102AEA00FF309400FF303E00D900C730CE00EF30EF
:102AFA00C3000730E4000F30B800DA01E501C40171
:102B0A00B901CF01E601BA01C501D001DB01FF30ED
:102B1A00BB00FF30C600FF30D100FF30DC000730B9
:102B2A00E700FF30BC00FF30C700FF30D200FF30A3
:102B3A00DD000730E80013303D00C50014303E00C8
:102B4A00A3001530A40014303D00C6000800F100AF
:102B5A00710823008C00901FB32DB42DB52DF62DCE
:102B6A000F301005F000083070060319BD2DBE2D78
:102B7A00D42D0F301005F0000B3070060319C62D46
:102B8A00C72DD42D10162E000F1CCC2DCD2DC82DDF
:102B9A0023000F19D12DD22DF62D0F08F62D0F3047
:102BAA001005F000083070060319DC2DDD2DE62D26
:102BBA000F301005F0000B307006031DE52DE62DD1
:102BCA00F62D0F18E92DEA2DE62D0F0C890C013987
:102BDA00F00011081F397004031DF42DF52DEA2D9C
:102BEA00110808002000AD002B08953130259531D9
:102BFA0020002108AF002008AE002F08A1002E08EF
:102C0A00A0002D08AC002C08A200883104209531C0
:102C1A0020002E08013EA00000302F3DA100270809
:102C2A00AC002C08A20088310420953120002E081F
:102C3A00023EA00000302F3DA1002808AC002C085D
:102C4A00A20088310420953120002E08033EA000FE
:102C5A0000302F3DA1002908AC002C08A2008831C1
:102C6A000420953120002E08043EA00000302F3D9C
:102C7A00A1002A08AC002C08A20088310420953152
:102C8A0008002000220803194B2E4C2E512E220830
:102C9A00031D502E512E562E2008803103209631C6
:102CAA00962E2208033E86008701160001040319A6
:102CBA005F2E602E7D2E2208033E86008701403F4C
:102CCA00A300413FA400220A86008701403FA500D5
:102CDA00413FA6002608803AA7002408803A270226
:102CEA00031D792E2308250203187C2E7D2E962E8D
:102CFA0020002008A300220886008701220A8400F7
:102D0A00850100080107A40024088600870123081A
:102D1A008100220A860087010130810741310318A8
:102D2A00810A08002000A30023000F0C890C013936
:102D3A002000A200230011081F3920002204031DCD
:102D4A00A72EA82E992E230011141118AD2EAE2EDF
:102D5A00AA2E23000F0C890C01392000A20023009F
:102D6A0011081F3920002204031DBC2EBD2EAE2ED1
:102D7A004E3097314327963123000F0C890C0139C5
:102D8A002000A200230011081F3920002204031D7D
:102D9A00CF2ED02EC12E23089731432796312300F8
:102DAA000F0C890C01392000A200230011081F39D9
:102DBA0020002204031DE22EE32ED42E2300111537
:102DCA001119E82EE92EE52E08002000B80021008E
:102DDA00581CF02EF12EFA2E20003808B3003308C2
:102DEA00A80030089431A72496312000B21BFE2E89
:102DFA00FF2E042F3208B7003108B600062FB6019D
:102E0A00B701B401B5011A2F20302000A00000300C
:102E1A00A1003808B3003308A2009631462696313D
:102E2A0001302000B4070030B53D3508803AB300C0
:102E3A003708803A3302031D242F36083402031C54
:102E4A00272F282F092F210058182C2F2D2F362FE6
:102E5A0020003808B3003308A80030089431A724AA
:102E6A00963120003008933191239631200036089C
:102E7A002007B0003708213DB10008002000A1005A
:102E8A00210823008C00901F4B2F4C2F4D2F9C2F75
:102E9A000F3010052000A000083020060319562F15
:102EAA00572F702F0F30230010052000A0000B3081
:102EBA0020060319612F622F702F230010162E008F
:102ECA000F1C682F692F642F23000F196D2F6E2F87
:102EDA009C2F0F089C2F0F30230010052000A00004
:102EEA000830200603197A2F7B2F862F0F302300F4
:102EFA0010052000A0000B302006031D852F862F09
:102F0A009C2F23000F188A2F8B2F862F23000F0C3C
:102F1A00890C01392000A000230011081F39200064
:102F2A002004031D992F9A2F8B2F230011080800C4
:102F3A00F60021006D08F1006C08F0007D08F5002C
:102F4A007508F2009331E423973121006C08013EA1
:102F5A00F00000306D3DF1007C08F5007508F200C4
:102F6A009331E423973121006C08023EF0000030CF
:102F7A006D3DF1005E08F5007508F2009331E42317
:102F8A00973121006C08033EF00000306D3DF100DE
:102F9A007608F5007508F2009331E4239731210091
:102FAA006C08043EF00000306D3DF1007408F50035
:102FBA007508F2009331E42397317608F500750815
:102FCA002100EE007408F5007508EF0014306C0655
:102FDA00703003196D06031DF32FF42FF92F0030FB
:102FEA00EC007030ED00FF2F6C08053EEC0000305D
:102FFA006D3DED0008000034003400340034003424
:10300A000034003400340034003400340034003416
:10301A000034003400340034003400340034003406
:10302A0000340034003400340034003400340034F6
:10303A0000340034003425343034323464343A34C1
:10304A0025343034323464343A342534303432342A
:10305A0064342034203420342034203420340034A2
:10306A0025343034323464343A342534303432340A
:10307A0064343A34253430343234643420342034DD
:10308A00203420342034003425343034323464344B
:10309A003A3425343034323464343A3425343034D2
:1030AA0032346434003469346E34733465347234BF
:1030BA00743420347334653463346F346E34643456
:1030CA007334003469346E3473346534723474344E
:1030DA0020346D3469346E34753474346534733421
:1030EA00003469346E347334653472347434203481
:1030FA0068346F34753472347334003425343034A0
:10310A003234643420344334003453345434523423
:02311A0000347F
:020000040001F9
:0A000E00EC3FFF3F9F3FFF3FFF3F25
:00000001FF
